:020000040800F2
:10000000F00800209901000843240008612200083C
:1000100041240008D70600089D32000800000000B7
:10002000000000000000000000000000FB2C0008A1
:100030006D0700080000000045240008452D000859
:10004000B3010008B3010008B3010008B3010008C0
:10005000B3010008B3010008B3010008B3010008B0
:10006000B3010008B3010008B3010008B3010008A0
:10007000B3010008B3010008B3010008B301000890
:10008000B3010008B3010008B3010008B301000880
:10009000B3010008B3010008B3010008B301000870
:1000A000B3010008A92D0008B3010008B30100083E
:1000B000B52D0008B3010008B3010008B301000822
:1000C000B3010008B3010008B3010008B301000840
:1000D000B301000805320008B3010008113200081E
:1000E000B3010008B3010008B301000800F002F8F2
:1000F00000F042F80AA090E8000C82448344AAF180
:100100000107DA4501D100F037F8AFF2090EBAE87D
:100110000F0013F0010F18BFFB1A43F0010318473B
:100120001C3800003C380000103A24BF78C878C161
:10013000FAD8520724BF30C830C144BF04680C60ED
:10014000704700000023002400250026103A28BF35
:1001500078C1FBD8520728BF30C148BF0B60704739
:10016000642900F0BF80732900F055820020704799
:100170001FB51FBD10B510BD00F073FA1146FFF793
:10018000F7FF03F0A9F800F091FA03B4FFF7F2FFCC
:1001900003BC00F099FA000009488047094800476D
:1001A000FEE7FEE7FEE7FEE7FEE7FEE7FEE7FEE727
:1001B000FEE7FEE704480549054A064B7047000084
:1001C000A72D0008ED000008F0020020F008002034
:1001D000F0040020F0040020B2F120030AD5C2F19F
:1001E000200320FA02F001FA03F321FA02F140EAB7
:1001F0000300704721FA03F04FF000017047000040
:100200000FB41CB5074B06AA7B44694600900598BD
:1002100000F0D7F90020694600F0E6F91CBC5DF853
:1002200014FB0000DD0300002DE9F0410E460446FA
:10023000002020622046E168884730B3252805D099
:10024000D4E901219047206A401CF2E7E16820468A
:1002500000278847050018D0A5F14100192802D8C9
:1002600020354FF400673246294620462760FFF7C5
:1002700077FF40B1012804D0F61D26F007060836A6
:10028000D8E7361DD6E72846DAE7206ABDE8F081D0
:1002900070B50C460546012A05D02878800600D5A1
:1002A000EA69002302E0012305E05B1C934202D2CD
:1002B000E05C0028F9D1A869E618C01AA861286A8C
:1002C000184428622846AFF3008004E0D5E90121F4
:1002D00014F8010B9047B442F8D32846AFF30080DE
:1002E00070BD00002DE9F041064600241068752914
:1002F000314616A510D0AFF30080002802DA404244
:1003000013A507E031688A0701D512A502E0490765
:1003100004D511A5012401E0AFF3008000210A22D9
:1003200006F1240709E0B0FBF2FCB0FBF2F302FB9C
:100330001C00303078541846491C0028F3D123465D
:100340002A463046BDE8F04100F0DDB8000000006C
:100350002D0000002B0000002000000040EA0103F7
:1003600010B59B070FD1042A0DD310C808C9121F5E
:100370009C42F8D020BA19BA884201D9012010BD98
:100380004FF0FF3010BD1AB1D30703D0521C07E065
:10039000002010BD10F8013B11F8014B1B1B07D1C9
:1003A00010F8013B11F8014B1B1B01D1921EF1D13A
:1003B000184610BD032A40F2308010F0030C00F004
:1003C000158011F8013BBCF1020F624498BF11F88F
:1003D00001CB00F8013B38BF11F8013BA2F1040248
:1003E00098BF00F801CB38BF00F8013B11F00303C0
:1003F00000F02580083AC0F0088051F8043B083A24
:1004000051F804CBA0E80810F5E7121D5CBF51F8C5
:10041000043B40F8043BAFF30080D20724BF11F83F
:10042000013B11F801CB48BF11F8012B24BF00F8A4
:10043000013B00F801CB48BF00F8012B704710B515
:10044000203AC0F00B80B1E81850203AA0E81850CC
:10045000B1E81850A0E81850BFF4F5AF5FEA027C8D
:1004600024BFB1E81850A0E8185044BF18C918C0FC
:10047000BDE810405FEA827C24BF51F8043B40F89D
:10048000043B08BF7047D20728BF31F8023B48BF82
:1004900011F8012B28BF20F8023B48BF00F8012BC0
:1004A000704702F0FF0343EA032242EA024200F0EF
:1004B000B8B84FF0000200B513469446964620396E
:1004C00022BFA0E80C50A0E80C50B1F12001BFF40D
:1004D000F7AF090728BFA0E80C5048BF0CC05DF873
:1004E00004EB890028BF40F8042B08BF704748BFC1
:1004F00020F8022B11F0804F18BF00F8012B704735
:100500007047704770472DE9F0470D46994692466F
:10051000044600F124080168880604D5E06921F04A
:100520001001216000E00120A84201DD471B00E02E
:100530000027A1697A1902EB0900081AA061207846
:10054000C00602D42046AFF30080002608E0D4E9BC
:1005500001211AF806009047206A401C761C206290
:100560004E45F4DB2078C0060AD52046AFF3008064
:1005700006E0D4E9012130209047206A401C206227
:10058000381EA7F10107F4DC07E0D4E9012118F8CF
:1005900005009047206A401C2062281EA5F1010535
:1005A000F3DC2046AFF300802078000602D502205D
:1005B000BDE8F0870120FBE701694A1C0261087869
:1005C000704700B58FB0CDE9013100210591054993
:1005D0007944CDE9031011466846FFF725FE0FB0B8
:1005E00000BD0000E5FFFFFF0A6802F8010B0A608A
:1005F000704710B5436913B1AFF3008001E0FFF716
:1006000047FE012010BD127800F124010A7000227B
:100610004A700122EDE711684FF0FF32E9E74FF031
:1006200000020429C0F0128010F0030C3FF443AF25
:10063000CCF1040CBCF1020F18BF00F8012BA8BFCD
:1006400020F8022BA1EB0C01FFF735BF5FEAC17C5C
:1006500024BF00F8012B00F8012B48BF00F8012B44
:100660007047754600F02CF8AE46050069465346C3
:1006700020F00700854618B020B5FFF79BFDBDE8C8
:1006800020404FF000064FF000074FF000084FF0F9
:10069000000B21F00701AC46ACE8C009ACE8C0098A
:1006A000ACE8C009ACE8C0098D46704710B50446F7
:1006B000AFF300802046BDE81040FFF766BD0000A4
:1006C000004870479002002001491820ABBEFEE7A9
:1006D000260002007047FEE70346002010B50246E0
:1006E000491E04E09C5C521C2044C0B2D2B28A4233
:1006F000F8DB10BD0548418BA1F56A42603A04D190
:100700004EF661214183EE214170704708000020C0
:1007100070B502F085FD134C012604F140055928FF
:1007200004F12C014FF01402284615D0FFF787FE84
:100730000321EE206218491CC9B282F84000132937
:10074000F8D314212846FFF7C7FF04F8530F0648D3
:1007500000F0E4F9A67070BDFFF771FE84F85560F3
:1007600070BD00006000002000FC00087047000021
:1007700070B57A4C0646208B0025B04275D32022F6
:1007800010217748FFF78DFE754820221021103088
:10079000FFF787FE7248202210212030FFF781FEEC
:1007A0006F48202210213030FFF77BFE6C4A002179
:1007B0003032032002F082FA694A002120320220FE
:1007C00002F07CFA664A00211032012002F076FA2B
:1007D0000021634A084602F071FA04F1380261A16F
:1007E0005F48FFF70DFD61784FF6FF7031B10129C9
:1007F00016D0022930D0EE294BD145E0228A824220
:1008000005D1574858A11030FFF7FAFC04E05448CE
:1008100059A11030FFF7F4FC5BA12DE05CA115E0BD
:10082000228A824205D14E484FA11030FFF7E8FCE2
:1008300004E04B4850A11030FFF7E2FC484858A1B3
:100840002030FFF7DDFC607918B358A14448303000
:10085000FFF7D6FC65711CE0228A824206D140482F
:1008600041A11030FFF7CCFC05E02BE03C4842A151
:100870001030FFF7C5FC50A139482030FFF7C0FC0D
:1008800060790028CAD104E035484EA11030FFF746
:10089000B7FC334A00213032032002F00FFA304A0D
:1008A00000212032022002F009FA2D4A00211032E4
:1008B000012002F003FA0021294A084602F0FEF95D
:1008C000258370BDA0790028FBD0208B6428F8D345
:1008D000A571202210212248FFF7E3FD20482022A5
:1008E00010211030FFF7DDFD1D482022102120309F
:1008F000FFF7D7FD1A48202210213030FFF7D1FD35
:1009000034A11748FFF77CFC154832A11030FFF7DF
:1009100077FC134834A12030FFF772FC104836A151
:100920003030FFF76DFC00210D4A084602F0C6F991
:100930000B4A00211032012002F0C0F9084A0021C0
:100940002032022002F0BAF9054A00213032032099
:1009500002F0B4F9A6F5FA76268370BD08000020EF
:10096000E400002025730000536F206C756F6E67E4
:100970003A202A2A2A200000536F206C756F6E6778
:100980003A202564200000004D616E67204D6F0005
:100990004E68616E206E757420446F6E67000000B3
:1009A0004D616E6720446F6E670000004E68616E97
:1009B000206E7574204D6F004D616E672064617903
:1009C000000000004B686F6E67206B6574206E6FCF
:1009D000690000002020202020207C7C7C7C2020BE
:1009E000202020200000000020202020205C5C5CD3
:1009F0002F2F2F2020202000202020202020205CAE
:100A00002F2020202020200006490020C861064811
:100A1000016941F004010161016941F04001016196
:100A2000704700007002002000200240064A0021AA
:100A3000D16106490A6942F002020A614861086907
:100A400040F0400008617047700200200020024022
:100A5000044B0022DA61044A136943F00103136175
:100A600001807047700200200020024014480022DC
:100A7000C168CB06134904D5CA6942F00202CA61B3
:100A80001022C3685B0705D5CB6943F00103CB6136
:100A900042F00402C369DB0707D0CB6943F00403CB
:100AA000CB61C16921F00101C161A2F580710139F9
:100AB00001D0C2607047C16921F00101C161704776
:100AC000002002407002002070B5054600F0EAFBED
:100AD0000646114C09E0681C07D025B100F0E2FB86
:100AE000801BA84201D9032070BDE068C007F2D185
:100AF000E068800601D52020E060E068C00605D4EB
:100B0000E069C00702D1E068400703D5FFF7AEFFF8
:100B1000012070BD002070BD0020024010B586B0DD
:100B2000044600F0A9FA0120CDE90240019000201E
:100B3000009004A9684600F001FA00F053FA06B0EC
:100B400010BD000070B50D4C207B002814D0012290
:100B50000B4E55032946304600F09FFBA08C401CED
:100B600080B2A0840A2807D300222946304600F02C
:100B700094FB0020A084207370BD000008000020BA
:100B80000010014010B50023521C05E030F813405E
:100B90005B1C21F8024BDBB2B3EB520FF6D310BD56
:100BA0000E22FFF7EFBF2DE9F041164607460D462E
:100BB00000F062FA0024761C09E02A8807EB440161
:100BC0000023012000F018FA641CE4B2AD1CB4EB61
:100BD000560FF2D3BDE8F04100F004BA0FB40E2274
:100BE00010B503A9FFF7DFFF10BC5DF814FB000090
:100BF00070B586B0374801F034FB3649364E0E31B9
:100C00003046FFF7CDFF334C344D0E342078DA28D0
:100C100055D03046FFF782FF322000F07DF92D4895
:100C20000E222C498089ADF8000001A8FFF7C2FB15
:100C30000DF1040C30469CE80E00FFF7CFFF214673
:100C40003046FFF7ADFF0420211811F8031C29548A
:100C5000401CC0B21028F7D3214C0122102120469D
:100C600000F01BFB4FF49675284600F055F9002262
:100C70001021204600F011FB284600F04DF901221A
:100C80001021204600F009FB284600F045F900221B
:100C90001021204600F001FB284600F03DF901221A
:100CA0001021204600F0F9FA284600F035F906B088
:100CB0002046BDE870400022102100F0EEBA04206A
:100CC000211811F8031C2954401CC0B21028F7D376
:100CD00006B070BD3001002000FC0008400000207C
:100CE000000C014070B508213C4800F0C9FAB0B3CF
:100CF00000243B484472C17800296DD0012241F2A2
:100D0000883300210CB1457B55B3C184457B3DB18F
:100D1000858D6D1CADB285859D4201D34173818562
:100D20000CB1847B8CB30185827B42B1428D521C15
:100D300092B24285B2F5FA7F01D381734185C27BBD
:100D4000052A3CD3BFF34F8F26480168264A01F499
:100D5000E06111430160BFF34F8F00BFFDE700E08A
:100D600001E00124C5E7C58CB5F57A7F02D06D1C82
:100D7000C584D6E74273C17345783DB1022D05D0D5
:100D8000012D05D00E2D07D007E00DE0827201E0A5
:100D900002258572427100E04170C58D6D1CC585CC
:100DA0004FF461750583B3E7048D642C02D0641C95
:100DB0000485C4E78273C27B521CC273B6E752B18A
:100DC000028E521C92B202869A4204D3817301852C
:100DD0004185C1730186C17070BD0000000C0140E7
:100DE000080000200CED00E00400FA0510B54FF4F7
:100DF00000410F4800F044FA0E4908718A782AB180
:100E00000022012804D0CA820A708A70087810BDB6
:100E1000C88A0123A0F53064B83C06D0401C80B2DB
:100E2000C8820528F1D18B71EFE70B70EDE7000068
:100E3000000801400800002010B590F821100022A1
:100E4000022905D00421816380F82020012010BDF3
:100E500001680B6823F00E030B6001680B6823F038
:100E600001030B6090F84030C46B012101FA03F3D9
:100E7000636080F8211080F82020104610BD00002B
:100E800010B590F821100024022903D004218163B9
:100E900001243DE001680A6822F00E020A60016840
:100EA0000A6822F001020A601A4A0168914201D1DF
:100EB000012121E0174A1432914201D110211BE097
:100EC000144A2832914201D1891515E0114A3C3269
:100ED000914201D189140FE00E4A5032914202D161
:100EE0004FF4803108E00B4A6432914202D14FF452
:100EF000801101E04FF08071064A083A51600121EB
:100F000080F82110002180F82010416B01B1884742
:100F1000204610BD0800024070B5044600F0C2F93A
:100F20000546601C02D004480078044400F0BAF979
:100F3000401BA042FAD370BD500000202DE9F047BD
:100F4000054626480F460126017E01290FD00121C2
:100F5000814601762868DFF888804CF250340228F8
:100F600008D0A2462046FFF7AFFDA8B131E002202D
:100F7000BDE8F0872046FFF7A7FD08BB0120FFF77B
:100F800043FD2046FFF7A0FDD8F81010064621F0DB
:100F90000401C8F810101CE04FF0FF303860AC6856
:100FA00011E02046FFF742FD5046FFF78DFDD8F8CF
:100FB0001010060021F00201C8F8101001D03C60AA
:100FC00007E004F58064D5E9020100EB8120A0422E
:100FD000E7D8002189F818103046C9E770020020D0
:100FE000002002400348016941F0800101610020B6
:100FF00070470000002002402DE9F05F07461C48C2
:1010000088460024017E15461E46012909D001218B
:10101000814601764CF2503A5046FFF755FD18B123
:1010200022E00220BDE8F09F012F02D0022F00D065
:101030000427D346DFF83CA0220128463146FFF7BB
:10104000CBF881B208EB4400FFF702FD5846FFF7EA
:101050003BFDDAF8102022F00102CAF8102018B97E
:10106000641CE4B2BC42E7D3002289F81820D9E717
:101070007002002000200240064900200A69120682
:1010800007D5054A4A60054A4A600969090600D53C
:10109000012070470020024023016745AB89EFCD56
:1010A0002DE9F84FDFF8B8910024A9F1040B23468D
:1010B0000F2709F1040AABF1040EC9E00125A54090
:1010C0002A40AA427DD1674ED1F804C0ACEB060895
:1010D000B44532D014DCBCF1030F3AD009DCBCF1CA
:1010E000000F2AD0BCF1010F1CD0BCF1020F31D18E
:1010F0001DE0BCF1110F17D0BCF1120F2AD119E07D
:10110000B8F5881F19D006DCB8F5803F15D0B8F5C2
:10111000801F1FD111E0B8F5001F0ED0B8F5041FD5
:1011200018D10AE0CB6815E0CB681B1D12E0CB6834
:1011300008330FE0CB680C330CE08B682BB1012B2C
:101140004FF0080303D0456104E0042302E0056189
:1011500000E00023FF2A01D8064601E000F1040662
:101160004FEA840501D9A5F12005D6F8008007FAD9
:1011700005FC28EA0C0803FA05F548EA0508C6F854
:1011800000804D68ED0062D5374DAE6946F001062E
:10119000AE61AD6924F0030605F001050095334DFD
:1011A00006EB050CDCF80850A607360F07FA06F820
:1011B00025EA0805DFF8B880404503D14FF0000864
:1011C00017E044E0DFF8AC80404502D14FF0010861
:1011D0000FE0DFF8A480404502D14FF0020808E09C
:1011E000DFF89880404502D14FF0030801E04FF04E
:1011F000040808FA06F848EA0508CCF808804D68A3
:10120000D9F80060ED024D4601D5164300E0964343
:101210002E604D68DAF80060AD02554601D51643E0
:1012200000E096432E604D68DBF80060AD035D463C
:1012300001D5164300E096432E604D68DEF800604D
:10124000ED03754601D5164300E096432E60641CFD
:101250000D682A46E5407FF431AFBDE8F88F000005
:10126000080401400000111000100240000001407D
:1012700000080140000C0140001001400014014032
:101280008068084000D001207047C26821EA02034C
:101290000A4043EA0241016170470AB101617047A7
:1012A0000904FBE7014880687047000050000020F7
:1012B0000248816802781144816070475000002024
:1012C000074810B5016841F010010160032000F0EB
:1012D00075F80F2000F006F800F024F8002010BD8B
:1012E0000020024070B50D4D04464FF47A71287805
:1012F000B1FBF0F00A490968B1FBF0F000F0DCFA4C
:1013000048B9102C07D200222146501E00F036F8B2
:1013100000206C6070BD012070BD000050000020F6
:101320005C0000200C4808B5816941F00101816131
:10133000816901F001010091C16941F08051C161F1
:10134000C06900F0805000900448416821F0E061DD
:1013500041F00071416008BD0010024000000140F2
:10136000002809DB00F01F020121914040098000A4
:1013700000F1E020C0F8001170470000F0B40E4BFF
:101380001B680C46C3F30223C3F10705042D00D9E3
:101390000425191D072901D2002300E0DB1E0126C8
:1013A00006FA05F1491E214099409E40761E1640DE
:1013B0003143F0BC01F073BF0CED00E0064900F0D2
:1013C000070208684FF6FF03184040EA0220034A6C
:1013D00010430860704700000CED00E00000FA05C3
:1013E0002DE9F0470F46050061D0434E306800F00C
:1013F0000700B84209D2306820F007003843306057
:10140000306800F00700B84251D128683B4C810792
:1014100012D5400703D5606840F4E060606028782A
:10142000000703D5606840F4605060606068A96898
:1014300020F0F000084360602878C00728D0686872
:10144000012810D02168022810D0890700292EDA3F
:10145000616821F0030101436160FFF723FF8046CB
:1014600041F288390DE021688903EFE78901EDE752
:10147000FFF718FFA0EB0801494502D90320BDE89A
:10148000F0876068696800F00C00B0EB810FEFD165
:10149000306800F00700B8420BD9306820F0070030
:1014A00038433060306800F00700B84201D00120B6
:1014B000E5E72878400705D56068E96820F4E06032
:1014C000084360602878000706D56068296920F421
:1014D000605040EAC100606000F038F86168084A76
:1014E000C1F30311515CC840064908600648006812
:1014F000FFF7F8FE0020C2E7002002400010024083
:10150000223900085C0000205400002004480549EE
:1015100000684968044AC1F30221515CC840704721
:101520005C000020001002403239000804480549E0
:1015300000684968044AC1F3C221515CC840704741
:101540005C00002000100240323900080E4A516849
:101550000E4801F00C03042B11D0082B0FD10C48BE
:10156000C1F38343C903C05C0AD55168084AC1F37B
:101570004041921E515C054A5043B0FBF1F0704768
:1015800004494843704700000010024000127A00EE
:101590001239000800093D002DE9F84F040070D011
:1015A0002078C04DC00749D06868C0F38100012889
:1015B00007D06868C0F38100022809D16868C003B9
:1015C00006D52868800339D560680028E7D035E063
:1015D0006068B0F5803F0BD010B1B0F5A02F11D0EE
:1015E000286820F480302860286820F4802002E0F9
:1015F000286840F480302860606890B1FFF752FEA0
:1016000006460AE0286840F480202860F0E700BF22
:10161000FFF748FE801B642873D828688003F7D53D
:101620000CE0FFF73FFE064605E000BFFFF73AFE7D
:10163000801B6428F0D828688003F7D420789A4E5D
:1016400080074FF001094FF0000839D5686810F0A5
:101650000C0F07D06868C0F38100022809D16868C0
:10166000C00306D42868800714D52069012808D152
:1016700010E02069B0B1C6F80090FFF713FE0746EE
:1016800005E00AE1FFF70EFEC01B0228C4D8286857
:101690008007F7D52868616920F0F80040EAC100AA
:1016A00028600DE0C6F80080FFF7FCFD074604E067
:1016B000FFF7F8FDC01B022823D828688007F7D45D
:1016C000207800072CD57948A169D9B1C0F80090DD
:1016D000FFF7E8FD074604E0FFF7E4FDC01B022822
:1016E0000FD8686A8007F7D571484FF4FA5100683F
:1016F000B0FBF1F0009000BF0098411E0091FAD2BB
:101700000EE080E0C0F80080FFF7CCFD074604E063
:10171000FFF7C8FDC01B022875D8686A8007F7D498
:101720002078400760D5E8690027C00008D4E86940
:1017300040F08050E861E869012700F08050009097
:101740005C480168C90513D40168834641F480717F
:101750000160FFF7A7FD824606E000BFFFF7A2FD8C
:10176000A0EB0A0064284ED8DBF80000C005F5D5D0
:10177000E06801280AD008B1052813D0286A20F0B3
:1017800001002862286A20F0040002E0286A40F084
:1017900001002862E06841F2883B98B1FFF782FDC2
:1017A00082460BE0286A40F004002862EEE700BFA2
:1017B000FFF778FDA0EB0A0159455AD8286A80073F
:1017C000F6D50CE0FFF76EFD824605E0FFF76AFDF7
:1017D000A0EB0A0159454CD8286A8007F6D41FB1FE
:1017E000E86920F08050E861E06988B36968C1F376
:1017F0008101022944D00228C6F8608004D0FFF796
:1018000051FD044638E034E0FFF74CFD074604E0A4
:10181000FFF748FDC01B02282BD828688001F7D4A9
:10182000206AB0F5803F05D16868A16820F40030D7
:1018300008436860D4E908010843696821F4741119
:1018400008436860C6F86090FFF72CFD044606E088
:1018500025E000BFFFF726FD001B022809D82868F5
:101860008001F7D51BE000BFFFF71CFD001B02281D
:1018700002D90320BDE8F88F28688001F4D40EE077
:101880000128F7D06868226A00F48031914204D1BF
:10189000616A00F47010884201D00120EAE700205C
:1018A000E8E700000010024000004242800442428B
:1018B0005C0000200070004010B5401EB0F1807F39
:1018C00001D3012010BD4FF0E02460610F216017AB
:1018D00001F0E5FC0020A06107202061002010BD80
:1018E0007047704770B590F83C20012A26D001243B
:1018F00080F83C40022280F83D2003685A689D68C9
:1019000022F070060A6832435A600D4B02689A4210
:1019100008D0B2F1804F05D00A4B9A4202D00A4B50
:101920009A4204D1496825F080031943916080F8F8
:101930003D40002180F83C10084670BD022070BD7B
:10194000002C0140000400400008004010B50400D5
:1019500003D094F83D0010B107E0012010BD002035
:1019600084F83C00204600F01FF8022084F83D0077
:10197000211D206801F024FA012084F8460084F833
:101980003E0084F83F0084F8400084F8410084F869
:10199000420084F8430084F8440084F8450084F849
:1019A0003D00002010BD000008B5154A016815482B
:1019B00091420ED1816941F4006181618069002208
:1019C00000F40060009011461920FFF7D7FC1920A1
:1019D00010E0B1F1804F11D1C16941F00101C16145
:1019E000C069002200F00100009011461C20FFF7A2
:1019F000C5FC1C20BDE80840FFF7B2BC08BD0000D4
:101A0000002C01400010024090F83D10012901D047
:101A100001207047022180F83D100168CA6842F039
:101A20000102CA6000680B49884208D0B0F1804FBB
:101A300005D00949884202D00849884204D181680A
:101A400001F00701062903D0016841F0010101609E
:101A500000207047002C01400004004000080040B6
:101A60000168CA6822F00102CA6001680A6A41F28C
:101A700011131A4207D10A6A9B101A4203D10A684D
:101A800022F001020A60012180F83D100020704719
:101A900070B5044690F83C000025012817D00126B7
:101AA00084F83C60022084F83D002068826822F0BF
:101AB000770222F47F4282600868502838D00DDC1B
:101AC00020284FD005DC90B3102811D14AE0022025
:101AD00070BD302846D040280AD13BE060282FD086
:101AE00070280DD0B0F5805F03D0B0F5005F12D044
:101AF000012584F83D60002084F83C00284670BD34
:101B0000CB68D1E90121206801F096F9206881684D
:101B100041F0770109E0CB68D1E90121206801F0AB
:101B20008BF92068816841F480418160E1E719E028
:101B3000CA684968206801F091F95021206806E0E0
:101B4000CA684968206801F09AF96021206801F0AC
:101B50007DF9CEE7CA684968206801F07FF9402125
:101B60002068F4E7226801461046F0E770472DE947
:101B7000F04104460068C66805694FF00007A907F0
:101B800013D5B10711D5F91E016101202077206816
:101B900080698007204602D0FFF7E8FF04E000F0EC
:101BA0007EF8204600F07CF82777680716D5700786
:101BB00014D521686FF004000861022020772068A6
:101BC000806910F4407F204602D0FFF7CFFF04E089
:101BD00000F065F8204600F063F82777280715D550
:101BE000300713D521686FF00800086104202077C2
:101BF0002068C0698007204602D0FFF7B7FF04E0E5
:101C000000F04DF8204600F04BF82777E80616D58F
:101C1000F00614D521686FF01000086108202077C5
:101C20002068C06910F4407F204602D0FFF79EFF75
:101C300004E000F034F8204600F032F82777E80797
:101C400008D0F00706D021686FF001000861204637
:101C500000F028F8280608D5300606D521686FF070
:101C6000800008612046FFF73BFE680608D5700635
:101C700006D521686FF040000861204600F044F866
:101C8000A8060AD5B00608D521686FF020000861C3
:101C90002046BDE8F041FFF724BEBDE8F081704763
:101CA00070470000164900680968884227D1154826
:101CB000418A491C4182018B491C0183818A491C4C
:101CC0008182418B4EF66022914207D241780129F0
:101CD00004D0EE2902D0418B491C4183818B491CE1
:101CE0008183C18B491CC183018C491C0184418CB7
:101CF000491C418401218170C170FEF723BF7047E8
:101D000094010020080000207047704770470000D1
:101D1000F8B5016804460868CA684B6910F00F0FEF
:101D20004FF0000559D003F0010602F490773743D5
:101D300065D0C10705D0D10503D5616C41F0010123
:101D40006164410705D5D90703D0616C41F00201F8
:101D50006164810705D5D90703D0616C41F00401A6
:101D60006164010707D502F02001314303D0616CA3
:101D700041F008016164616C00293AD0800604D505
:101D8000900602D5204601F02BF920684069616C6D
:101D9000C0F38010090700D460B3204601F0BCF8FE
:101DA00020684069400621D52068143050E8001FA3
:101DB00021F0400140E80012002AF5D1E06BA8B103
:101DC0006D494163E06BFFF75BF8002811D0E06BD1
:101DD000416B01B0BDE8F040084783060FD593067C
:101DE0000DD52046BDE8F84001F0FAB82046FFF7CF
:101DF0008DFFF8BD2046FFF789FF6564F8BD266BAF
:101E00002023012E7CD1C6067AD5D60678D508685F
:101E10004868009048694FF00206400640D5E16BE3
:101E2000086840680004000CE8D0A28D8242E5D921
:101E3000E085886920282DD020680C3050E8001FEC
:101E400021F4807140E80012002AF5D12068143096
:101E500050E8001F21F0010140E80012002AF5D1EE
:101E60002068143050E8001F21F0400140E80012C3
:101E7000002AF5D184F84230256320680C3050E800
:101E8000001F21F0100140E80012002AF5D1E06B9C
:101E9000FEF7D2FF6663A08DE18D401A81B22AE081
:101EA000A08DE18D401A81B2E08D0028A6D00029D6
:101EB000A4D022680C3252E8000F20F4907042E85F
:101EC0000007002FF5D12068143050E8002F22F0D1
:101ED000010240E80027002FF5D184F84230256345
:101EE00020680C3050E8002F22F0100240E8002358
:101EF000002BF5D166632046FFF707FFF8BDFFE72B
:101F000005062BD5150629D594F841002128F5D1D1
:101F1000A068B0F5805F01D12069B0B1206A411C92
:101F20002162216800784860E08C401E0004000CAB
:101F3000E084E3D12068C16821F08001C16020689D
:101F4000C16841F04001C160D8E7206A0088C0F351
:101F500008004860206A801C2062E5E74006CDD575
:101F60005006CBD5CA68204622F04002CA6084F8E9
:101F7000413000F023F9C1E7092F000870B50400D3
:101F800004D094F84100002510B106E0012070BD96
:101F900084F84050204600F023F8242084F84100C3
:101FA0002068C16821F40051C160204601F07AF830
:101FB0002068016921F4904101612068416921F0A4
:101FC0002A0141612068C16841F40051C160656423
:101FD000202084F8410084F842006563002070BD31
:101FE00070B586B0002400940194029403940368B1
:101FF0002E482D4E022103220515B34226D18369B6
:1020000043F480438361836903F4804304938369C9
:1020100043F0040383618069254E00F004000490BE
:102020000802CDE90001039269463046FFF738F80F
:10203000CDE90054694630460294FFF731F800229A
:1020400011462520FFF79AF9252028E0194EB342C2
:1020500027D1C36943F48023C361C36903F4802398
:102060000493836943F0080383618069CDE90051DB
:1020700000F00800CDE903200F4D69462846FFF720
:102080000FF8E814CDE90004694628460294FFF7EA
:1020900007F8002211462720FFF770F92720FFF7E5
:1020A0005FF906B070BD000000380140001002402A
:1020B0000008014000480040000C014090F8423008
:1020C000202B01D00220704721B11AB100230363F5
:1020D00001F044B80120704710B5044600680B4970
:1020E000884205D10A4800F04DFB094800F0D2FBB8
:1020F00008492068884207D1074800F035FFBDE84D
:102100001040054801F08AB810BD000000480040AA
:102110006000002000380140B80000202DE9F8439D
:10212000044690F84100984616460D46202802D0F5
:102130000220BDE8F88385B17EB1002060642120D3
:1021400084F84100FFF7AEF8A6848146E684A068D3
:102150002027B0F5805F02D003E00120E9E7206985
:1021600010B12E4600250EE000260CE0802120460E
:1021700001F00FF8A8B9C6B116F8010B2168486044
:10218000E08C401EE084E08C4B464FF00002CDF81E
:1021900000800028EAD14FF04001204600F0F9FF0E
:1021A00040B184F841700320C3E735F8020BC0F357
:1021B0000800E3E784F841700020BAE770470000A8
:1021C0000848C079012806D0022807D00122202122
:1021D0000548FFF762B84FF4FA7000E0962000F06F
:1021E00083BE000008000020000C014070B51A48B2
:1021F0001A4C4FF48071007A012815D04FF4FA750B
:1022000002281CD0032822D001222046FFF745F8DF
:10221000012280212046FFF740F801222046BDE838
:1022200070404021FFF739B801222046FFF735F80A
:10223000012280212046FFF730F80022EEE701223C
:102240002046FFF72AF8284600F03EFEE5E728463C
:1022500000F028FEDCE7000008000020000C014030
:10226000FEE7DA2100F8011B002202604260826072
:102270002A21017041708170027370472DE9F0418D
:1022800086B0002437480094019402940394816935
:1022900041F010018161816901F0100104918169AF
:1022A00041F020018161816901F02001049181697F
:1022B00041F004018161816901F0040104918169A7
:1022C00041F0080181618069274F00F008004FF458
:1022D00000550490002229463846FEF7DEFFDFF85D
:1022E0008C8000224BF2F4314046FEF7D6FF009579
:1022F000022601250396CDE9015469463846FEF7CA
:10230000CFFE41F6FF008DE83100194F694638468F
:10231000FEF7C6FE44F20B008DE8310069464046E8
:10232000FEF7BEFE0420CDE900050320CDE9024002
:1023300069464046FEF7B4FE4BF2F030CDE90005A9
:10234000CDE9024669464046FEF7AAFE4FF4014039
:10235000CDE90004694638460294FEF7A1FE06B0B6
:10236000BDE8F0810010024000100140000C014067
:102370000008014010B586B000241748009401946D
:102380000294039404941349059401604721C0E921
:1023900001144FF6FF71C0E9031444618461FFF733
:1023A000D5FA08B172B6FEE74FF480500090694646
:1023B0000948FFF76DFB08B172B6FEE7049404A963
:1023C00005480594FFF78EFA002801D072B6FEE7A3
:1023D00006B010BD002C01404C01002010B586B0A5
:1023E00000241648009401940294039404944FF03E
:1023F0008041059401604721C0E9011440F2E731B2
:10240000C0E903148461FFF7A1FA08B172B6FEE7D0
:102410004FF48050009069460848FFF739FB08B137
:1024200072B6FEE7049404A904480594FFF75AFA2B
:10243000002801D072B6FEE706B010BD940100205E
:10244000FEE7FEE7704700002DE9F041FEF74AFC89
:10245000FFF7CCFEFFF7B4FE404C0025404E6078FD
:102460004FF400770E2849D017DC002856D00128F9
:102470005CD002280FD1002239463046FEF70DFF0E
:10248000FEF7B4FCA08AB0F5967F04D31021304645
:10249000FEF7FBFEA582BDE8F081CF284FD0EE28E5
:1024A000F9D13048407BC0B3012239463046FEF7AF
:1024B000F4FE608B4EF66021884218D22A48FFF75E
:1024C000CFFA002239463046FEF7E7FE6420FEF7D9
:1024D00023FD4FF4FA70208365702348FFF794FAC8
:1024E00000F06AFB002000F045FB00F0CDFA00226E
:1024F0003046BDE8F0411021FEF7CFBE002239463C
:102500003046FEF7CAFE2583A571E07A0028C2D0C6
:102510004FF47A7020836570BDE70EE000223946E3
:102520003046FEF7BAFEFEF761FCE0E700223946CE
:102530003046FEF7B2FE0122DAE70022B5E70122BB
:1025400010213046FEF7A9FE0748FFF789FA074831
:10255000FFF786FABDE8F041FEF7DAB80800002080
:10256000000C01403E0100204C010020940100209D
:1025700070B58162096804466FF04000086000256C
:10258000257584F85450E5752576A575A576E583FF
:102590002584657584F85550A58384F82250AB20B6
:1025A0006076BC2084F856000A212046FDF781FFA2
:1025B000C4F80A50C4F80E5065820A2104F12C00B8
:1025C000FDF777FF0A2104F14000FDF772FF6B4D24
:1025D00001212846FEF754FE00287CD05FF0000061
:1025E00094F82410084384F8240002212846FEF7BA
:1025F00047FE002870D0002094F8241041EA4000E3
:1026000084F8240004212846FEF73AFE002865D00D
:102610005FF0000094F8241041EA800084F8240060
:1026200008212846FEF72CFE002873D05FF000003A
:1026300094F8241041EAC00084F8240010212846B0
:10264000FEF71EFE002868D05FF0000094F824100A
:1026500041EA001084F8240020212846FEF710FEED
:1026600000287CD05FF0000094F8241041EA40106C
:1026700084F8240040212846FEF702FE68B30020BB
:1026800094F8241041EA801084F824008021284620
:10269000FEF7F6FDE8B3002094F82410384E41EA26
:1026A000C01084F8240001213046FEF7E9FD90B304
:1026B0005FF0000094F82310084384F823000221FF
:1026C0003046FEF7DDFD38B35FF0000094F82310CC
:1026D00041EA400003E036E039E042E039E084F8C6
:1026E00023004FF400612846FEF7CAFD70B30020B6
:1026F00094F8231041EA800084F823004FF48051BD
:102700002846FEF7BDFD70B35FF0000094F823107B
:1027100004E029E01FE029E02AE01EE041EAC000D1
:1027200084F82300B4F82300012240BAE08404F1C5
:102730001701A06AFFF7C2FC3046BDE870400022D6
:102740000421FEF7AABD01204AE708E012E00120BB
:1027500052E701205EE701206AE7012076E70120C9
:1027600082E701208CE707E0012095E70120A1E73F
:102770000120ABE70120BBE70120C7E700080140CB
:10278000000C01402DE9F04104460125807D2E46D4
:1027900028B1384F012813D0022862D130E0E07D03
:1027A000617E884202D12070A67507E094F8561029
:1027B000884256D184F82C000220A075267650E07D
:1027C000217EE07D6054207E092805D0401CC0B2E7
:1027D0002076092821D844E00A212046FDF77CFF15
:1027E000A076617894F82320914216D1A17894F8CC
:1027F0002420914211D1617A81420ED1267528E0C0
:10280000237E04F12C02E17D9954207E132809D007
:10281000401CC0B22076132823D90025204600F0A2
:102820002BF824E014211046FDF756FFA07694F80B
:102830002D1094F823209142EFD194F82E1094F8A3
:1028400024209142E9D194F83F108142E5D184F8E7
:102850005460E08B0122401CE08304213846FEF7DF
:102860001CFD012204F11701A06AFFF727FC28468E
:10287000BDE8F081000C014000210175C1750176B1
:1028800080F854108175836A00F1170101221846FF
:10289000FFF714BC2DE9F0410446007D2D4F2E4E6C
:1028A0000125012834D13D702C49002008802C4995
:1028B0002C4A0D70B4F8031049BA118031782A4AB5
:1028C00001292AD0EE2901D0607930702749A079FA
:1028D00008702749E0790870607EA07294F82300A0
:1028E000E07294F82400207322480A210078607373
:1028F0001078A073FE20E07320746074A07404F15B
:102900000A00FDF7E9FEE07465752046FFF7B4FFA5
:1029100094F85400012805D019E061790029D3D139
:102920001070D1E73D7014490020221892F82F2032
:102930000A54401CC0B20C28F7D31048104990F834
:102940003D004873CF2030702046FFF795FF0120EF
:10295000BDE8F081140000200900002022000020C2
:10296000130000201800002012000020100000209A
:102970000F0000200800002024010020600000203B
:102980003E0100202DE9F0410446407D00263B4DEC
:102990004FF0FF38012815D1667504F10A0143464E
:1029A0000A220F46A06AFFF7B9FB0022042128463D
:1029B000FEF773FCE0220A213846FDF772FDA08B7A
:1029C000401CA08394F85500012802D00020BDE8E7
:1029D000F08184F8556004F14001434614220E460C
:1029E000A06AFFF79BFB002204212846FEF755FC56
:1029F000A08BE022401CA08314213046FDF751FD3E
:102A0000002210212846FEF748FC6420FEF784FAD5
:102A1000012210212846FEF740FC6420FEF77CFAD4
:102A2000002210212846FEF738FC6420FEF774FAD5
:102A3000012210212846FEF730FC6420FEF76CFAD4
:102A4000002210212846FEF728FC6420FEF764FAD5
:102A5000012210212846FEF720FC6420FEF75CFAD4
:102A6000BFF34F8F06480168064A01F4E061114345
:102A70000160BFF34F8F00BFFDE70000000C014075
:102A80000CED00E00400FA0570B5184880780128C4
:102A900007D0012000F0D2F8BDE870400220FEF718
:102AA0003BBA002401E0202C05D244F0800000F065
:102AB000C5F8802007E0A4F12000C0B240F08000FB
:102AC00000F0BCF8882000F0B9F80025002000F0E4
:102AD000D5F8002000F0D2F86D1CEDB2082DF5D32A
:102AE000641CE4B2402CDED370BD00000000002066
:102AF0002DE9F0410646002401E0202C18D20025E3
:102B000044F08008404600F099F845F0800000F05D
:102B100095F8680000EB0417F05D00F0AFF8B81905
:102B2000407800F0ABF86D1CEDB2082DEAD31BE045
:102B3000A4F12000002540F0800800BF08F0FF004D
:102B400000F07CF845F0880000F078F8680000EBB1
:102B50000417F05D00F092F8B819407800F08EF894
:102B60006D1CEDB2082DE9D3641CE4B2402CC4D333
:102B7000BDE8F08110B50F4C012807D0002804D122
:102B8000302000F05BF80020A07010BD302000F075
:102B900055F80120FEF7C0F9342000F04FF801206D
:102BA000FEF7BAF9362000F049F80120FEF7B4F933
:102BB0000120E9E70000002070B51F4D4FF480446C
:102BC000002221462846FEF768FB0A20FEF7A4F9FA
:102BD000012221462846FEF760FB3220FEF79CF9D1
:102BE000302000F02BF86E2000F06AFB302000F05F
:102BF00025F8282000F064FB082000F01FF86E2064
:102C000000F05EFB012000F019F80C20FEF784F9BB
:102C1000062000F013F80120FEF77EF90C2000F0EA
:102C20000DF80120FEF778F9022000F007F8BDE862
:102C300070400120FEF770B9000C014070B5012210
:102C40000D4E0446150329463046FEF726FBF820B4
:102C500000F054F804F0F00000F050F82007000EE7
:102C600000F04CF8322000F02BFB29463046BDE83E
:102C700070400022FEF711BB000C014070B501222C
:102C80000D4E0446150329463046FEF706FBFA2092
:102C900000F034F804F0F00000F030F82007000EE7
:102CA00000F02CF8322000F00BFB29463046BDE83E
:102CB00070400022FEF7F1BA000C014010B5144636
:102CC00041F0800370B1012804D0022805D0032808
:102CD00008D105E041F0900304E041F0880301E0F1
:102CE00041F09803D8B2FFF7A9FF02E0641CFFF798
:102CF000C5FF20780028F9D110BD70472DE9F041BB
:102D00000F4F002405464FF400487E1405FA04F0E6
:102D1000000601D5012200E0002241463846FEF7B8
:102D2000BCFA002231463846FEF7B7FA0122314696
:102D30003846FEF7B2FA641C082CE7DBBDE8F081E8
:102D4000000C0140FEF7B4BA30B58FB028216846B8
:102D5000FDF7AFFB14210AA8FDF7ABFB0121080426
:102D6000CDE900100024029402250491CDE907501A
:102D70004FF4E01009906846FEF70EFC08B172B6F9
:102D8000FEE70F20CDE90A054FF48060CDE90C4045
:102D900002210AA80E94FEF723FB002801D072B688
:102DA000FEE70FB030BD70470148FEF7E0BE0000FF
:102DB0004C0100200148FEF7DABE0000940100201B
:102DC000F0B50268194B1A4C1A4D4FF080479842E3
:102DD00005D0B84203D0A04201D0A84203D122F0CE
:102DE00070064A683243984205D0B84203D0A042E8
:102DF00001D0A84203D122F44074CA6822434C692E
:102E000022F08002224302608A68C2620A688262FB
:102E1000984201D109690163012141610169C90732
:102E200003D0016921F001010161F0BD002C0140D6
:102E3000000400400008004010B5846842EA032204
:102E400024F47F440A432243826010BD826822F04A
:102E500070020A4342F007018160704710B5036AAF
:102E6000046A24F001040462846924F0F00444EA52
:102E7000021423F00A020A438461026210BD10B5F5
:102E8000036A046A24F010040462846923F0A00336
:102E900024F4704444EA023243EA0111826101627F
:102EA00010BD000010B5064CA18B814206D34FF433
:102EB00080710448FEF7E9F90020A08310BD0000EE
:102EC00008000020000C014010B5054CE18B814248
:102ED00005D380210348FEF7D8F90020E08310BD18
:102EE00008000020000C014010B5054C618C8142A7
:102EF00005D320210348FEF7C8F90020608410BDE7
:102F000008000020000C014010B5406A0021C18576
:102F1000C184FEF7FBFE10BD01680C3151E8002FA3
:102F200022F4907241E80023002BF5D1016814319E
:102F300051E8002F22F0010241E80023002BF5D1D7
:102F4000016B012909D101680C3151E8002F22F0F1
:102F5000100241E80023002BF5D1202180F8421017
:102F6000002101637047000030B4417E0122A9B105
:102F7000012911D1C37E817EC154C37E00210B2B58
:102F800014D05B1CDAB2C2760B2A05D9C176017661
:102F9000016041608160417630BC7047817E037F73
:102FA0009942F9D101704276C276F5E7C37A447F3F
:102FB000A34209D10276418C0122491C418430BCD4
:102FC00004210648FEF769B9C176017601604160C7
:102FD0008160828C521C8284DDE70000000C01407D
:102FE00008B590F84210222901D0022008BD82685D
:102FF0004FF480539A4201D1016921B1816A9A420A
:103000001BD04AB10AE00268816A5268C2F3080222
:103010000A80816A891C08E0026972B102685268FC
:1030200002F07F020A70816A491C8162C18D491ECB
:103030000904090CC18503D01BE002685268F1E75E
:103040000168CA6822F02002CA600168CA6822F4D6
:103050008072CA6001684A6922F001024A61202137
:1030600080F8421000214163026B012A03D0FFF770
:1030700033F8002008BD016301680C3151E8002FCE
:1030800022F0100241E80023002BF5D101680A6804
:10309000D20602D50A6849680091818DFEF735FE97
:1030A000E7E7000070B5044600680169E26821F4B2
:1030B0004051114301612169A068084361690843D7
:1030C0002168CA6841F20C639A430243CA602068CF
:1030D0004169A26921F44071114341611E49206890
:1030E000884202D1FEF722FA01E0FEF70FFA00EB68
:1030F000C00101EB0012606864218000B2FBF0F3B4
:10310000B3FBF1F36FF018067343B2FBF0F5B2FBBB
:10311000F0F605EB8305322303EB0515B5FBF1F55E
:10312000B6FBF1F605F0F00505EB0615B2FBF0F67F
:10313000B2FBF0F0B0FBF1F06FF01802504306EB79
:10314000800003EB0010B0FBF1F0216800F00F00ED
:103150002844886070BD000000380140816282858B
:10316000C28500214164222180F84210016921B109
:103170000168CA6842F48072CA6001684A6942F014
:1031800001024A610068C16841F02001C16000206D
:1031900070472DE9F843984617460D460446089EA9
:1031A00024E0701C22D0FEF77DF8A0EB0800B042AE
:1031B0001AD8CEB12068C168490717D5802D15D01F
:1031C000402D13D00168C94309070FD401680025B9
:1031D000406800902046FFF79FFE0820606484F856
:1031E00040500120BDE8F8830320FBE72068006819
:1031F00035EA000004D00020B842D2D00020F1E728
:103200000120F9E70148FEF783BD0000DC01002042
:103210000148FEF77DBD0000240200200120704718
:1032200030B51B4D85B04E242846FDF777FC0A20AB
:10323000FDF772FE184917480A6840F80F2F4A68D0
:10324000426089688160B0F80B001249ADF8000057
:103250000E220E3101A8FDF7ADF80DF1040C284641
:103260009CE80E00FDF7BAFC0120FDF755FE094968
:1032700028460E31FDF794FC06480C2206490F3013
:10328000FDF76CF800B9592405B0204630BD0000A8
:1032900000FC00083001002024010020FEE709079F
:1032A000090E002804DB00F1E02080F800147047CC
:1032B00000F00F0000F1E02080F8141D70470000BE
:1032C000044900220B685A6209684A6A8242FCD3A8
:1032D000704700004C010020FDF7F2FFFFF734FDBE
:1032E000FEF7CCFFFFF746F84E484D490024016039
:1032F0004FF4E131C0E901140C25C460C0E9044574
:103300008461C461FEF73AFE08B172B6FEE7FFF7CA
:1033100065F844484449483001604FF49641C0E99B
:103320000114C460C0E904458461C461FEF726FE4F
:1033300008B172B6FEE73D4C00224FF40071204602
:10334000FDF7ABFF002210212046FDF7A6FF01226A
:1033500020212046FDF7A1FF0022A1152046FDF700
:103360009CFF002240212046FDF797FF002280218C
:103370002046FDF792FF2B492D484831FFF7F8F81A
:1033800028489038FEF740FBFFF716FC0120FFF7B6
:10339000F1FB2848FFF7ACFB4FF4FA60FDF7BCFDEA
:1033A0000020FFF7E7FBFFF76FFB23A12648FCF7A0
:1033B00027FF26A12848FCF723FF1D4827A1C28C20
:1033C0002848FCF71DFF284A00210320FFF776FC60
:1033D000244A00210220FFF771FC1F4A002101202E
:1033E000FFF76CFC0021184A0846FFF767FCFDF761
:1033F000FFFB0C484838FEF707FB002261141B480E
:10340000FDF74BFF4FF47A74FDF774F9FFF71CF8E2
:103410000748FFF7B7FA2046FDF7AAF9F4E70000DE
:1034200000380140DC01002000480040000C014051
:103430006000002070340008594F44592058494E0C
:10344000204348414F000000E40000204D41434824
:10345000204D414E47000000F400002049443A202E
:103460002564000004010020140100200010014028
:10347000000000000000000000000000000000004C
:10348000000000000000000000000000000000003C
:10349000000000000000000000000000000000002C
:1034A000000000000000000000000000000000001C
:1034B000000000000000000000000000000000000C
:1034C00000000000000000000000000000000000FC
:1034D00000000000000000000000000000000000EC
:1034E00000000000000000000000000000000000DC
:1034F000000000000000000000000FE000000000DD
:10350000000000000000000000000FE000000000CC
:10351000000000000000000000000FE000000000BC
:10352000000000000000000000000FE000000000AC
:10353000000000000000000000000FE0000000009C
:10354000000000000000000000000FE0000000008C
:10355000000000000000000000000FE0000000007C
:10356000000000000000000000000FE0000000006C
:10357000000000000000000000000FE0000000005C
:10358000000000000000000000000FE0000000004C
:10359000000000000000000000000FE0000000003C
:1035A000000000000000000000000FE0000000002C
:1035B000000FC001F801FF00007FCFE7E000F80036
:1035C000000FE001F807FFC000FFFFE7E001FC008B
:1035D000000FE001F81FFFE003FFFFE7E001FC0040
:1035E000000FE001F83FFFF807FFFFE7E001FC00F4
:1035F000000FE001F87FFFF80FFFFFE7E001FC009C
:10360000000FE001F87FFFFC0FFFFFE7E001FC0087
:10361000000FE001F8FF83FE1FF07FE7E001FC00F0
:10362000000FE001F8FE01FE1FC03FE7E001FC00D3
:10363000000FE001F9FC00FE3F801FE7E001FC0005
:10364000000FE001F9FC007F3F800FE7E001FC0084
:10365000000FE001F9F8007F3F000FE7E001FC00F8
:10366000000FE001F9F8003F3F0007E7E001FC0030
:10367000000FE001F9F80000000007E7E001FC009E
:10368000000FE001F9F8007F3F000FE7E001FC00C8
:10369000000FE003F9FC007F3F800FE7F001FC0022
:1036A0000007E003F9FC007F3F800FE7F001FC001A
:1036B0000007F007F9FE00FE3FC01FE3F803FC001F
:1036C0000007F80FF8FF01FE1FE03FE3FC07FC00D6
:1036D0000003FFFFF8FFFFFC1FFFFFE1FFFFFC00FF
:1036E0000003FFFFF87FFFFC0FFFFFE1FFFFFC007F
:1036F0000001FFFFF83FFFF807FFFFE0FFFFFC00BE
:103700000000FFFFF81FFFF003FFFFE07FFFFC005A
:1037100000007FFFF80FFFE001FFFFE03FFFFC002C
:1037200000001FFDF807FF8000FFE7E01FFDFC0021
:10373000000007F1F800FE00001F83C003F9FC0041
:10374000000FC001F800000000000007E001FC00CD
:10375000000FE003F800000000000007E001FC009B
:103760000007E003F800000000000007F001F80087
:103770000007F007F000000000000003F003F8006D
:103780000007F80FF000000000000003F807F80041
:103790000003FE1FF000000000000003FE1FF00009
:1037A0000003FFFFE000000000000001FFFFF00049
:1037B0000001FFFFC000000000000000FFFFE0006C
:1037C0000000FFFFC000000000000000FFFFC0007D
:1037D00000007FFF00000000000000007FFF80006D
:1037E00000003FFE00000000000000001FFF00007E
:1037F00000000FF8000000000000000007FC0000BF
:1038000000000000000000000000000000000000B8
:1038100000000000000000000000000000000000A8
:103820000000000000000000000000000000000098
:103830000000000000000000000000000000000088
:103840000000000000000000000000000000000078
:103850000000000000000000000000000000000068
:103860000000000000000000000000000000000058
:103870000000000000000000000000000000000048
:103880000000000000000000000000000000000038
:103890000000000000000000000000000000000028
:1038A0000000000000000000000000000000000018
:1038B0000000000000000000000000000000000008
:1038C00000000000000000000000000000000000F8
:1038D00000000000000000000000000000000000E8
:1038E00000000000000000000000000000000000D8
:1038F00000000000000000000000000000000000C8
:1039000000000000000000000000000000000000B7
:10391000010202030405060708090A0B0C0D0E0F2D
:103920001010000000000000000001020304060760
:103930000809000000000102030400005C390008CF
:10394000000000206000000028010008BC390008C9
:103950006000002090080000440100084080000042
:1039600000000000000E0000000000000000000049
:103970000000000000000000000000000000000047
:103980000000000000000000000000000000000037
:1039900000000000000000000000000044433A2046
:1039A0000000000000000000000000000100000016
:0C39B000100000000000000000127A006F
:04000005080000ED02
:00000001FF
