:020000040800F2
:10000000700D00209101000817220008B91D00089A
:100010001522000831050008212A00080000000010
:100020000000000000000000000000008123000824
:10003000F705000800000000612200086D25000897
:10004000AB010008AB010008AB010008AB010008E0
:10005000AB010008AB010008AB010008AB010008D0
:10006000AB010008AB010008AB010008AB010008C0
:100070009D050008A9050008AB010008AB010008B8
:10008000B5050008C1050008AB010008AB01000878
:10009000AB010008AB010008AB010008AB01000890
:1000A000AB010008D1250008AB010008AB01000836
:1000B000DD250008AB010008AB010008AB0100081A
:1000C000AB010008AB010008AB010008AB01000860
:1000D000AB010008FD290008092A0008152A0008BC
:1000E000AB010008AB010008AB01000800F002F80A
:1000F00000F03FF80AA090E8000C82448344AAF183
:100100000107DA4501D100F034F8AFF2090EBAE880
:100110000F0013F0010F18BFFB1A43F0010318473B
:10012000102E0000302E0000103A24BF78C878C18D
:10013000FAD8520724BF30C830C144BF04680C60ED
:10014000704700000023002400250026103A28BF35
:1001500078C1FBD8520728BF30C148BF0B60704739
:10016000642900F07D80002070471FB51FBD10B5C9
:1001700010BD00F07CF91146FFF7F7FF02F088FC94
:1001800000F09AF903B4FFF7F2FF03BC00F0A2F904
:100190000948804709480047FEE7FEE7FEE7FEE71B
:1001A000FEE7FEE7FEE7FEE7FEE7FEE70448054957
:1001B000054A064B70470000CF250008ED000008F7
:1001C00070070020700D00207009002070090020C9
:1001D0000FB41CB5074B06AA7B44694600900598EE
:1001E00000F02DF90020694600F03CF91CBC5DF8D8
:1001F00014FB0000890200002DE9F0410E46044680
:10020000002020622046E168884730B3252805D0C9
:10021000D4E901219047206A401CF2E7E1682046BA
:1002200000278847050018D0A5F14100192802D8F9
:1002300020354FF400673246294620462760FFF7F5
:100240008FFF40B1012804D0F61D26F007060836BE
:10025000D8E7361DD6E72846DAE7206ABDE8F08100
:100260002DE9F0410646002410687529314616A58F
:1002700010D0AFF30080002802DA404213A507E057
:1002800031688A0701D512A502E0490704D511A5F6
:10029000012401E0AFF3008000210A2206F12407C7
:1002A00009E0B0FBF2FCB0FBF2F302FB1C003030C3
:1002B00078541846491C0028F3D123462A46304674
:1002C000BDE8F04100F05CB8000000002D00000027
:1002D0002B0000002000000002F0FF0343EA03228D
:1002E00042EA024200F002B84FF000020429C0F0D6
:1002F000128010F0030C00F01B80CCF1040CBCF158
:10030000020F18BF00F8012BA8BF20F8022BA1EBA9
:100310000C0100F00DB85FEAC17C24BF00F8012B8E
:1003200000F8012B48BF00F8012B70474FF0000286
:1003300000B5134694469646203922BFA0E80C50DB
:10034000A0E80C50B1F12001BFF4F7AF090728BFB6
:10035000A0E80C5048BF0CC05DF804EB890028BF32
:1003600040F8042B08BF704748BF20F8022B11F05B
:10037000804F18BF00F8012B7047704770477047D7
:100380002DE9F0470D4699469246044600F12408AF
:100390000168880604D5E06921F01001216000E0C1
:1003A0000120A84201DD471B00E00027A1697A195E
:1003B00002EB0900081AA0612078C00602D420468A
:1003C000AFF30080002608E0D4E901211AF8060006
:1003D0009047206A401C761C20624E45F4DB207852
:1003E000C0060AD52046AFF3008006E0D4E901211B
:1003F00030209047206A401C2062381EA7F1010778
:10040000F4DC07E0D4E9012118F805009047206AE0
:10041000401C2062281EA5F10105F3DC2046AFF345
:1004200000802078000602D50220BDE8F087012078
:10043000FBE7000001694A1C02610878704700B5BB
:100440008FB0CDE901310021059105497944CDE90D
:10045000031011466846FFF7CFFE0FB000BD000045
:10046000E5FFFFFF0A6802F8010B0A607047754656
:1004700000F02CF8AE4605006946534620F0070010
:10048000854618B020B5FFF791FEBDE820404FF03B
:1004900000064FF000074FF000084FF0000B21F06E
:1004A0000701AC46ACE8C009ACE8C009ACE8C0093B
:1004B000ACE8C0098D46704710B50446AFF3008024
:1004C0002046BDE81040FFF75DBE000000487047C1
:1004D0000C07002001491820ABBEFEE726000200F1
:1004E0007047000010B50160044600202071A07123
:1004F00060716081A0812081DA2203210A48FFF720
:10050000EBFE0948AD220321C01CFFF7E5FE0022E7
:100510004FF48071054800F05EFB0122A11D2068A8
:10052000BDE8104001F0F0BA54000020000801407E
:10053000FEE70346002010B50246491E04E09C5C1D
:10054000521C2044C0B2D2B28A42F8DB10BD000077
:1005500070B5104B198B491C89B21983814217D38E
:1005600000210D4C0D4600BFC1EBC10204EB82021D
:10057000567946B1167936B156890644B6B25681D7
:100580001E2E00D35571491CC9B21F29ECD31D83FF
:1005900070BD000000000020A8000020014800F00D
:1005A00003B90000C8060020014800F0FDB80000B3
:1005B00084060020014800F0F7B80000FC05002088
:1005C000014800F0F1B800004006002030B590F876
:1005D00040500124AC40C56B6C60046863604368A4
:1005E000102B036803D099600068C26030BD9A6028
:1005F0000068C16030BD7047704772B6FEE700000A
:100600002DE9F0412D4CE0782D4E0025B71488B12E
:1006100001223946304600F0DEFAA089401C80B243
:10062000A0810A2806D300223946304600F0D3FACA
:10063000A581E570207998B14FF400680122414608
:10064000304600F0C8FAE089401C80B2E0810A28F8
:1006500006D300224146304600F0BDFAE5812571FF
:100660006079184E98B14FF4005801224146304647
:1006700000F0B1FA208A401C80B22082052806D3FF
:1006800000224146304600F0A6FA25826571A07925
:10069000002811D001223946304600F09CFA608AC9
:1006A000401C80B26082052806D3002239463046BD
:1006B00000F091FA6582A571BDE8F081000000208C
:1006C00000080140000C014010B590F821100022F4
:1006D000022905D00421816380F82020012010BD6B
:1006E00001680B6823F00E030B6001680B6823F0B0
:1006F00001030B6090F84030C46B012101FA03F351
:10070000636080F8211080F82020104610BD0000A2
:1007100010B590F821100024022903D00421816330
:1007200001243DE001680A6822F00E020A600168B7
:100730000A6822F001020A601A4A0168914201D156
:10074000012121E0174A1432914201D110211BE00E
:10075000144A2832914201D1891515E0114A3C32E0
:10076000914201D189140FE00E4A5032914202D1D8
:100770004FF4803108E00B4A6432914202D14FF4C9
:10078000801101E04FF08071064A083A5160012162
:1007900080F82110002180F82010416B01B18847BA
:1007A000204610BD080002402DE9F05FC16B0C68C7
:1007B00001680B68D0F840C0042202FA0CF2494DDF
:1007C000DFF824A1494E4A4FDFF828B1DFF828E1CD
:1007D00022422CD05A072AD50A68920603D40A6806
:1007E00022F004020A600168A94201D1042219E042
:1007F000514501D1402215E0B14202D14FF480624F
:1008000010E0B94202D14FF480420BE0594502D1C9
:100810004FF4802206E0714502D14FF4800201E0DE
:100820004FF080622F4908394A60C16A3BE04FF0BF
:10083000020808FA0CF818EA040F4FF000094FF00C
:10084000010235D05FEA837832D50B689B0605D468
:100850000B6823F00A030B6080F821200168A9428D
:1008600001D1022219E0514501D1202215E0B14207
:1008700002D14FF4007210E0B94202D14FF400529D
:100880000BE0594502D14FF4003206E0714502D128
:100890004FF4001201E04FF00072124908394A602B
:1008A00080F82090816A00291AD0BDE8F05F0847DF
:1008B000082505FA0CF5254212D01B0710D50B6848
:1008C00023F00E030B6090F84010C36B02FA01F1A5
:1008D0005960826380F8212080F82090016BE2E764
:1008E000BDE8F09F080002401C00024030000240BA
:1008F00044000240580002406C00024030B528B36A
:1009000008C8134914221944B1FBF2F18900C163EC
:1009100010498163022141771A6843F6F0718A43D6
:10092000D0E900142143D0E902452C432143046956
:100930002143446921438469214311431960002103
:100940004163012242770177084630BD012030BD66
:10095000F8FFFDBF0000024070B5044690F820008B
:10096000002501280CD0012084F8200094F8216093
:100970000020012E06D084F820000225284670BDF4
:10098000022070BD022684F82160A06320680668FA
:1009900026F0010606602046FFF718FEE06A0028F0
:1009A0002068016802D041F00E0106E021F0040148
:1009B00001602068016841F00A0101602068016857
:1009C00041F001010160D9E770B5044600F008F973
:1009D0000546601C02D004480078044400F000F989
:1009E000401BA042FAD370BD640000202DE9F84FEF
:1009F000DFF8B8910024A9F1040B23460F2709F171
:100A0000040AABF1040EC9E00125A5402A40AA4220
:100A10007DD1674ED1F804C0ACEB0608B44532D0A6
:100A200014DCBCF1030F3AD009DCBCF1000F2AD072
:100A3000BCF1010F1CD0BCF1020F31D11DE0BCF1A3
:100A4000110F17D0BCF1120F2AD119E0B8F5881F89
:100A500019D006DCB8F5803F15D0B8F5801F1FD13E
:100A600011E0B8F5001F0ED0B8F5041F18D10AE048
:100A7000CB6815E0CB681B1D12E0CB6808330FE094
:100A8000CB680C330CE08B682BB1012B4FF00803C3
:100A900003D0456104E0042302E0056100E0002387
:100AA000FF2A01D8064601E000F104064FEA84055A
:100AB00001D9A5F12005D6F8008007FA05FC28EA3F
:100AC0000C0803FA05F548EA0508C6F800804D68E9
:100AD000ED0062D5374DAE6946F00106AE61AD69F5
:100AE00024F0030605F001050095334D06EB050CD7
:100AF000DCF80850A607360F07FA06F825EA0805BD
:100B0000DFF8B880404503D14FF0000817E044E01B
:100B1000DFF8AC80404502D14FF001080FE0DFF86C
:100B2000A480404502D14FF0020808E0DFF8988029
:100B3000404502D14FF0030801E04FF0040808FAE5
:100B400006F848EA0508CCF808804D68D9F8006036
:100B5000ED024D4601D5164300E096432E604D68E8
:100B6000DAF80060AD02554601D5164300E0964321
:100B70002E604D68DBF80060AD035D4601D516437D
:100B800000E096432E604D68DEF80060ED03754688
:100B900001D5164300E096432E60641C0D682A467A
:100BA000E5407FF431AFBDE8F88F00000804014054
:100BB0000000111000100240000001400008014038
:100BC000000C014000100140001401408068084002
:100BD00000D0012070470AB1016170470904FBE7AA
:100BE0000148806870470000640000200248816866
:100BF000027811448160704764000020074810B5F6
:100C0000016841F010010160032000F075F80F2029
:100C100000F006F800F024F8002010BD002002408B
:100C200070B50D4D04464FF47A712878B1FBF0F0A1
:100C30000A490968B1FBF0F000F0DCFA48B9102C61
:100C400007D200222146501E00F036F800206C60CA
:100C500070BD012070BD0000640000207000002005
:100C60000C4808B5816941F001018161816901F099
:100C700001010091C16941F08051C161C06900F07A
:100C8000805000900448416821F0E06141F000711B
:100C9000416008BD0010024000000140002809DB4F
:100CA00000F01F02012191404009800000F1E02086
:100CB000C0F8001170470000F0B40E4B1B680C46E2
:100CC000C3F30223C3F10705042D00D90425191D20
:100CD000072901D2002300E0DB1E012606FA05F1F8
:100CE000491E214099409E40761E16403143F0BC7B
:100CF00001F0AEBE0CED00E0064900F00702086806
:100D00004FF6FF03184040EA0220034A10430860F0
:100D1000704700000CED00E00000FA052DE9F047F7
:100D20000F46050061D0434E306800F00700B8421E
:100D300009D2306820F0070038433060306800F096
:100D40000700B84251D128683B4C810712D54007B3
:100D500003D5606840F4E06060602878000703D540
:100D6000606840F4605060606068A96820F0F0003E
:100D7000084360602878C00728D06868012810D030
:100D80002168022810D0890700292EDA616821F035
:100D9000030101436160FFF723FF804641F2883978
:100DA0000DE021688903EFE78901EDE7FFF718FF00
:100DB000A0EB0801494502D90320BDE8F08760682F
:100DC000696800F00C00B0EB810FEFD1306800F0E3
:100DD0000700B8420BD9306820F007003843306074
:100DE000306800F00700B84201D00120E5E728781C
:100DF000400705D56068E96820F4E060084360605A
:100E00002878000706D56068296920F4605040EA18
:100E1000C100606000F038F86168084AC1F303114E
:100E2000515CC8400649086006480068FFF7F8FEB4
:100E30000020C2E70020024000100240162F0008E8
:100E400070000020680000200448054900684968D7
:100E5000044AC1F30221515CC84070477000002071
:100E600000100240262F0008044805490068496820
:100E7000044AC1F3C221515CC84070477000002091
:100E800000100240262F00080E4A51680E4801F05B
:100E90000C03042B11D0082B0FD10C48C1F3834352
:100EA000C903C05C0AD55168084AC1F34041921E8B
:100EB000515C054A5043B0FBF1F070470449484388
:100EC000704700000010024000127A00062F000850
:100ED00000093D002DE9F84F040070D02078C04D86
:100EE000C00749D06868C0F38100012807D068684E
:100EF000C0F38100022809D16868C00306D52868BC
:100F0000800339D560680028E7D035E06068B0F527
:100F1000803F0BD010B1B0F5A02F11D0286820F47D
:100F200080302860286820F4802002E0286840F49F
:100F300080302860606890B1FFF752FE06460AE0F4
:100F4000286840F480202860F0E700BFFFF748FEE3
:100F5000801B642873D828688003F7D50CE0FFF75E
:100F60003FFE064605E000BFFFF73AFE801B6428FF
:100F7000F0D828688003F7D420789A4E80074FF085
:100F800001094FF0000839D5686810F00C0F07D040
:100F90006868C0F38100022809D16868C00306D4DC
:100FA0002868800714D52069012808D110E020693D
:100FB000B0B1C6F80090FFF713FE074605E00AE15E
:100FC000FFF70EFEC01B0228C4D828688007F7D59B
:100FD0002868616920F0F80040EAC10028600DE04F
:100FE000C6F80080FFF7FCFD074604E0FFF7F8FDB8
:100FF000C01B022823D828688007F7D42078000770
:101000002CD57948A169D9B1C0F80090FFF7E8FD67
:10101000074604E0FFF7E4FDC01B02280FD8686A0A
:101020008007F7D571484FF4FA510068B0FBF1F032
:10103000009000BF0098411E0091FAD20EE080E0BF
:10104000C0F80080FFF7CCFD074604E0FFF7C8FDBD
:10105000C01B022875D8686A8007F7D4207840073B
:1010600060D5E8690027C00008D4E86940F08050E6
:10107000E861E869012700F0805000905C48016851
:10108000C90513D40168834641F480710160FFF7FC
:10109000A7FD824606E000BFFFF7A2FDA0EB0A0015
:1010A00064284ED8DBF80000C005F5D5E0680128BB
:1010B0000AD008B1052813D0286A20F00100286260
:1010C000286A20F0040002E0286A40F0010028624B
:1010D000E06841F2883B98B1FFF782FD82460BE061
:1010E000286A40F004002862EEE700BFFFF778FDB1
:1010F000A0EB0A0159455AD8286A8007F6D50CE0BA
:10110000FFF76EFD824605E0FFF76AFDA0EB0A01DE
:1011100059454CD8286A8007F6D41FB1E86920F0F9
:101120008050E861E06988B36968C1F381010229F0
:1011300044D00228C6F8608004D0FFF751FD044671
:1011400038E034E0FFF74CFD074604E0FFF748FDC8
:10115000C01B02282BD828688001F7D4206AB0F57C
:10116000803F05D16868A16820F4003008436860BA
:10117000D4E908010843696821F4741108436860E0
:10118000C6F86090FFF72CFD044606E025E000BF9E
:10119000FFF726FD001B022809D828688001F7D533
:1011A0001BE000BFFFF71CFD001B022802D9032033
:1011B000BDE8F88F28688001F4D40EE00128F7D04C
:1011C0006868226A00F48031914204D1616A00F4B7
:1011D0007010884201D00120EAE70020E8E7000013
:1011E0000010024000004242800442427000002091
:1011F0000070004010B5401EB0F1807F01D3012087
:1012000010BD4FF0E02460610F21601701F020FC59
:101210000020A06107202061002010BD70477047AA
:1012200070B590F83C20012A26D0012480F83C407B
:10123000022280F83D2003685A689D6822F07006FB
:101240000A6832435A600D4B02689A4208D0B2F1E4
:10125000804F05D00A4B9A4202D00A4B9A4204D1E1
:10126000496825F080031943916080F83D400021D2
:1012700080F83C10084670BD022070BD002C014073
:10128000000400400008004010B5040003D094F8AA
:101290003D0010B107E0012010BD002084F83C00A3
:1012A000204600F01FF8022084F83D00211D206830
:1012B00001F09AF9012084F8460084F83E0084F891
:1012C0003F0084F8400084F8410084F8420084F82C
:1012D000430084F8440084F8450084F83D00002071
:1012E00010BD000008B5154A0168154891420ED19D
:1012F000816941F4006181618069002200F400602D
:10130000009011461920FFF7D7FC192010E0B1F129
:10131000804F11D1C16941F00101C161C069002252
:1013200000F00100009011461C20FFF7C5FC1C20B6
:10133000BDE80840FFF7B2BC08BD0000002C01402A
:101340000010024090F83D10012901D001207047A3
:10135000022180F83D100168CA6842F00102CA60AB
:1013600000680B49884208D0B0F1804F05D0094988
:10137000884202D00849884204D1816801F00701FF
:10138000062903D0016841F0010101600020704787
:10139000002C0140000400400008004070B50446E5
:1013A00090F83C000025012817D0012684F83C6005
:1013B000022084F83D002068826822F0770222F43F
:1013C0007F4282600868502838D00DDC20284FD03A
:1013D00005DC90B3102811D14AE0022070BD3028FE
:1013E00046D040280AD13BE060282FD070280DD08D
:1013F000B0F5805F03D0B0F5005F12D0012584F80E
:101400003D60002084F83C00284670BDCB68D1E9DF
:101410000121206801F024F92068816841F07701FA
:1014200009E0CB68D1E90121206801F019F92068B1
:10143000816841F480418160E1E719E0CA68496848
:10144000206801F01FF95021206806E0CA68496849
:10145000206801F028F96021206801F00BF9CEE73F
:10146000CA684968206801F00DF940212068F4E756
:10147000226801461046F0E770472DE9F041044626
:101480000068C66805694FF00007A90713D5B107C2
:1014900011D5F91E0161012020772068806980073D
:1014A000204602D0FFF7E8FF04E000F07EF8204677
:1014B00000F07CF82777680716D5700714D52168E7
:1014C0006FF004000861022020772068806910F422
:1014D000407F204602D0FFF7CFFF04E000F065F820
:1014E000204600F063F82777280715D5300713D575
:1014F00021686FF008000861042020772068C06927
:101500008007204602D0FFF7B7FF04E000F04DF857
:10151000204600F04BF82777E80616D5F00614D5DC
:1015200021686FF010000861082020772068C069EA
:1015300010F4407F204602D0FFF79EFF04E000F049
:1015400034F8204600F032F82777E80708D0F00793
:1015500006D021686FF001000861204600F028F8ED
:10156000280608D5300606D521686FF0800008618E
:101570002046FFF753FE680608D5700606D5216899
:101580006FF040000861204600F05AF8A8060AD51E
:10159000B00608D521686FF0200008612046BDE83C
:1015A000F041FFF73CBEBDE8F08170477047000096
:1015B00070B51F490546006809681E4C884219D15C
:1015C000206A401C2062A08A401CA082E08A401C45
:1015D000E082E08B401CE08317490888401C0880AB
:1015E000608B401C6083A08B401CA083FFF708F831
:1015F00000F058FB114928680968884216D1E07943
:1016000078B9606A401C60623C2801D100206062A9
:10161000606A1E21B0FBF1F201FB120008B9012043
:10162000E071BDE870400520FEF792BF70BD00007C
:10163000940400200000002060000020DC04002052
:101640007047704770470000F8B5016804460868A5
:10165000CA684B6910F00F0F4FF0000559D003F026
:10166000010602F49077374365D0C10705D0D10554
:1016700003D5616C41F001016164410705D5D907CB
:1016800003D0616C41F002016164810705D5D9077F
:1016900003D0616C41F004016164010707D502F0D9
:1016A0002001314303D0616C41F008016164616C39
:1016B00000293AD0800604D5900602D5204601F0D4
:1016C0008CF820684069616CC0F38010090700D471
:1016D00060B3204601F04CF820684069400621D5EF
:1016E0002068143050E8001F21F0400140E800124B
:1016F000002AF5D1E06BA8B16D494163E06BFFF7BB
:1017000007F8002811D0E06B416B01B0BDE8F04054
:10171000084783060FD593060DD52046BDE8F8404F
:1017200001F05BB82046FFF78DFFF8BD2046FFF7BC
:1017300089FF6564F8BD266B2023012E7CD1C60687
:101740007AD5D60678D508684868009048694FF081
:101750000206400640D5E16B086840680004000CB2
:10176000E8D0A28D8242E5D9E085886920282DD075
:1017700020680C3050E8001F21F4807140E800120E
:10178000002AF5D12068143050E8001F21F0010133
:1017900040E80012002AF5D12068143050E8001FFC
:1017A00021F0400140E80012002AF5D184F84230CF
:1017B000256320680C3050E8001F21F0100140E83C
:1017C0000012002AF5D1E06BFEF77EFF6663A08D64
:1017D000E18D401A81B22AE0A08DE18D401A81B2DC
:1017E000E08D0028A6D00029A4D022680C3252E84F
:1017F000000F20F4907042E80007002FF5D1206818
:10180000143050E8002F22F0010240E80027002F9A
:10181000F5D184F84230256320680C3050E8002F61
:1018200022F0100240E80023002BF5D16663204629
:10183000FFF707FFF8BDFFE705062BD5150629D5ED
:1018400094F841002128F5D1A068B0F5805F01D15E
:101850002069B0B1206A411C21622168007848608B
:10186000E08C401E0004000CE084E3D12068C168D5
:1018700021F08001C1602068C16841F04001C16071
:10188000D8E7206A0088C0F308004860206A801CFE
:101890002062E5E74006CDD55006CBD5CA68204684
:1018A00022F04002CA6084F8413000F0F9F9C1E743
:1018B000CB26000870B5040004D094F84100002540
:1018C00010B106E0012070BD84F84050204600F0C1
:1018D00023F8242084F841002068C16821F40051D5
:1018E000C160204600F0DAFF2068016921F49041D0
:1018F00001612068416921F02A0141612068C168C5
:1019000041F40051C1606564202084F8410084F8EE
:1019100042006563002070BD2DE9F04385B00025CD
:101920000095019502950395044603686C486B4E3B
:1019300002210322DFF8AC810715B34225D1836968
:1019400043F480438361836903F480430493836990
:1019500043F0040383618069039200F00400049063
:101960000802CDE9000169464046FFF73FF8CDE99E
:101970000075694640460295FFF738F80022114687
:101980002520FFF799F9252052E0DFF85CC1802679
:101990004FF01009634550D1C36943F40033C3616C
:1019A000C36903F400330493836943F00403836140
:1019B0008069039200F0040004900420CDE9000146
:1019C000694647464046FFF711F80820CDE9000573
:1019D000694638460295FFF709F8454F4348C7E97D
:1019E0000005C7E902563D617D61BD613846FD6174
:1019F000FEF784FF08B1FEF700FEE7637C623D4F0F
:101A00003A48C7E902563D617D61BD611430FD6110
:101A1000C7E900093846FEF771FF08B1FEF7EDFD92
:101A2000A7630022114626207C62FFF745F9262095
:101A3000FFF734F905B0BDE8F083DFF8BCC06345BB
:101A4000F8D1C36943F48023C361C36903F48023DD
:101A50000493836943F0080383618069CDE90071D1
:101A600000F00800CDE90320244F69463846FEF710
:101A7000BDFFF814CDE90005694638460295FEF72A
:101A8000B5FF1A481E4F3C38C7E90005C7E90256A2
:101A90003D617D61BD613846FD61FEF72FFF08B1F4
:101AA000FEF7ABFDE7637C62164F1048C7E90256AC
:101AB0003D617D61BD615038FD61C7E9000938466F
:101AC000FEF71CFF08B1FEF798FDA7630022114640
:101AD00027207C62FFF7F0F82720A9E700380140B3
:101AE0000010024000080140004400406C00024029
:101AF000FC0500204006002000480040000C01408A
:101B000084060020C806002090F84230202B01D027
:101B10000220704721B11AB10023036300F01ABFFD
:101B20000120704770B5054600681249124C884282
:101B300008D1124800F0D8FB104800F019F9A0882D
:101B4000401CA0800E492868884212D10D4800F040
:101B500089FBA088401CA0800A48084A81796088D7
:101B600014321154401C80B26080322801D1002010
:101B7000608070BD004400403C0000200C04002048
:101B800000380140840400202DE9F843044690F811
:101B90004100984616460D46202802D00220BDE896
:101BA000F88385B17EB100206064212084F8410073
:101BB000FFF716F8A6848146E684A0682027B0F5D2
:101BC000805F02D003E00120E9E7206910B12E46D2
:101BD00000250EE000260CE08021204600F0D5FE16
:101BE000A8B9C6B116F8010B21684860E08C401E08
:101BF000E084E08C4B464FF00002CDF800800028D6
:101C0000EAD14FF04001204600F0BFFE40B184F819
:101C100041700320C3E735F8020BC0F30800E3E787
:101C200084F841700020BAE770B5044690F841008E
:101C3000202801D0022070BD49B342B32162A284A2
:101C4000E28400206064212384F84130A56B114BAD
:101C5000AB62A56B104BEB62A56B104B2B63A36BB8
:101C60005863256813462A1DA06BFEF775FE216890
:101C70006FF0400008602068143050E8001F41F009
:101C8000800140E80012002AF5D1002070BD01203B
:101C900070BD00002527000867270008DB26000824
:101CA000704770472DE9F0412E4C00252A46A57259
:101CB000608B2D4E322837D365720020C0EBC001F7
:101CC00006EB8101637A097A401C1944C0B2617243
:101CD0001F28F3D311F0FF0F244F4FF4807102D06F
:101CE0000120A07200E05AB101223846FEF773FFCE
:101CF000012240213846FEF76EFF012280210FE0CD
:101D000000223846FEF767FF002240213846FEF7E2
:101D100062FF002280213846FEF75DFF002220216D
:101D20003846FEF758FF6583207A012817D1002036
:101D30005FF04003C0EBC00106EB81014A7A012A43
:101D400008D1CA7912B1402A02D002E0CB7100E07A
:101D5000CD714D72401CC0B21F28EBD32572BDE877
:101D6000F081000000000020A8000020000C0140CD
:101D700010B5C179012917D10C494B7803F03F0107
:101D8000C1EBC1040A49DA0901EB840100240A729B
:101D90000A69521C0A6101224C814A715B0602D514
:101DA0004A7204490A80C47110BD00004700002037
:101DB000A800002008000020FEE700002DE9F04305
:101DC00085B000243F4800940194029403948169F3
:101DD00041F010018161816901F010010491816974
:101DE00041F020018161816901F020010491816944
:101DF00041F004018161816901F00401049181696C
:101E000041F00801816180692F4F00F008004FF414
:101E100000550490002229463846FEF7DCFEDFF824
:101E2000AC8000224FF2E0114046FEF7D4FEDFF80E
:101E3000A09000224FF4C8514846FEF7CCFE009512
:101E4000022601250396CDE9015469463846FEF77E
:101E5000CDFDF0208DE8310069464846FEF7C6FD0D
:101E600007208DE8310069464046FEF7BFFD43F28A
:101E7000E010CDE90005CDE9024669464046FEF78F
:101E8000B5FD4FF440400327CDE90005CDE90247F9
:101E900069464046FEF7AAFD2802CDE90005CDE9D6
:101EA000024769464846FEF7A1FDF802CDE9000564
:101EB000CDE9024669464846FEF798FD05B0BDE803
:101EC000F08300000010024000100140000C0140AF
:101ED0000008014010B586B0002417480094019412
:101EE0000294039404941349059401604721C0E9C6
:101EF000011440F2E731C0E9031444618461FFF743
:101F0000C3F908B172B6FEE74FF4805000906946FD
:101F10000948FFF743FA08B172B6FEE7049404A932
:101F200005480594FFF77CF9002801D072B6FEE75A
:101F300006B010BD002C01409404002010B586B0FE
:101F400000241748009401940294039404944FF0E1
:101F500080410594016041F61F41C0E9011442F23D
:101F60000F71C0E903148461FFF78EF908B172B6EE
:101F7000FEE74FF48050009069460948FFF70EFADB
:101F800008B172B6FEE7049404A905480594FFF76A
:101F900047F9002801D072B6FEE706B010BD000078
:101FA000DC04002070B5304D04212846FEF70EFEFB
:101FB000F0B300202D4C21780843207002212846E0
:101FC000FEF704FEA8B30020217841EA400020700B
:101FD00001212846FEF7FAFD60B300202178244D48
:101FE00041EA8000207080212846FEF7EFFD60B3B3
:101FF0000020217841EAC000207040212846FEF7E9
:10200000E5FD20B30020217841EA00102070202156
:102010002846FEF7DBFDE0B10020217841EA4010C0
:10202000207010212846FEF7D1FD1249124A02E025
:1020300005E006E007E070B1C4E90B120DE00120F5
:10204000B8E70120C0E70120C8E70120D1E701205F
:10205000D9E70120E1E7C4E90B21BDE870401F2169
:102060000648FEF741B90000000C014000000020C6
:10207000000801406C050020B40500207400002019
:102080002DE9FF475A4C5B4E4FF4807760784FF450
:1020900000584FF48059002879D101224546414625
:1020A0003046FEF798FD012249463046FEF793FD83
:1020B000012239463046FEF78EFD0122402130468E
:1020C000FEF789FD012280213046FEF784FDA08BBA
:1020D000B0F5FA7F5BD3012239463046FEF77BFD2F
:1020E000012240213046FEF776FD01228021304654
:1020F000FEF771FDA078401CC0B2A0701F280FD958
:102100000120607000F0B4FCA06201222946304634
:10211000FEF761FD012249463046FEF75CFD34E0E2
:1021200000F08CF820220F216846FEF7D5F8A2783F
:1021300031A16846FEF74CF8A078334D00F03F001F
:1021400040F080002870002069462B180A5C401C73
:10215000C0B25A700F28F8D3A6202874A020687443
:102160008020A87414212848FEF7E3F9E874A078C9
:102170002649C0EBC0004FF0FF3351F82000142275
:102180002149FFF701FD00F047F80020A0836078A7
:10219000012821D100F06CFCA16A401A1C49884238
:1021A0001AD902206070002241463046FEF713FD26
:1021B000002249463046FEF70EFD002239463046E1
:1021C000FEF709FD002240213046FEF704FD002203
:1021D00080213046FEF7FFFC6078022805D100F030
:1021E00053F9BDE8FF47FFF75DBDBDE8FF8700007D
:1021F00000000020000C0140446F6E672063686996
:1022000020736F203025640093000020A800002078
:1022100080841E00FEE7FEE770B5074D4FF40044D2
:10222000002221462846FEF7D6FC21462846BDE876
:1022300070400022FEF7CFBC000C014070B50122B7
:10224000064DD40321462846FEF7C5FC2146284604
:10225000BDE870400122FEF7BEBC0000000C01404A
:102260007047000070B5044640791C4D012620B12E
:1022700001280CD0022829D10DE0194AA079127842
:1022800000F03F01914221D1287066711EE0A079D3
:102290006870022019E0A079A87003210F48FEF7AA
:1022A00048F9A978814207D1FFF7C8FF0D480670A9
:1022B0006089401C608107E0EE2203210748FEF799
:1022C0000BF8A089401CA081002060710122A11D93
:1022D0002068BDE87040FFF717BC000057000020E1
:1022E00000000020040000202DE9F0410446007A9F
:1022F00000270126204D052820D2DFE800F003103A
:1023000014272B00607AFE2802D0FD2803D015E0A8
:102310002870267212E02870032020720EE0607A86
:1023200068700220F9E7607AA87003211248FEF76E
:1023300000F9A978814200D1E671277204F1090100
:102340002068BDE8F0410122FFF7DEBB607A6870CB
:102350000420E2E7607AA87003210748FEF7E9F855
:10236000A9788142E9D168780449C0EBC00001EB4B
:1023700080000671E1E7000047000020A80000206F
:10238000704700002DE9F84F3A4F3B4C1F204FF0AB
:10239000000B2178C1EBC10207EB8202127922B156
:1023A000FFF74CFF207860B115E0491CC9B22170DD
:1023B0001F2901D184F800B0401E10F0FF00E8D1C1
:1023C0004DE000F055FB2D4D2968401A2C4908605E
:1023D00000F04EFB2860207825468246C0EBC00006
:1023E00007EB8006B079401CB0718046D6E9030146
:1023F0008946411A491E716100F0A4FC00904846CC
:1024000000F0A0FC1F4900F0B1FC009900F0D8FBDF
:10241000B061F079184E00F0C0010AF03F000143AE
:1024200008363046317086F801800321FEF781F8C6
:10243000B07028780322C0EBC000314657F8200066
:10244000FFF7F2FB0120687000F012FB286128788A
:10245000C0EBC00007EB8000C168491CC160207858
:10246000401CC0B220701F2801D184F800B00120A8
:10247000BDE8F88FA80000203C00002034000020B8
:10248000380000200000C84238B50B4C0025E07928
:1024900050B1FFF7D3FE09A000680090684600F035
:1024A0000FF8E571002038BDE08A0A2802D3FFF753
:1024B00069FFE582012038BD00000020EFAE00007A
:1024C00010B50446FFF7BAFE084809494FF0FF333C
:1024D00000780222C0EBC00051F820002146FFF72F
:1024E00053FBBDE81040FFF797BE00003C00002002
:1024F000A800002070B50023194C19465FF00105B3
:10250000C3EBC3025B1C44F8220004EB8202DBB283
:102510001171D17155715181917111725172D160E6
:102520001161516191611F2BEAD30E4CEA22217295
:102530006172E171E16020600B484AF6AE61018092
:1025400081700321C01CFDF7C7FEFFF765FE04F193
:1025500009012068BDE870400122FFF7D5BA0000EC
:10256000A80000200C04002044000020FEF73EBB21
:1025700030B58FB028216846FDF7D8FE14210AA88F
:10258000FDF7D4FE01210804CDE9001000240294D7
:1025900002250491CDE907504FF4E01009906846F8
:1025A000FEF798FC08B172B6FEE70F20CDE90A05E8
:1025B0004FF48060CDE90C4002210AA80E94FEF78A
:1025C000ADFB002801D072B6FEE70FB030BD7047FA
:1025D0000148FEF752BF0000940400200148FEF7B6
:1025E0004CBF0000DC040020F0B50268194B1A4C07
:1025F0001A4D4FF08047984205D0B84203D0A04210
:1026000001D0A84203D122F070064A6832439842B2
:1026100005D0B84203D0A04201D0A84203D122F491
:102620004074CA6822434C6922F08002224302604F
:102630008A68C2620A688262984201D109690163AC
:10264000012141610169C90703D0016921F001013C
:102650000161F0BD002C0140000400400008004072
:1026600010B5846842EA032224F47F440A432243DB
:10267000826010BD826822F070020A4342F00701B6
:102680008160704710B5036A046A24F00104046293
:10269000846924F0F00444EA021423F00A020A4395
:1026A0008461026210BD10B5036A046A24F010044C
:1026B0000462846923F0A00324F4704444EA0232E3
:1026C00043EA01118261016210BD10B5406A002128
:1026D000C185C184FEF7B6FF10BD70B5446A20689D
:1026E000406994F84110C0F3C0100025212904D19D
:1026F00018B1E584204600F062F82068406994F83B
:102700004210C0F38010222904D118B1E58520467B
:1027100000F02EF8606C40F0100060642046FEF778
:1027200091FF70BD10B50146406A096809688906C5
:1027300016D40021C1840168143151E8002F22F021
:10274000800241E80023002BF5D101680C3151E8EB
:10275000002F42F0400241E80023002BF5D110BDCC
:10276000FFF79EFA10BD10B5406AFFF79AFA10BD48
:1027700001680C3151E8002F22F4907241E80023E7
:10278000002BF5D10168143151E8002F22F001022D
:1027900041E80023002BF5D1016B012909D1016823
:1027A0000C3151E8002F22F0100241E80023002BE9
:1027B000F5D1202180F842100021016370470168A3
:1027C0000C3151E8002F22F0C00241E80023002B19
:1027D000F5D1202180F84110704708B590F84210DB
:1027E000222901D0022008BD82684FF480539A420A
:1027F00001D1016921B1816A9A421BD04AB10AE034
:102800000268816A5268C2F308020A80816A891CE0
:1028100008E0026972B10268526802F07F020A7031
:10282000816A491C8162C18D491E0904090CC18558
:1028300003D01BE002685268F1E70168CA6822F021
:102840002002CA600168CA6822F48072CA60016806
:102850004A6922F001024A61202180F842100021D9
:102860004163026B012A03D0FFF75CF9002008BD29
:10287000016301680C3151E8002F22F0100241E899
:102880000023002BF5D101680A68D20602D50A6838
:1028900049680091818DFEF7D4FEE7E770B50446E4
:1028A00000680169E26821F4405111430161216926
:1028B000A0680843616908432168CA6841F20C6353
:1028C0009A430243CA6020684169A26921F44071B9
:1028D000114341611E492068884202D1FEF7C4FAC3
:1028E00001E0FEF7B1FA00EBC00101EB00126068F5
:1028F00064218000B2FBF0F3B3FBF1F36FF0180634
:102900007343B2FBF0F5B2FBF0F605EB830532231F
:1029100003EB0515B5FBF1F5B6FBF1F605F0F00597
:1029200005EB0615B2FBF0F6B2FBF0F0B0FBF1F0F0
:102930006FF01802504306EB800003EB0010B0FB71
:10294000F1F0216800F00F002844886070BD00009D
:102950000038014081628285C285002141642221C4
:1029600080F84210016921B10168CA6842F480729E
:10297000CA6001684A6942F001024A610068C168A0
:1029800041F02001C160002070472DE9F8439846CE
:1029900017460D460446089E24E0701C22D0FEF720
:1029A0001FF9A0EB0800B0421AD8CEB12068C16868
:1029B000490717D5802D15D0402D13D00168C94384
:1029C00009070FD401680025406800902046FFF7F2
:1029D000CFFE0820606484F840500120BDE8F883F1
:1029E0000320FBE72068006835EA000004D00020DF
:1029F000B842D2D00020F1E70120F9E70148FEF704
:102A000023BE0000240500200148FEF71DBE000083
:102A10006C0500200148FEF717BE0000B405002039
:102A2000FEE7000070B5094C607800280CD000F07B
:102A30001FF82169401A6061B0F5FA6F04D30025D0
:102A40006561FFF7E9FB657070BD00003C00002088
:102A50000907090E002804DB00F1E02080F80014CB
:102A6000704700F00F0000F1E02080F8141D70475F
:102A700005480068416A0548006A00EB4002C2EB65
:102A8000C01001EBC000704794040020000000203B
:102A900008B5FEF7B3F8FFF76BFDFFF78FF9404875
:102AA000416941F0010141614069002200F00100EB
:102AB000009011460C20FEF7FFF80C20FEF7EEF810
:102AC000002211460D20FEF7F7F80D20FEF7E6F87C
:102AD000002211461020FEF7EFF81020FEF7DEF876
:102AE000002211461120FEF7E7F81120FEF7D6F874
:102AF000FFF7F0F92C482B494FF4614600240160A0
:102B0000C0E901640C25C460C0E904458461C46166
:102B1000FEF7D0FE08B172B6FEE7234823494830DD
:102B20000160C0E90164C460C0E904458461C46116
:102B3000FEF7C0FE08B172B6FEE71B481C49903094
:102B40000160C0E90164C460C0E904458461C461F6
:102B5000FEF7B0FE08B172B6FEE7FFF7EFF9FFF738
:102B600021FA11491348FDF7BDFC40F2DC50FDF796
:102B70002BFF11480068FFF7BDFC0B489038FEF7AB
:102B8000E1FB09484838FEF7DDFB0C4C2068401C8F
:102B90002060FFF775FAFDF72FFDFFF743FFF5E71C
:102BA000001002400038014024050020004400408D
:102BB00000480040840400202C0000205C0000201D
:102BC0004FF47F0C1CEAD0121EBF1CEAD11392EA0C
:102BD0000C0F93EA0C0F00F0858090EA010F48BFBC
:102BE00042F4807240F4000C41F400002CF07F416C
:102BF00020F07F4000B58142A2EB03020FF2081CD7
:102C0000ACEB504EC0F100009EF800E04FEA4E0ED3
:102C100000FB0EFC38BF49004FEA2C1C02F5FA02FB
:102C20000CFB0EF34FEACE1E4FEA112C4FEAC121E6
:102C30000EEB635E42EB22420EFB0CFC4FEA1C5390
:102C400000FB03114FEA112C4FEA01310EFB0CFC83
:102C50004FEADC4C00FB0C11C14228BF09184CEBB9
:102C600003335DF804EB10EB410143EBC250B2F5C6
:102C70007C0F38BF704729D512F0F00F1CBF00F150
:102C8000C04000F0004070470081828384858687C1
:102C900088898B8C8D8E8F919293959697999A9C1B
:102CA0009D9FA0A2A3A5A7A8AAACAEB0B2B3B5B78A
:102CB000B9BCBEC0C2C5C7C9CCCED1D4D7D9DCDF60
:102CC000E2E6E9ECF0F3F7FAFE0000004FEA400C10
:102CD0000CF1807CBCF17E4F28BF7047B0F1C04042
:102CE00000F00BB990EA010F0CEAD11348BF42F48F
:102CF0008072624538BF634507D213F47F0F16D048
:102D000080EA010000F00040704710B500F0AFF815
:102D1000097EFC3E00F005B880EA010000F00040AA
:102D2000704780EA010000F0004000F0E6B812F4BD
:102D30007F0F04BF0248704780EA010000F0DDB851
:102D40000000C07FB0FA80F310FA03F2C3F19D03D4
:102D50000AD0D90501EB1220530638BF704700F1A5
:102D6000010008BF20F00100704700004FF47F0C05
:102D70001CEAD0121EBF1CEAD11392EA0C0F93EA90
:102D80000C0F00F0478090EA010F48BF42F48072B8
:102D90004FF0004C4CEA00204CEA012102EB030208
:102DA000A0FB0113A2F50002002918BF43F00103A4
:102DB0005B0028BF4FEA330342EB22425FEA132C49
:102DC0004CEBC2502EBFBCEB436FB2F57C0F70478B
:102DD0004FEA036CBCF1004F08BF20F00100B2F5D0
:102DE0007C0F38BF70470BD582F0FF0212F5803F91
:102DF000C8BF704700F1C040D8BF00F00040704726
:102E000000F5000C5FEA4C0C48BF7047B0F1C040C1
:102E100000F073B890EA010F0CEAD11348BF42F4F6
:102E20008072624538BF634504D280EA010000F039
:102E30000040704710B500F01AF800BF8900013E4D
:102E400000F007B800F009B85FEA410C5FEA1C6CBB
:102E500008D080EA010000F050B85FEA400C5FEA59
:102E60001C6CF6D14FF00040A0F5800070470EF1C9
:102E7000020E2EF0030E5EF8044B244204D44FEAF7
:102E80004102B2F17F4F11D84FEA4003B3F17F4FB7
:102E90000CD80ED14FEAD07CB2F17F4F0CEB4C0C2A
:102EA0000CF1020C08BF4CEBD17C04E04FF0080C95
:102EB00001E04FEAD17C0CEB4C0324FA03F404F05C
:102EC0000704B4F1040C06D20EEB840CBDE81040EC
:102ED0004CF0010C6047DFE80CF0070802024FF0ED
:102EE0000040A0F5800010BD0846420018BFD2F196
:102EF000807288BF00F0004010BDFF2141EAD05031
:102F0000C0057047010202030405060708090A0B01
:102F10000C0D0E0F10100000000000000000010258
:102F20000304060708090000000001020304000072
:102F3000502F000800000020740000002801000845
:102F4000C42F000874000020FC0C0000440100089D
:102F50000000000000000001000000000000000070
:102F60000000000000000000000000000000000061
:102F70000000000000000000000000000000000051
:102F80000000000000000000000000000000000041
:102F90000000000000000000000000000000000031
:102FA0000000000000000000000000000000000021
:102FB0000000000001000000100000000000000000
:042FC00000127A0081
:04000005080000ED02
:00000001FF
