:020000040800F2
:100000007009002099010008C7230008B7200008E4
:10001000C5230008D7060008D52F000800000000FF
:10002000000000000000000000000000172B000886
:100030008107000800000000C9230008612B0008A8
:10004000B3010008B3010008B3010008B3010008C0
:10005000B3010008B3010008B3010008B3010008B0
:10006000B3010008B3010008B3010008B3010008A0
:10007000B3010008B3010008B3010008B301000890
:10008000B3010008B3010008B3010008B301000880
:10009000B3010008B3010008B3010008B301000870
:1000A000B3010008C52B0008B3010008B301000824
:1000B000D12B0008B3010008B3010008B301000808
:1000C000B3010008B3010008B3010008B301000840
:1000D000B3010008412F0008B30100084D2F0008AC
:1000E000B3010008B3010008B301000800F002F8F2
:1000F00000F042F80AA090E8000C82448344AAF180
:100100000107DA4501D100F037F8AFF2090EBAE87D
:100110000F0013F0010F18BFFB1A43F0010318473B
:10012000A8340000C8340000103A24BF78C878C151
:10013000FAD8520724BF30C830C144BF04680C60ED
:10014000704700000023002400250026103A28BF35
:1001500078C1FBD8520728BF30C148BF0B60704739
:10016000642900F0BF80732900F0238200207047CB
:100170001FB51FBD10B510BD00F073FA1146FFF793
:10018000F7FF02F055FF00F091FA03B4FFF7F2FF1A
:1001900003BC00F099FA000009488047094800476D
:1001A000FEE7FEE7FEE7FEE7FEE7FEE7FEE7FEE727
:1001B000FEE7FEE704480549054A064B7047000084
:1001C000C32B0008ED000008700300207009002018
:1001D0007005002070050020B2F120030AD5C2F19D
:1001E000200320FA02F001FA03F321FA02F140EAB7
:1001F0000300704721FA03F04FF000017047000040
:100200000FB41CB5074B06AA7B44694600900598BD
:1002100000F0A5F90020694600F0B4F91CBC5DF8B7
:1002200014FB0000790300002DE9F0410E4604465E
:10023000002020622046E168884730B3252805D099
:10024000D4E901219047206A401CF2E7E16820468A
:1002500000278847050018D0A5F14100192802D8C9
:1002600020354FF400673246294620462760FFF7C5
:1002700077FF40B1012804D0F61D26F007060836A6
:10028000D8E7361DD6E72846DAE7206ABDE8F081D0
:1002900070B50C460546012A05D02878800600D5A1
:1002A000EA69002302E0012305E05B1C934202D2CD
:1002B000E05C0028F9D1A869E618C01AA861286A8C
:1002C000184428622846AFF3008004E0D5E90121F4
:1002D00014F8010B9047B442F8D32846AFF30080DE
:1002E00070BD00002DE9F041064600241068752914
:1002F000314616A510D0AFF30080002802DA404244
:1003000013A507E031688A0701D512A502E0490765
:1003100004D511A5012401E0AFF3008000210A22D9
:1003200006F1240709E0B0FBF2FCB0FBF2F302FB9C
:100330001C00303078541846491C0028F3D123465D
:100340002A463046BDE8F04100F0ABB8000000009E
:100350002D0000002B0000002000000040EA0103F7
:1003600010B59B070FD1042A0DD310C808C9121F5E
:100370009C42F8D020BA19BA884201D9012010BD98
:100380004FF0FF3010BD1AB1D30703D0521C07E065
:10039000002010BD10F8013B11F8014B1B1B07D1C9
:1003A00010F8013B11F8014B1B1B01D1921EF1D13A
:1003B000184610BD032A40F2308010F0030C00F004
:1003C000158011F8013BBCF1020F624498BF11F88F
:1003D00001CB00F8013B38BF11F8013BA2F1040248
:1003E00098BF00F801CB38BF00F8013B11F00303C0
:1003F00000F0E380083AC0F0088051F8043B083A66
:1004000051F804CBA0E80810F5E7121D5CBF51F8C5
:10041000043B40F8043BAFF30080D20724BF11F83F
:10042000013B11F801CB48BF11F8012B24BF00F8A4
:10043000013B00F801CB48BF00F8012B704702F0E8
:10044000FF0343EA032242EA024200F0EAB84FF017
:10045000000200B5134694469646203922BFA0E814
:100460000C50A0E80C50B1F12001BFF4F7AF090720
:1004700028BFA0E80C5048BF0CC05DF804EB890011
:1004800028BF40F8042B08BF704748BF20F8022B54
:1004900011F0804F18BF00F8012B7047704770476C
:1004A00070472DE9F0470D4699469246044600F103
:1004B00024080168880604D5E06921F01001216054
:1004C00000E00120A84201DD471B00E00027A169F0
:1004D0007A1902EB0900081AA0612078C00602D43C
:1004E0002046AFF30080002608E0D4E901211AF885
:1004F00006009047206A401C761C20624E45F4DBC3
:100500002078C0060AD52046AFF3008006E0D4E983
:10051000012130209047206A401C2062381EA7F13C
:100520000107F4DC07E0D4E9012118F80500904741
:10053000206A401C2062281EA5F10105F3DC20463C
:10054000AFF300802078000602D50220BDE8F087D6
:100550000120FBE701694A1C02610878704700B579
:100560008FB0CDE901310021059105497944CDE9EC
:10057000031011466846FFF757FE0FB000BD00009C
:10058000E5FFFFFF0A6802F8010B0A60704710B52B
:10059000436913B1AFF3008001E0FFF779FE01205A
:1005A00010BD127800F124010A7000224A70012265
:1005B000EDE711684FF0FF32E9E710B5203AC0F0DF
:1005C0000B80B1E81850203AA0E81850B1E8185054
:1005D000A0E81850BFF4F5AF5FEA027C24BFB1E891
:1005E0001850A0E8185044BF18C918C0BDE8104002
:1005F0005FEA827C24BF51F8043B40F8043B08BF0B
:100600007047D20728BF31F8023B48BF11F8012BD1
:1006100028BF20F8023B48BF00F8012B70474FF07D
:1006200000020429C0F0128010F0030C3FF411AF57
:10063000CCF1040CBCF1020F18BF00F8012BA8BFCD
:1006400020F8022BA1EB0C01FFF703BF5FEAC17C8E
:1006500024BF00F8012B00F8012B48BF00F8012B44
:100660007047754600F02CF8AE46050069465346C3
:1006700020F00700854618B020B5FFF79BFDBDE8C8
:1006800020404FF000064FF000074FF000084FF0F9
:10069000000B21F00701AC46ACE8C009ACE8C0098A
:1006A000ACE8C009ACE8C0098D46704710B50446F7
:1006B000AFF300802046BDE81040FFF766BD0000A4
:1006C000004870471003002001491820ABBEFEE728
:1006D000260002007047FEE70346002010B50246E0
:1006E000491E04E09C5C521C2044C0B2D2B28A4233
:1006F000F8DB10BD0A48C28A4EF660218A4205D254
:100700004278FE2A02D0C28A521CC282C28A8A421F
:1007100004D1FE2141704EF66121C1827047000074
:1007200014000020C00701D000207047012070474E
:1007300070B502F011FC01460E4C012504F12A00AF
:10074000592914F81B1F0C4EE1730DD000212174A0
:100750000321FFF7C1FF6074084800F0E5F9E57474
:1007600002F056FC306070BD25740321FFF7B4FF22
:100770006074F4E78C0000200400002000FC0008F6
:10078000704700002DE9F041774C0646A08A00250D
:10079000B04271D3202210217448FFF750FE7348F5
:1007A000202210211030FFF74AFE7048202210212D
:1007B0002030FFF744FE6D48202210213030FFF733
:1007C0003EFE6A4A00213032032002F085F9674A72
:1007D00000212032022002F07FF9644A0021103209
:1007E000012002F079F90021604A084602F074F90C
:1007F00004F138025EA15D48FFF702FD607820B188
:1008000040281CD0FE2845D13FE0A078FF282DD0FD
:10081000A278564857A11030FFF7F2FC2078012843
:100820002BD058A151482030FFF7EAFCA0790028CE
:1008300030D04E4855A13030FFF7E2FCA571A078CA
:10084000FF281CD0A27849484AA11030FFF7D8FCF5
:10085000464852A12030FFF7D3FCA079D0B14348DD
:1008600051A13030FFF7CCFCA57113E03F4851A1F6
:100870001030FFF7C5FCD1E727E052A1D2E73B4893
:100880004CA11030FFF7BCFCE2E7384850A1103013
:10089000FFF7B6FC354A00213032032002F01CF984
:1008A000324A00212032022002F016F92F4A00219C
:1008B0001032012002F010F900212C4A084602F003
:1008C0000BF9A571A582BDE8F081E0790028FAD086
:1008D0000327B6FBF7F0A18A8842F4D8E5712022FD
:1008E00010212248FFF7ABFD2048202210211030B4
:1008F000FFF7A5FD1D48202210212030FFF79FFDA6
:100900001A48202210213030FFF799FD34A11748F2
:10091000FFF776FC154832A11030FFF771FC134841
:1009200034A12030FFF76CFC104836A13030FFF7BF
:1009300067FC00210D4A084602F0CEF80B4A002160
:100940001032012002F0C8F8084A002120320220AB
:1009500002F0C2F8054A00213032032002F0BCF850
:10096000B6FBF7F0A082AEE714000020840100205F
:1009700025730000536F206C756F6E673A202564F5
:10098000200000004D616E67204D6F004E68616E63
:10099000206E757420446F6E670000004D616E67B5
:1009A00020446F6E670000004E68616E206E7574A3
:1009B000204D6F00536F206C756F6E673A202A2AA6
:1009C0002A2000004D616E672064617900000000FC
:1009D0004B686F6E67206B6574206E6F6900000056
:1009E0002020202020207C7C7C7C20202020202097
:1009F0000000000020202020205C5C5C2F2F2F2096
:100A000020202000202020202020205C2F202020BB
:100A10002020200006490020C8610648016941F0F5
:100A200004010161016941F040010161704700006A
:100A3000F002002000200240064A0021D161064950
:100A40000A6942F002020A614861086940F0400008
:100A500008617047F002002000200240044B002291
:100A6000DA61044A136943F001031361018070479E
:100A7000F00200200020024014480022C168CB068A
:100A8000134904D5CA6942F00202CA611022C36840
:100A90005B0705D5CB6943F00103CB6142F004024B
:100AA000C369DB0707D0CB6943F00403CB61C1699D
:100AB00021F00101C161A2F58071013901D0C2604C
:100AC0007047C16921F00101C161704700200240F7
:100AD000F002002070B5054600F07EFB0646114C82
:100AE00009E0681C07D025B100F076FB801BA84206
:100AF00001D9032070BDE068C007F2D1E06880062C
:100B000001D52020E060E068C00605D4E069C00798
:100B100002D1E068400703D5FFF7AEFF012070BDAA
:100B2000002070BD0020024010B586B0044600F0E1
:100B300045FA0120CDE9024001900020009004A96F
:100B4000684600F09DF900F0EFF906B010BD000016
:100B50002DE9F041174CA07A174E002590B10122E3
:100B600017033946304600F032FB208B401C80B220
:100B70002083142806D300223946304600F027FB94
:100B80002583A572E07A002812D00122D7023946C7
:100B9000304600F01CFB608B401C80B26083022852
:100BA00006D300223946304600F011FB6583E5721A
:100BB000BDE8F081140000200008014010B50023BA
:100BC000521C05E030F813405B1C21F8024BDBB2ED
:100BD000B3EB520FF6D310BD0E22FFF7EFBF2DE996
:100BE000F041164607460D4600F0E8F90024761C51
:100BF00009E02A8807EB44010023012000F09EF958
:100C0000641CE4B2AD1CB4EB560FF2D3BDE8F04166
:100C100000F08AB90FB40E2210B503A9FFF7DFFF69
:100C200010BC5DF814FB000070B508213A4800F0D4
:100C3000C9FAB0B300233948012240F2EE2503730C
:100C400041F2883400210BB1467B5EB38183467B41
:100C50004EB1C173468C761CB6B24684A64202D30E
:100C60004173418401720BB1837BA3B3C183827B47
:100C70003AB1028C521C92B20284AA4201D381730F
:100C80000184C27B032A39D3BFF34F8F2448016804
:100C9000244A01F4E06111430160BFF34F8F00BFAC
:100CA000FDE700E001E00123C5E7868BAE4217D1E6
:100CB0004273C1734678F02E0ED0467876B14678EE
:100CC000402E0BD001728271868C761C86844FF484
:100CD000F5768682BDE706E04272F4E70272F2E73B
:100CE000761C8683C0E7C38B642B02D05B1CC38356
:100CF000C7E78273C27B521CC273BAE7002A0AD0CC
:100D0000C28C521C92B2C284A24204D38173C183AA
:100D10000184C173C18470BD000C01401400002027
:100D20000CED00E00400FA0510B54FF40041114845
:100D300000F048FAA8B100220F484271C178B9B159
:100D4000002192B1438A0122A3F53064B83C06D059
:100D5000438A5B1C4382438A052B04D007E0027060
:100D600005E00122E8E7C27101E041820170C17033
:100D7000007810BD000801401400002010B590F864
:100D800021100022022905D00421816380F820204F
:100D9000012010BD01680B6823F00E030B60016891
:100DA0000B6823F001030B6090F84030C46B012105
:100DB00001FA03F3636080F8211080F820201046C8
:100DC00010BD000010B590F821100024022903D0B6
:100DD0000421816301243DE001680A6822F00E02CB
:100DE0000A6001680A6822F001020A601A4A016872
:100DF000914201D1012121E0174A1432914201D1DF
:100E000010211BE0144A2832914201D1891515E0C6
:100E1000114A3C32914201D189140FE00E4A5032FE
:100E2000914202D14FF4803108E00B4A6432914282
:100E300002D14FF4801101E04FF08071064A083A68
:100E40005160012180F82110002180F82010416BB1
:100E500001B18847204610BD0800024070B5044625
:100E600000F0BAF90546601C02D00448007804443A
:100E700000F0B2F9401BA042FAD370BD6000002020
:100E80002DE9F047054626480F460126017E012937
:100E90000FD00121814601762868DFF888804CF266
:100EA0005034022808D0A2462046FFF713FEA8B10E
:100EB00031E00220BDE8F0872046FFF70BFE08BBBB
:100EC0000120FFF7A7FD2046FFF704FED8F8101019
:100ED000064621F00401C8F810101CE04FF0FF3066
:100EE0003860AC6811E02046FFF7A6FD5046FFF7DA
:100EF000F1FDD8F81010060021F00201C8F810101A
:100F000001D03C6007E004F58064D5E9020100EB04
:100F10008120A042E7D8002189F818103046C9E79F
:100F2000F0020020002002400348016941F08001E6
:100F30000161002070470000002002402DE9F05FB1
:100F400007461C4888460024017E15461E46012996
:100F500009D00121814601764CF2503A5046FFF704
:100F6000B9FD18B122E00220BDE8F09F012F02D0A8
:100F7000022F00D00427D346DFF83CA022012846E8
:100F80003146FFF729F981B208EB4400FFF766FD0F
:100F90005846FFF79FFDDAF8102022F00102CAF848
:100FA000102018B9641CE4B2BC42E7D3002289F8CF
:100FB0001820D9E7F0020020002002400649002056
:100FC0000A69120607D5054A4A60054A4A60096956
:100FD000090600D501207047002002402301674523
:100FE000AB89EFCD2DE9F84FDFF8B8910024A9F1D6
:100FF000040B23460F2709F1040AABF1040EC9E0E4
:101000000125A5402A40AA427DD1674ED1F804C0EF
:10101000ACEB0608B44532D014DCBCF1030F3AD077
:1010200009DCBCF1000F2AD0BCF1010F1CD0BCF1CF
:10103000020F31D11DE0BCF1110F17D0BCF1120F1E
:101040002AD119E0B8F5881F19D006DCB8F5803F21
:1010500015D0B8F5801F1FD111E0B8F5001F0ED0D4
:10106000B8F5041F18D10AE0CB6815E0CB681B1D4A
:1010700012E0CB6808330FE0CB680C330CE08B68D0
:101080002BB1012B4FF0080303D0456104E004238A
:1010900002E0056100E00023FF2A01D8064601E0D6
:1010A00000F104064FEA840501D9A5F12005D6F820
:1010B000008007FA05FC28EA0C0803FA05F548EA5F
:1010C0000508C6F800804D68ED0062D5374DAE6961
:1010D00046F00106AE61AD6924F0030605F0010596
:1010E0000095334D06EB050CDCF80850A607360FCB
:1010F00007FA06F825EA0805DFF8B880404503D16D
:101100004FF0000817E044E0DFF8AC80404502D122
:101110004FF001080FE0DFF8A480404502D14FF006
:10112000020808E0DFF89880404502D14FF003083C
:1011300001E04FF0040808FA06F848EA0508CCF880
:1011400008804D68D9F80060ED024D4601D5164380
:1011500000E096432E604D68DAF80060AD02554617
:1011600001D5164300E096432E604D68DBF8006021
:10117000AD035D4601D5164300E096432E604D68F1
:10118000DEF80060ED03754601D5164300E0964396
:101190002E60641C0D682A46E5407FF431AFBDE83F
:1011A000F88F0000080401400000111000100240F8
:1011B0000000014000080140000C01400010014007
:1011C000001401408068084000D0012070470AB137
:1011D000016170470904FBE701488068704700001F
:1011E00060000020024881680278114481607047E5
:1011F00060000020074810B5016841F0100101604F
:10120000032000F075F80F2000F006F800F024F835
:10121000002010BD0020024070B50D4D04464FF473
:101220007A712878B1FBF0F00A490968B1FBF0F057
:1012300000F0DCFA48B9102C07D200222146501EDB
:1012400000F036F800206C6070BD012070BD000019
:10125000600000206C0000200C4808B5816941F056
:1012600001018161816901F001010091C16941F0D1
:101270008051C161C06900F080500090044841680D
:1012800021F0E06141F00071416008BD00100240B2
:1012900000000140002809DB00F01F0201219140FD
:1012A0004009800000F1E020C0F800117047000004
:1012B000F0B40E4B1B680C46C3F30223C3F10705C1
:1012C000042D00D90425191D072901D2002300E0AF
:1012D000DB1E012606FA05F1491E214099409E4079
:1012E000761E16403143F0BC01F075BE0CED00E0F7
:1012F000064900F0070208684FF6FF03184040EA6D
:101300000220034A10430860704700000CED00E023
:101310000000FA052DE9F0470F46050061D0434E65
:10132000306800F00700B84209D2306820F00700AA
:1013300038433060306800F00700B84251D1286867
:101340003B4C810712D5400703D5606840F4E0604C
:1013500060602878000703D5606840F460506060E2
:101360006068A96820F0F000084360602878C00732
:1013700028D06868012810D02168022810D0890779
:1013800000292EDA616821F0030101436160FFF753
:1013900023FF804641F288390DE021688903EFE799
:1013A0008901EDE7FFF718FFA0EB0801494502D9D5
:1013B0000320BDE8F0876068696800F00C00B0EBBE
:1013C000810FEFD1306800F00700B8420BD93068C8
:1013D00020F0070038433060306800F00700B84262
:1013E00001D00120E5E72878400705D56068E96865
:1013F00020F4E060084360602878000706D5606844
:10140000296920F4605040EAC100606000F038F8BB
:101410006168084AC1F30311515CC840064908607D
:1014200006480068FFF7F8FE0020C2E700200240EF
:1014300000100240AE3500086C000020640000205F
:101440000448054900684968044AC1F30221515C17
:10145000C84070476C00002000100240BE350008F4
:101460000448054900684968044AC1F3C221515C37
:10147000C84070476C00002000100240BE350008D4
:101480000E4A51680E4801F00C03042B11D0082BB2
:101490000FD10C48C1F38343C903C05C0AD551681E
:1014A000084AC1F34041921E515C054A5043B0FBCB
:1014B000F1F07047044948437047000000100240B3
:1014C00000127A009E35000800093D002DE9F84F12
:1014D000040070D02078C04DC00749D06868C0F3C0
:1014E0008100012807D06868C0F38100022809D173
:1014F0006868C00306D52868800339D5606800286D
:10150000E7D035E06068B0F5803F0BD010B1B0F5A2
:10151000A02F11D0286820F480302860286820F49B
:10152000802002E0286840F480302860606890B134
:10153000FFF752FE06460AE0286840F48020286043
:10154000F0E700BFFFF748FE801B642873D82868C7
:101550008003F7D50CE0FFF73FFE064605E000BF2D
:10156000FFF73AFE801B6428F0D828688003F7D480
:1015700020789A4E80074FF001094FF0000839D5C6
:10158000686810F00C0F07D06868C0F3810002286B
:1015900009D16868C00306D42868800714D520697B
:1015A000012808D110E02069B0B1C6F80090FFF71B
:1015B00013FE074605E00AE1FFF70EFEC01B0228F6
:1015C000C4D828688007F7D52868616920F0F8003A
:1015D00040EAC10028600DE0C6F80080FFF7FCFD7E
:1015E000074604E0FFF7F8FDC01B022823D828684F
:1015F0008007F7D4207800072CD57948A169D9B1A4
:10160000C0F80090FFF7E8FD074604E0FFF7E4FDAF
:10161000C01B02280FD8686A8007F7D571484FF4BD
:10162000FA510068B0FBF1F0009000BF0098411E35
:101630000091FAD20EE080E0C0F80080FFF7CCFD08
:10164000074604E0FFF7C8FDC01B022875D8686A8A
:101650008007F7D42078400760D5E8690027C000EC
:1016600008D4E86940F08050E861E869012700F09B
:10167000805000905C480168C90513D40168834616
:1016800041F480710160FFF7A7FD824606E000BFCC
:10169000FFF7A2FDA0EB0A0064284ED8DBF800009B
:1016A000C005F5D5E06801280AD008B1052813D097
:1016B000286A20F001002862286A20F0040002E075
:1016C000286A40F001002862E06841F2883B98B146
:1016D000FFF782FD82460BE0286A40F00400286292
:1016E000EEE700BFFFF778FDA0EB0A0159455AD895
:1016F000286A8007F6D50CE0FFF76EFD824605E00C
:10170000FFF76AFDA0EB0A0159454CD8286A80070B
:10171000F6D41FB1E86920F08050E861E06988B331
:101720006968C1F38101022944D00228C6F86080AB
:1017300004D0FFF751FD044638E034E0FFF74CFDDC
:10174000074604E0FFF748FDC01B02282BD8286895
:101750008001F7D4206AB0F5803F05D16868A168A0
:1017600020F4003008436860D4E908010843696840
:1017700021F4741108436860C6F86090FFF72CFDEF
:10178000044606E025E000BFFFF726FD001B022807
:1017900009D828688001F7D51BE000BFFFF71CFDC2
:1017A000001B022802D90320BDE8F88F28688001B9
:1017B000F4D40EE00128F7D06868226A00F4803182
:1017C000914204D1616A00F47010884201D0012076
:1017D000EAE70020E8E70000001002400000424273
:1017E000800442426C0000200070004010B5401E92
:1017F000B0F1807F01D3012010BD4FF0E024606183
:101800000F21601701F0E7FB0020A0610720206195
:10181000002010BD7047704770B590F83C20012A39
:1018200026D0012480F83C40022280F83D20036845
:101830005A689D6822F070060A6832435A600D4B60
:1018400002689A4208D0B2F1804F05D00A4B9A4202
:1018500002D00A4B9A4204D1496825F0800319430B
:10186000916080F83D40002180F83C10084670BD32
:10187000022070BD002C0140000400400008004020
:1018800010B5040003D094F83D0010B107E001202A
:1018900010BD002084F83C00204600F01FF8022014
:1018A00084F83D00211D206801F098F9012084F89A
:1018B000460084F83E0084F83F0084F8400084F835
:1018C000410084F8420084F8430084F8440084F81E
:1018D000450084F83D00002010BD000008B5154A01
:1018E0000168154891420ED1816941F4006181611E
:1018F0008069002200F40060009011461920FFF773
:10190000D7FC192010E0B1F1804F11D1C16941F02D
:101910000101C161C069002200F001000090114680
:101920001C20FFF7C5FC1C20BDE80840FFF7B2BC37
:1019300008BD0000002C01400010024090F83D104E
:10194000012901D001207047022180F83D10016873
:10195000CA6842F00102CA6000680B49884208D098
:10196000B0F1804F05D00949884202D00849884229
:1019700004D1816801F00701062903D0016841F014
:101980000101016000207047002C0140000400406C
:10199000000800400168CA6822F00102CA600168BC
:1019A0000A6A41F211131A4207D10A6A9B101A42BD
:1019B00003D10A6822F001020A60012180F83D107B
:1019C0000020704770B5044690F83C0000250128BF
:1019D00017D0012684F83C60022084F83D0020687E
:1019E000826822F0770222F47F42826008685028E1
:1019F00038D00DDC20284FD005DC90B3102811D151
:101A00004AE0022070BD302846D040280AD13BE091
:101A100060282FD070280DD0B0F5805F03D0B0F5CE
:101A2000005F12D0012584F83D60002084F83C005E
:101A3000284670BDCB68D1E90121206801F00AF980
:101A40002068816841F0770109E0CB68D1E9012184
:101A5000206801F0FFF82068816841F480418160CE
:101A6000E1E719E0CA684968206801F005F95021EA
:101A7000206806E0CA684968206801F00EF9602114
:101A8000206801F0F1F8CEE7CA684968206801F0E3
:101A9000F3F840212068F4E7226801461046F0E799
:101AA00070472DE9F04104460068C66805694FF0AB
:101AB0000007A90713D5B10711D5F91E016101204F
:101AC0002077206880698007204602D0FFF7E8FF72
:101AD00004E000F07EF8204600F07CF827776807E5
:101AE00016D5700714D521686FF004000861022034
:101AF00020772068806910F4407F204602D0FFF7ED
:101B0000CFFF04E000F065F8204600F063F8277787
:101B1000280715D5300713D521686FF00800086134
:101B2000042020772068C0698007204602D0FFF794
:101B3000B7FF04E000F04DF8204600F04BF827779F
:101B4000E80616D5F00614D521686FF0100008617C
:101B5000082020772068C06910F4407F204602D01A
:101B6000FFF79EFF04E000F034F8204600F032F862
:101B70002777E80708D0F00706D021686FF001004A
:101B80000861204600F028F8280608D5300606D55A
:101B900021686FF0800008612046FFF73BFE680671
:101BA00008D5700606D521686FF040000861204610
:101BB00000F036F8A8060AD5B00608D521686FF0FF
:101BC000200008612046BDE8F041FFF724BEBDE8D3
:101BD000F08170477047000010B50F490068096830
:101BE000884217D10D48816A491C8162416B491CAA
:101BF0004163018A491C0182818A491C8182012139
:101C0000C1700171FEF7A4FFFEF774FDBDE810403E
:101C1000FFF70AB810BD00001802002014000020D1
:101C20007047704770470000F8B5016804460868BF
:101C3000CA684B6910F00F0F4FF0000559D003F040
:101C4000010602F49077374365D0C10705D0D1056E
:101C500003D5616C41F001016164410705D5D907E5
:101C600003D0616C41F002016164810705D5D90799
:101C700003D0616C41F004016164010707D502F0F3
:101C80002001314303D0616C41F008016164616C53
:101C900000293AD0800604D5900602D5204601F0EE
:101CA0003DF820684069616CC0F38010090700D4DA
:101CB00060B3204601F00BF820684069400621D54A
:101CC0002068143050E8001F21F0400140E8001265
:101CD000002AF5D1E06BA8B16D494163E06BFFF7D5
:101CE00071F8002811D0E06B416B01B0BDE8F04005
:101CF000084783060FD593060DD52046BDE8F8406A
:101D000001F00CB82046FFF78DFFF8BD2046FFF725
:101D100089FF6564F8BD266B2023012E7CD1C606A1
:101D20007AD5D60678D508684868009048694FF09B
:101D30000206400640D5E16B086840680004000CCC
:101D4000E8D0A28D8242E5D9E085886920282DD08F
:101D500020680C3050E8001F21F4807140E8001228
:101D6000002AF5D12068143050E8001F21F001014D
:101D700040E80012002AF5D12068143050E8001F16
:101D800021F0400140E80012002AF5D184F84230E9
:101D9000256320680C3050E8001F21F0100140E856
:101DA0000012002AF5D1E06BFEF7E8FF6663A08D14
:101DB000E18D401A81B22AE0A08DE18D401A81B2F6
:101DC000E08D0028A6D00029A4D022680C3252E869
:101DD000000F20F4907042E80007002FF5D1206832
:101DE000143050E8002F22F0010240E80027002FB5
:101DF000F5D184F84230256320680C3050E8002F7C
:101E000022F0100240E80023002BF5D16663204643
:101E1000FFF707FFF8BDFFE705062BD5150629D507
:101E200094F841002128F5D1A068B0F5805F01D178
:101E30002069B0B1206A411C2162216800784860A5
:101E4000E08C401E0004000CE084E3D12068C168EF
:101E500021F08001C1602068C16841F04001C1608B
:101E6000D8E7206A0088C0F308004860206A801C18
:101E70002062E5E74006CDD55006CBD5CA6820469E
:101E800022F04002CA6084F8413000F013F9C1E743
:101E9000BF2C000870B5040004D094F84100002560
:101EA00010B106E0012070BD84F84050204600F0DB
:101EB00023F8242084F841002068C16821F40051EF
:101EC000C160204600F08CFF2068016921F4904138
:101ED00001612068416921F02A0141612068C168DF
:101EE00041F40051C1606564202084F8410084F809
:101EF00042006563002070BD70B586B00024009478
:101F000001940294039403682E482D4E022103226B
:101F10000515B34226D1836943F480438361836905
:101F200003F480430493836943F00403836180696D
:101F3000254E00F0040004900802CDE90001039250
:101F400069463046FFF74EF8CDE900546946304601
:101F50000294FFF747F8002211462520FFF7A8F961
:101F6000252028E0194EB34227D1C36943F48023CA
:101F7000C361C36903F480230493836943F00803B6
:101F800083618069CDE9005100F00800CDE90320AC
:101F90000F4D69462846FFF725F8E814CDE90004FF
:101FA000694628460294FFF71DF8002211462720B3
:101FB000FFF77EF92720FFF76DF906B070BD00002E
:101FC0000038014000100240000801400048004075
:101FD000000C014090F84230202B01D002207047C5
:101FE00021B11AB10023036300F056BF01207047EE
:101FF00010B500680549884207D1054800F0CCFAC1
:10200000BDE81040024800F065BB10BD003801403B
:102010008C0000202DE9F843044690F841009846D2
:1020200016460D46202802D00220BDE8F88385B16F
:102030007EB100206064212084F84100FFF7CCF8D5
:10204000A6848146E684A0682027B0F5805F02D090
:1020500003E00120E9E7206910B12E4600250EE0DB
:1020600000260CE08021204600F031FFA8B9C6B15F
:1020700016F8010B21684860E08C401EE084E08C7B
:102080004B464FF00002CDF800800028EAD14FF017
:102090004001204600F01BFF40B184F8417003204E
:1020A000C3E735F8020BC0F30800E3E784F841709A
:1020B0000020BAE77047FEE7102100F8011B00225C
:1020C0000260426082602A21017041708170027357
:1020D0007047000070B586B03748FFF7EDFF36490E
:1020E000364E0E313046FEF777FD334C344D0E340C
:1020F0002078102855D03046FEF716FD3220FEF726
:10210000ADFE2D480E222C498089ADF8000001A8B3
:10211000FEF750F90DF1040C30469CE80E00FEF776
:1021200079FD21463046FEF757FD0420211811F8AD
:10213000031C2954401CC0B21028F7D3214C0122A3
:1021400010212046FFF743F84FF496752846FEF716
:1021500085FE002210212046FFF739F82846FEF7B9
:102160007DFE012210212046FFF731F82846FEF7B8
:1021700075FE002210212046FFF729F82846FEF7B9
:102180006DFE012210212046FFF721F82846FEF7B8
:1021900065FE06B02046BDE8704000221021FFF722
:1021A00016B80420211811F8031C2954401CC0B291
:1021B0001028F7D306B070BD7000002000FC0008A6
:1021C0004C000020000C01402DE9F04385B00024B4
:1021D00044480094019402940394816941F02001E1
:1021E0008161816901F020010491816941F004015C
:1021F0008161816901F004010491816941F0080164
:1022000081618069DFF8E09000F00800049000220E
:102210004FF210014846FEF7DAFFDFF8D0800022C7
:102220004FF4C8514046FEF7D2FFF82001258DE853
:10223000310069464046FEF7D5FE07208DE83100A3
:1022400069464846FEF7CEFE4FF430400327CDE9FD
:102250000005CDE9024769464846FEF7C3FEA803DC
:10226000CDE900050226CDE9025669464846FEF74B
:10227000B9FE2802CDE90005CDE90247694640468E
:10228000FEF7B0FEE802CDE9000569464046CDE91B
:102290000245FEF7A7FE2803CDE90005CDE9024679
:1022A00069464046FEF79EFEE803CDE90004694614
:1022B00040460294FEF796FE4FF40270CDE900040A
:1022C000694648460294FEF78DFE1020CDE90005D0
:1022D000CDE9024669464846FEF784FE05B0BDE8F2
:1022E000F083000000100240000C01400008014093
:1022F00010B586B000241848009401940294039409
:1023000004941449059401604721C0E901144FF673
:10231000FF71C0E903148021C0E90541FFF7B0FA5D
:1023200008B172B6FEE74FF48050009069460A4843
:10233000FFF748FB08B172B6FEE7049404A906480B
:102340000594FFF769FA002801D072B6FEE706B0DF
:1023500010BD0000002C0140D001002010B586B057
:1023600000241748009401940294039404944FF0BD
:102370008041059401604721C0E9011440F2E73132
:10238000C0E9031480218161FFF77AFA08B172B6BF
:10239000FEE74FF48050009069460948FFF712FBB2
:1023A00008B172B6FEE7049404A905480594FFF746
:1023B00033FA002801D072B6FEE706B010BD000067
:1023C00018020020FEE7FEE7704700002DE9F0410B
:1023D000264C6078264F802838D003DC00B3402894
:1023E00013D12AE000254FF4F576F0280FD0FE280F
:1023F0000BD1002210213846FEF7E9FEE08A4EF6A6
:102400006021884201D2A6826570BDE8F081A58274
:10241000E571607A0028F8D0A6826570E582F4E75D
:10242000FEF782FC2078012809D1A06A4FF496714A
:10243000B0FBF1F0FEF776F908B1012200E00022CE
:102440003846BDE8F0411021FEF7C1BE012210213F
:102450003846FEF7BCFE0748FFF79CFA0648FFF730
:1024600099FABDE8F041FEF763B9000014000020BE
:10247000000C0140D00100201802002070B501605E
:1024800004460020A07284F82D006073A0732073AE
:10249000207460612083E07284F82E0060824AF626
:1024A000AB31A180A171BA220321E01DFDF7C7FF66
:1024B000BC220F2104F11B00FDF7C1FFCB220F212D
:1024C00004F12A00FDF7BBFF304D20212846FEF71E
:1024D00079FEE8B30020A17E41EA4010A0764021B9
:1024E0002846FEF76FFEA0B30020A17E41EA00104F
:1024F000A07680212846FEF765FE58B30020A17E15
:10250000234E41EAC000A07601213046FEF75AFE74
:1025100080B30020A17E41EA8000A07602213046EF
:10252000FEF750FE38B30020A17E41EA4000A076BD
:1025300004213046FEF746FE30B30020A17E012282
:102540000843A07604F10D012068FFF743FD02E087
:102550000EE011E012E000224FF480712846FEF7F1
:1025600036FEBDE87040CC22C8210A48FDF767BF9F
:102570000120B0E704E005E00120B6E70120BEE756
:102580000120C7E70120CFE70120D7E7000801407D
:10259000000C0140BC0000202DE9F04104464248F7
:1025A000002500F13003427B40482F4601885A54F1
:1025B000491C89B20180C82903D107801846FDF75C
:1025C00046FF207B012638B13702DFF8E48001287E
:1025D00017D002285ED134E0607BA27E00F03F017C
:1025E000914209D10221B1EB901F02D1E076217313
:1025F00001E020712673A673FF284BD12D48076098
:1026000048E0A27B201D617B1154A07B022805D0ED
:10261000401CC0B2A073022820D83BE00321201D3B
:10262000FEF75AF82074A179814206D10122394679
:102630004046FEF7CCFDA67225E0208B401C20838F
:102640000CE0A37B04F11B02617B9954A07B0E2854
:1026500009D0401CC0B2A0730E281BD9012520460A
:1026600000F02AF81CE00F211046FEF735F8207420
:1026700094F829108142E0D1012239464046FEF704
:10268000A6FD84F82D606069401C6061207900F02F
:10269000C000E073012204F10D012068FFF79AFCED
:1026A0002846BDE8F08100008C00002000000020DA
:1026B000000801403C0000200021817241738173B9
:1026C00080F82D100173036800F10D0101221846F6
:1026D000FFF780BC2DE9F0470446807A0125DFF83A
:1026E0008C80DFF88C90012827D188F80050214891
:1026F00000260680204821490570607908702079FD
:1027000000F0C00189F80010AC20E0711C4800788E
:102710001C4FC001397840EA8110A17E01F03F01D1
:10272000084320720321E01DFDF7D6FF6072E572B9
:1027300000F06EFC144948603E7094F82D000128AA
:1027400010D188F80050114900202218127F0A5435
:10275000401CC0B20C28F8D3802189F80010204614
:10276000FFF7AAFF0120BDE8F08700001F0000204E
:10277000150000202A0000201D0000201600002067
:10278000140000201C00002000000020C4010020D4
:102790002DE9F0410446C07A00263D4D771E012800
:1027A00020D100F035FC6968401A41F28831A860F8
:1027B000884217D33B460322E11D2068FFF72AFC1D
:1027C00000224FF480713348FEF701FDE02203211F
:1027D000E01DFDF734FE608A401C6082E6722046F0
:1027E000FFF76AFF94F82E0001284ED100F010FC8C
:1027F0006968401AA860B0F5FA6F46D33B460322D9
:1028000004F12A012068FFF705FC234D0022102166
:102810002846FEF7DCFC6420FEF720FB0122102195
:102820002846FEF7D4FC6420FEF718FB0022102196
:102830002846FEF7CCFC6420FEF710FB0122102195
:102840002846FEF7C4FC6420FEF708FB0022102196
:102850002846FEF7BCFC6420FEF700FB0122102195
:102860002846FEF7B4FC6420FEF7F8FA84F82E60E0
:10287000BFF34F8F09480168094A01F4E061114331
:102880000160BFF34F8F00BFFDE70020BDE8F0817E
:102890000000002000080140000C01400CED00E0A9
:1028A0000400FA0570B518488078012807D0012087
:1028B00000F0D2F8BDE870400220FEF7CFBA002445
:1028C00001E0202C05D244F0800000F0C5F8802003
:1028D00007E0A4F12000C0B240F0800000F0BCF896
:1028E000882000F0B9F80025002000F0D5F800207D
:1028F00000F0D2F86D1CEDB2082DF5D3641CE4B2E3
:10290000402CDED370BD00000C0000202DE9F0410A
:102910000646002401E0202C18D2002544F080084F
:10292000404600F099F845F0800000F095F8680006
:1029300000EB0417F05D00F0AFF8B819407800F034
:10294000ABF86D1CEDB2082DEAD31BE0A4F120001A
:10295000002540F0800800BF08F0FF0000F07CF880
:1029600045F0880000F078F8680000EB0417F05D8F
:1029700000F092F8B819407800F08EF86D1CEDB2B6
:10298000082DE9D3641CE4B2402CC4D3BDE8F08127
:1029900010B50F4C012807D0002804D1302000F0DA
:1029A0005BF80020A07010BD302000F055F8012029
:1029B000FEF754FA342000F04FF80120FEF74EFAEB
:1029C000362000F049F80120FEF748FA0120E9E737
:1029D0000C00002070B51F4D4FF4804400222146AA
:1029E0002846FEF7F4FB0A20FEF738FA01222146BA
:1029F0002846FEF7ECFB3220FEF730FA302000F0DC
:102A00002BF86E2000F0F8FA302000F025F828208E
:102A100000F0F2FA082000F01FF86E2000F0ECFA47
:102A2000012000F019F80C20FEF718FA062000F03B
:102A300013F80120FEF712FA0C2000F00DF8012027
:102A4000FEF70CFA022000F007F8BDE87040012004
:102A5000FEF704BA000C014070B501220D4E044689
:102A6000150329463046FEF7B2FBF82000F054F873
:102A700004F0F00000F050F82007000E00F04CF8D1
:102A8000322000F0B9FA29463046BDE870400022F5
:102A9000FEF79DBB000C014070B501220D4E0446AF
:102AA000150329463046FEF792FBFA2000F034F871
:102AB00004F0F00000F030F82007000E00F02CF8D1
:102AC000322000F099FA29463046BDE870400022D5
:102AD000FEF77DBB000C014010B5144641F08003A9
:102AE00070B1012804D0022805D0032808D105E0E0
:102AF00041F0900304E041F0880301E041F09803C5
:102B0000D8B2FFF7A9FF02E0641CFFF7C5FF2078E9
:102B10000028F9D110BD70472DE9F0410F4F002476
:102B200005464FF400487E1405FA04F0000601D56E
:102B3000012200E0002241463846FEF748FB002211
:102B400031463846FEF743FB012231463846FEF750
:102B50003EFB641C082CE7DBBDE8F081000C014063
:102B6000FEF740BB30B58FB028216846FDF76FFCFB
:102B700014210AA8FDF76BFC01210804CDE900101F
:102B80000024029402250491CDE907504FF4E0108F
:102B900009906846FEF79AFC08B172B6FEE70F206E
:102BA000CDE90A054FF48060CDE90C4002210AA866
:102BB0000E94FEF7AFFB002801D072B6FEE70FB00F
:102BC00030BD70470148FEF76CBF0000D001002007
:102BD0000148FEF766BF000018020020F0B5026849
:102BE000194B1A4C1A4D4FF08047984205D0B84205
:102BF00003D0A04201D0A84203D122F070064A6857
:102C00003243984205D0B84203D0A04201D0A84236
:102C100003D122F44074CA6822434C6922F0800236
:102C2000224302608A68C2620A688262984201D1C5
:102C300009690163012141610169C90703D0016983
:102C400021F001010161F0BD002C014000040040B1
:102C50000008004010B5846842EA032224F47F444F
:102C60000A432243826010BD826822F070020A4348
:102C700042F007018160704710B5036A046A24F0CE
:102C800001040462846924F0F00444EA021423F08D
:102C90000A020A438461026210BD10B5036A046A25
:102CA00024F010040462846923F0A00324F4704427
:102CB00044EA023243EA01118261016210BD10B59B
:102CC000406A0021C185C184FEF7ACFF10BD0168D8
:102CD0000C3151E8002F22F4907241E80023002BC0
:102CE000F5D10168143151E8002F22F0010241E8CA
:102CF0000023002BF5D1016B012909D101680C31AA
:102D000051E8002F22F0100241E80023002BF5D1FA
:102D1000202180F8421000210163704708B590F827
:102D20004210222901D0022008BD82684FF480534E
:102D30009A4201D1016921B1816A9A421BD04AB1FC
:102D40000AE00268816A5268C2F308020A80816A56
:102D5000891C08E0026972B10268526802F07F02C1
:102D60000A70816A491C8162C18D491E0904090CDF
:102D7000C18503D01BE002685268F1E70168CA68A8
:102D800022F02002CA600168CA6822F48072CA6018
:102D900001684A6922F001024A61202180F842104C
:102DA00000214163026B012A03D0FFF721F90020C3
:102DB00008BD016301680C3151E8002F22F01002B8
:102DC00041E80023002BF5D101680A68D20602D53C
:102DD0000A6849680091818DFEF723FFE7E700004C
:102DE00070B5044600680169E26821F4405111435E
:102DF00001612169A0680843616908432168CA68C4
:102E000041F20C639A430243CA6020684169A26997
:102E100021F44071114341611E492068884202D16A
:102E2000FEF71EFB01E0FEF70BFB00EBC00101EB20
:102E30000012606864218000B2FBF0F3B3FBF1F391
:102E40006FF018067343B2FBF0F5B2FBF0F605EB3A
:102E50008305322303EB0515B5FBF1F5B6FBF1F65F
:102E600005F0F00505EB0615B2FBF0F6B2FBF0F04D
:102E7000B0FBF1F06FF01802504306EB800003EB5B
:102E80000010B0FBF1F0216800F00F0028448860CA
:102E900070BD00000038014081628285C28500213A
:102EA0004164222180F84210016921B10168CA6899
:102EB00042F48072CA6001684A6942F001024A61C4
:102EC0000068C16841F02001C160002070472DE911
:102ED000F843984617460D460446089E24E0701CA9
:102EE00022D0FEF779F9A0EB0800B0421AD8CEB193
:102EF0002068C168490717D5802D15D0402D13D003
:102F00000168C94309070FD4016800254068009093
:102F10002046FFF7DCFE0820606484F84050012062
:102F2000BDE8F8830320FBE72068006835EA00006D
:102F300004D00020B842D2D00020F1E70120F9E708
:102F40000148FEF771BE0000600200200148FEF754
:102F50006BBE0000A802002030B51B4D85B04E248A
:102F60002846FDF7E1FD0A20FDF778FF18491748CC
:102F70000A6840F80F2F4A68426089688160B0F89B
:102F80000B001249ADF800000E220E3101A8FDF72A
:102F900011FA0DF1040C28469CE80E00FDF73AFEEC
:102FA0000120FDF75BFF094928460E31FDF714FEAD
:102FB00006480C2206490F30FDF7D0F900B9592414
:102FC00005B0204630BD000000FC00087000002065
:102FD000C4010020FEE70907090E002804DB00F108
:102FE000E02080F80014704700F00F0000F1E020AE
:102FF00080F8141D70470000044900220B685A62D3
:1030000009684A6A8242FCD370470000D001002060
:1030100005480068416A0548406B00EB4002C2EB7E
:10302000C01001EBC00070471802002014000020FF
:10303000FEF7E0F8FFF796FDFFF7C6F8FFF758F93F
:1030400040483F494FF4E13500240160C0E9015494
:103050000C26C460C0E904468461C461FEF71AFF0F
:1030600008B172B6FEE73748374948300160C0E919
:103070000154C460C0E904468461C461FEF70AFFDC
:1030800008B172B6FEE7FFF769F9002210212F4858
:10309000FEF79DF82B492E48FFF7F0F929489038A4
:1030A000FEF74CFCFFF796FC0120FFF771FC294866
:1030B000FFF72CFC4FF4FA752846FDF7CFFE0020F1
:1030C000FFF766FCFFF7EEFB23A12748FDF798F812
:1030D00026A12948FDF794F81D4828A1827E2B4897
:1030E000FDF78EF82A4A00210320FFF7F5FC274A56
:1030F00000210220FFF7F0FC1F4A00210120FFF70A
:10310000EBFC0021184A0846FFF7E6FCFEF7E2FF59
:103110000C484838FEF712FC00224FF480511D483D
:10312000FEF755F81C4C2068401C2060FFF74EF954
:103130000748FFF72DFB2846FDF724FBF3E70000C7
:10314000003801406002002000480040000C0140AF
:103150008C0000209C3100085454204B48414920E9
:103160005448414320310000840100204D41434830
:10317000204D414E4700000094010020536F205421
:1031800068752054753A202564000000A4010020D1
:10319000B4010020000801405C000020FFFFFFFF99
:1031A000FFFFFFFFFFFFFFFFFFFFFFFFFFFFFFFF2F
:1031B000FFFFFFFFFFFFFFFFFFFFFFFFFFFFFFFF1F
:1031C000FFFFFFFFFFFFFFFFFFFFFFFFFFFFFFFF0F
:1031D000FFFFFFFFFFFFFFFFFFFFFFFFFFFFFFFFFF
:1031E000FFFFFFFFFFFFFFFFFFFFFFFFFFFFFFFFEF
:1031F000FFFFFFFFFFFFFFFFFFFFFFFFFFFFFFC31B
:10320000FFFFFFFFFFFFFFFFFFFFFFFFFFFFFFC30A
:10321000FFFFFFE3FFC7FFFFFFF87FFFFFFFFFC3D5
:10322000FFFFFFE1FF87FFFFFFF87FFFFFFFFFDFEB
:10323000FFFFFFE1FF87FFFFFFF87FFFFFFFFFFFBB
:10324000FFFFFFE1FF87FFFFFFF87FFFFFFFFFFFAB
:10325000FFFFFFC1FF83FFFFFFF87FFFE1FFF0C328
:10326000FC003F0000000FC003F87FFFE1FFF0C348
:10327000F0000F0000001F0000F87FFFF0FFE1C327
:10328000E07C07C1FF83FE07C0787FFFF0FFE1C34A
:10329000C1FF07E1FF87FC1FF0787FFFF0FFC3C38A
:1032A000C3FF87E1FF87FC3FF8787FFFF87FC3C348
:1032B000C3FF83E1FF87FC3FF8387FFFF87F87C3B8
:1032C000C3FF83E1FF87FC3FF8387FFFFC3F87C3E4
:1032D000C3FF83E1FF87FC3FF8387FFFFC3F8FC3CC
:1032E000C20003E1FF87F82000787FFFFE3F0FC395
:1032F000C00007E1FF87FC0000787FFFFE1F0FC3BF
:10330000C3FFFFE1FF87FC3FFFF87FFFFF1E1FC3E6
:10331000C3FFFFE1FF87FC3FFFF87FFFFF0E1FC3E6
:10332000C3FFFFE1FF87FC3FFFF87FFFFF0E3FC3B6
:10333000C3FFFFE1FF83FC3FFFF87FFFFF843FC334
:10334000C3FFFFE1FFC3FC3FFFF83FFFFF807FC3E8
:10335000C1FFFFE0FFC1FC1FFFFC1FFFFFC07FC3D9
:10336000E00007F007C00E00007C01FFFFC0FFC3B4
:10337000F00007F807E00F00007E01FFFFE0FFC349
:10338000FC0007FE0FF81FC0007F81FFFFFFFFFF5B
:10339000FFFFFFFFFFFFFFFFFFFFFFFFFFFFFFFF3D
:1033A000FFFFFFFFFFFFFFFFFFFFFFFFFFFFFFFF2D
:1033B000FFFFFFFFFFFFFFFFFFFFFFFFFFFFFFFF1D
:1033C000FFFFFFFFFFFFFFFFFFFFFFFFFFFFFFFF0D
:1033D000FFFFFFFFFFFFFFFFFFFFFFFFFFFFFFFFFD
:1033E000FFFFFFFFFFFFFFFFFFFFFFFFFFFFFFFFED
:1033F000FFFFFFFFFFFFFFFFFFFFFFFFFFFFFFFFDD
:10340000FFFFFFFFFFFFFFFFFFFFFFFFFFFFFFFFCC
:10341000FFFFFFFFFFFFFFFFFFFFFFFFFFFFFFFFBC
:10342000FFFFFFFFFFFFFFFFFFFFFFFFFFFFFFFFAC
:10343000FFFFFFFFFFFFFFFFFFFFFFFFFFFFFFFF9C
:10344000FFFFFFFFFFFFFFFFFFFFFFFFFFFFFFFF8C
:10345000FFFFFFFFFFFFFFFFFFFFF7FFFFFFFFFF84
:10346000FFFFFFFFFFFFFFFFFFFFF7FFFFFFFFFF74
:10347000FFFFFFFFFFFFFFFFFFFFF7FFFFFFFFFF64
:10348000FFFFFFFFFFFFFE07C1E060FFFFFFFFFF41
:10349000FFFFFFFFFFFFFC631CCFE3FFFFFFFFFF0A
:1034A000FFFFFFFFFFFFFCFB3E4FF7FFFFFFFFFFAC
:1034B000FFFFFFFFFFFFFCF97E4FF7FFFFFFFFFF5E
:1034C000FFFFFFFFFFFFFCF97E60F7FFFFFFFFFF3D
:1034D000FFFFFFFFFFFFFCF97E7C37FFFFFFFFFFD1
:1034E000FFFFFFFFFFFFFCFB7E7F37FFFFFFFFFFBC
:1034F000FFFFFFFFFFFFFCF33C7F33FFFFFFFFFFFA
:10350000FFFFFFFFFFFFFC0780C030FFFFFFFFFF53
:10351000FFFFFFFFFFFFFCFFFFFFFFFFFFFFFFFFBE
:10352000FFFFFFFFFFFFFCFFFFFFFFFFFFFFFFFFAE
:10353000FFFFFFFFFFFFFCFFFFFFFFFFFFFFFFFF9E
:10354000FFFFFFFFFFFFFFFFFFFFFFFFFFFFFFFF8B
:10355000FFFFFFFFFFFFFFFFFFFFFFFFFFFFFFFF7B
:10356000FFFFFFFFFFFFFFFFFFFFFFFFFFFFFFFF6B
:10357000FFFFFFFFFFFFFFFFFFFFFFFFFFFFFFFF5B
:10358000FFFFFFFFFFFFFFFFFFFFFFFFFFFFFFFF4B
:10359000FFFFFFFFFFFFFFFFFFFFFFFF010202032F
:1035A0000405060708090A0B0C0D0E0F1010000089
:1035B00000000000000001020304060708090000E3
:1035C0000000010203040000E835000800000020AC
:1035D0007000000028010008583600087000002024
:1035E0000009000044010008000000000000000085
:1035F00000000000408000000000000000F000001B
:1036000000000000000000000000000000000000BA
:1036100000000000000000000000000000000000AA
:10362000000000000000000000000000000000009A
:103630000000000044433A200000000000000000A9
:103640000000000000000000010000001000000069
:083650000000000000127A00E6
:04000005080000ED02
:00000001FF
