:020000040800F2
:10000000D80800209101000897210008B71F0008B8
:10001000952100081D060008652D0008000000005D
:10002000000000000000000000000000A7280008F9
:100030003B0600080000000099210008F128000894
:10004000AB010008AB010008AB010008AB010008E0
:10005000AB010008AB010008AB010008AB010008D0
:10006000AB010008AB010008AB010008AB010008C0
:10007000AB010008AB010008AB010008AB010008B0
:10008000AB010008AB010008AB010008AB010008A0
:10009000AB010008AB010008AB010008AB01000890
:1000A000AB01000855290008AB010008AB010008AE
:1000B00061290008AB010008AB010008AB01000892
:1000C000AB010008AB010008AB010008AB01000860
:1000D000AB010008492D0008AB010008552D0008B0
:1000E000AB010008AB010008AB01000800F002F80A
:1000F00000F03FF80AA090E8000C82448344AAF183
:100100000107DA4501D100F034F8AFF2090EBAE880
:100110000F0013F0010F18BFFB1A43F0010318473B
:100120001033000030330000103A24BF78C878C183
:10013000FAD8520724BF30C830C144BF04680C60ED
:10014000704700000023002400250026103A28BF35
:1001500078C1FBD8520728BF30C148BF0B60704739
:10016000642900F09180002070471FB51FBD10B5B5
:1001700010BD00F006FA1146FFF7F7FF02F010FE7F
:1001800000F024FA03B4FFF7F2FF03BC00F02CFAEE
:100190000948804709480047FEE7FEE7FEE7FEE71B
:1001A000FEE7FEE7FEE7FEE7FEE7FEE70448054957
:1001B000054A064B7047000053290008ED0000086F
:1001C000D8020020D8080020D8040020D80400203D
:1001D000B2F120030AD5C2F1200320FA02F001FA9D
:1001E00003F321FA02F140EA0300704721FA03F019
:1001F0004FF00001704700000FB41CB5074B06AA72
:100200007B4469460090059800F081F9002069461A
:1002100000F090F91CBC5DF814FB000031030000F5
:100220002DE9F0410E460446002020622046E16898
:10023000884730B3252805D0D4E901219047206AAA
:10024000401CF2E7E168204600278847050018D0E7
:10025000A5F14100192802D820354FF40067324635
:10026000294620462760FFF77BFF40B1012804D0D4
:10027000F61D26F007060836D8E7361DD6E72846CD
:10028000DAE7206ABDE8F0812DE9F0410646002456
:1002900010687529314616A510D0AFF300800028EC
:1002A00002DA404213A507E031688A0701D512A59A
:1002B00002E0490704D511A5012401E0AFF3008055
:1002C00000210A2206F1240709E0B0FBF2FCB0FB92
:1002D000F2F302FB1C00303078541846491C002809
:1002E000F3D123462A463046BDE8F04100F0B1B8CC
:1002F000000000002D0000002B0000002000000086
:10030000032A40F2308010F0030C00F0158011F841
:10031000013BBCF1020F624498BF11F801CB00F819
:10032000013B38BF11F8013BA2F1040298BF00F86D
:1003300001CB38BF00F8013B11F0030300F025802A
:10034000083AC0F0088051F8043B083A51F804CB51
:10035000A0E80810F5E7121D5CBF51F8043B40F817
:10036000043BAFF30080D20724BF11F8013B11F822
:1003700001CB48BF11F8012B24BF00F8013B00F866
:1003800001CB48BF00F8012B704710B5203AC0F0F0
:100390000B80B1E81850203AA0E81850B1E8185086
:1003A000A0E81850BFF4F5AF5FEA027C24BFB1E8C3
:1003B0001850A0E8185044BF18C918C0BDE8104034
:1003C0005FEA827C24BF51F8043B40F8043B08BF3D
:1003D0007047D20728BF31F8023B48BF11F8012B04
:1003E00028BF20F8023B48BF00F8012B704702F0FD
:1003F000FF0343EA032242EA024200F0A2B84FF0B0
:10040000000200B5134694469646203922BFA0E864
:100410000C50A0E80C50B1F12001BFF4F7AF090770
:1004200028BFA0E80C5048BF0CC05DF804EB890061
:1004300028BF40F8042B08BF704748BF20F8022BA4
:1004400011F0804F18BF00F8012B704770477047BC
:1004500070472DE9F0470D4699469246044600F153
:1004600024080168880604D5E06921F010012160A4
:1004700000E00120A84201DD471B00E00027A16940
:100480007A1902EB0900081AA0612078C00602D48C
:100490002046AFF30080002608E0D4E901211AF8D5
:1004A00006009047206A401C761C20624E45F4DB13
:1004B0002078C0060AD52046AFF3008006E0D4E9D4
:1004C000012130209047206A401C2062381EA7F18D
:1004D0000107F4DC07E0D4E9012118F80500904792
:1004E000206A401C2062281EA5F10105F3DC20468D
:1004F000AFF300802078000602D50220BDE8F08727
:100500000120FBE701694A1C02610878704700B5C9
:100510008FB0CDE901310021059105497944CDE93C
:10052000031011466846FFF77BFE0FB000BD0000C8
:10053000E5FFFFFF0A6802F8010B0A6070474FF001
:1005400000020429C0F0128010F0030C3FF459AFF0
:10055000CCF1040CBCF1020F18BF00F8012BA8BFAE
:1005600020F8022BA1EB0C01FFF74BBF5FEAC17C27
:1005700024BF00F8012B00F8012B48BF00F8012B25
:100580007047754600F02CF8AE46050069465346A4
:1005900020F00700854618B020B5FFF707FEBDE83C
:1005A00020404FF000064FF000074FF000084FF0DA
:1005B000000B21F00701AC46ACE8C009ACE8C0096B
:1005C000ACE8C009ACE8C0098D46704710B50446D8
:1005D000AFF300802046BDE81040FFF7D3BD000018
:1005E000004870477802002001491820ABBEFEE7A2
:1005F000260002007047000010B5064C208AB0F5B6
:10060000967F06D34FF40051034800F05EFD0020B2
:10061000208210BD0800002000100140FEE70346C4
:10062000002010B50246491E04E09C5C521C204488
:10063000C0B2D2B28A42F8DB10BD704770B57C4CB4
:100640000646A08A0025B04272D3202210217948A4
:10065000FFF7CDFE7748202210211030FFF7C7FEAC
:100660007448202210212030FFF7C1FE714820225B
:1006700010213030FFF7BBFE6E4A002130320320DC
:1006800002F0F2F86B4A00212032022002F0ECF86E
:10069000684A00211032012002F0E6F80021654A84
:1006A000084602F0E1F8644864A1C28C6148FFF793
:1006B000A3FD607830B101281DD002280CD0EE28AF
:1006C00032D12CE05B48E2895EA11030FFF794FD47
:1006D000584860A1203025E05648E28959A11030E1
:1006E000FFF78AFD53485DA12030FFF785FD607953
:1006F000D0B15DA10DE04F48E28952A11030FFF763
:100700007BFD4C485BA12030FFF776FD607958B146
:100710005BA148483030FFF76FFD657104E0454844
:100720005BA11030FFF768FDE07910B1E57103E0DF
:100730001BE0207A00B125723E4A002130320320AE
:1007400002F092F83B4A00212032022002F08CF89D
:10075000384A00211032012002F086F80021354A83
:10076000084602F081F8A58270BDA079002848D023
:10077000A08A642845D3A571202210212D48FFF7B7
:1007800036FE2C48202210211030FFF730FE294879
:10079000202210212030FFF72AFE26482022102197
:1007A0003030FFF724FE3EA12248FFF725FD214807
:1007B0003BA11030FFF720FD1E483EA12030FFF77F
:1007C0001BFD1C483FA13030FFF716FD0021194AE0
:1007D000084602F049F8174A00211032012002F0C1
:1007E00043F8144A00212032022002F03DF8114A59
:1007F00000213032032002F037F8A6F5FA76A682FF
:1008000070BDE07910B1E57132A104E0207A0028D2
:10081000F6D0257233A107483030FFF7EDFC054ACA
:10082000BDE8704030320021032002F01DB8000006
:1008300008000020D00000204C00002049443A204D
:1008400025640000536F206C756F6E673A20256435
:10085000200000004D616E67204D6F004D616E6796
:1008600020446F6E670000004E68616E206E7574E4
:10087000204D6F004D616E672064617900000000BB
:100880004E68616E206E757420446F6E67000000C4
:100890004B686F6E67206B6574206E6F6900000097
:1008A000202020202020207C7C2020202020202090
:1008B000000000002020202020205C20202F20206D
:1008C00020202000202020202020205C2F202020FD
:1008D00020202000436F6E6669672053756363654F
:1008E00073732100436F6E666967204572726F7281
:1008F0002100000006490020C8610648016941F056
:1009000004010161016941F040010161704700008B
:100910005802002000200240064A0021D161064909
:100920000A6942F002020A614861086940F0400029
:10093000086170475802002000200240044B00224A
:10094000DA61044A136943F00103136101807047BF
:10095000580200200020024014480022C168CB0643
:10096000134904D5CA6942F00202CA611022C36861
:100970005B0705D5CB6943F00103CB6142F004026C
:10098000C369DB0707D0CB6943F00403CB61C169BE
:1009900021F00101C161A2F58071013901D0C2606D
:1009A0007047C16921F00101C16170470020024018
:1009B0005802002070B5054600F094FB0646114C25
:1009C00009E0681C07D025B100F08CFB801BA84211
:1009D00001D9032070BDE068C007F2D1E06880064D
:1009E00001D52020E060E068C00605D4E069C007BA
:1009F00002D1E068400703D5FFF7AEFF012070BDCC
:100A0000002070BD0020024010B586B0044600F002
:100A100053FA0120CDE9024001900020009004A982
:100A2000684600F0ABF900F0FDF906B010BD00001B
:100A300070B50D4C607B002814D001220B4E55037D
:100A40002946304600F049FB208B401C80B22083B1
:100A50000A2807D300222946304600F03EFB00203A
:100A60002083607370BD000008000020001001406A
:100A700010B50023521C05E030F813405B1C21F830
:100A8000024BDBB2B3EB520FF6D310BD0D22FFF7D2
:100A9000EFBF2DE9F041164607460D4600F00CFA6F
:100AA0000024761C09E02A8807EB4401002301207A
:100AB00000F0C2F9641CE4B2AD1CB4EB560FF2D3E3
:100AC000BDE8F04100F0AEB90FB40D2210B503A996
:100AD000FFF7DFFF10BC5DF814FB000070B586B0B7
:100AE0001E4801F069FA1D491D4E0D313046FFF7D1
:100AF000CDFF1A4C1B4D0D342078AE2824D0304643
:100B0000FFF782FF322000F027F914480D22134925
:100B1000007B8DF8000001A8FFF7F2FB0DF1040C3B
:100B200030469CE80E00FFF7CFFF21463046FFF726
:100B3000ADFF0420211811F8031C2954401CC0B239
:100B40001028F7D306B070BD0420211811F8031C3B
:100B50002954401CC0B21028F7D3F3E71C01002031
:100B600000FC00082800002070B51F4C082120461A
:100B700000F0A6FAD8B100201C494FF48075C87265
:100B8000B8B101221021204600F0A7FA0022294620
:100B9000204600F0A2FA00228021204600F09DFAB3
:100BA00000224021204600F098FA002216E00120A1
:100BB000E2E700221021204600F08FFA01222946A8
:100BC000204600F08AFA01228021204600F085FAB2
:100BD00001224021204600F080FA01222046BDE893
:100BE0007040202100F079BA000C0140080000207C
:100BF00070B54FF400411D4800F062FA1C4C1D4DC9
:100C0000AE15207101281AD000221021284600F0CC
:100C100064FA01223146284600F05FFA0122802161
:100C2000284600F05AFA01224021284600F055FAE1
:100C300001222021284600F050FA207870BD0122C0
:100C40001021284600F049FA00223146284600F0DB
:100C500044FA00228021284600F03FFA0022402179
:100C6000284600F03AFA0022E3E7000000080140BD
:100C700008000020000C014010B590F8211000225F
:100C8000022905D00421816380F82020012010BDB5
:100C900001680B6823F00E030B6001680B6823F0FA
:100CA00001030B6090F84030C46B012101FA03F39B
:100CB000636080F8211080F82020104610BD0000ED
:100CC00010B590F821100024022903D0042181637B
:100CD00001243DE001680A6822F00E020A60016802
:100CE0000A6822F001020A601A4A0168914201D1A1
:100CF000012121E0174A1432914201D110211BE059
:100D0000144A2832914201D1891515E0114A3C322A
:100D1000914201D189140FE00E4A5032914202D122
:100D20004FF4803108E00B4A6432914202D14FF413
:100D3000801101E04FF08071064A083A51600121AC
:100D400080F82110002180F82010416B01B1884704
:100D5000204610BD0800024070B5044600F0C2F9FC
:100D60000546601C02D004480078044400F0BAF93B
:100D7000401BA042FAD370BD3C0000202DE9F04793
:100D8000054626480F460126017E01290FD0012184
:100D9000814601762868DFF888804CF250340228BA
:100DA00008D0A2462046FFF705FEA8B131E0022098
:100DB000BDE8F0872046FFF7FDFD08BB0120FFF7E7
:100DC00099FD2046FFF7F6FDD8F81010064621F0F1
:100DD0000401C8F810101CE04FF0FF303860AC6818
:100DE00011E02046FFF798FD5046FFF7E3FDD8F8E5
:100DF0001010060021F00201C8F8101001D03C606C
:100E000007E004F58064D5E9020100EB8120A042EF
:100E1000E7D8002189F818103046C9E758020020A9
:100E2000002002400348016941F080010161002077
:100E300070470000002002402DE9F05F07461C4883
:100E400088460024017E15461E46012909D001214D
:100E5000814601764CF2503A5046FFF7ABFD18B18F
:100E600022E00220BDE8F09F012F02D0022F00D027
:100E70000427D346DFF83CA0220128463146FFF77D
:100E8000A7F981B208EB4400FFF758FD5846FFF779
:100E900091FDDAF8102022F00102CAF8102018B9EA
:100EA000641CE4B2BC42E7D3002289F81820D9E7D9
:100EB0005802002000200240064900200A6912065C
:100EC00007D5054A4A60054A4A600969090600D5FE
:100ED000012070470020024023016745AB89EFCD18
:100EE0002DE9F84FDFF8B8910024A9F1040B23464F
:100EF0000F2709F1040AABF1040EC9E00125A54052
:100F00002A40AA427DD1674ED1F804C0ACEB060856
:100F1000B44532D014DCBCF1030F3AD009DCBCF18B
:100F2000000F2AD0BCF1010F1CD0BCF1020F31D14F
:100F30001DE0BCF1110F17D0BCF1120F2AD119E03E
:100F4000B8F5881F19D006DCB8F5803F15D0B8F584
:100F5000801F1FD111E0B8F5001F0ED0B8F5041F97
:100F600018D10AE0CB6815E0CB681B1D12E0CB68F6
:100F700008330FE0CB680C330CE08B682BB1012BEE
:100F80004FF0080303D0456104E0042302E005614B
:100F900000E00023FF2A01D8064601E000F1040624
:100FA0004FEA840501D9A5F12005D6F8008007FA9B
:100FB00005FC28EA0C0803FA05F548EA0508C6F816
:100FC00000804D68ED0062D5374DAE6946F00106F0
:100FD000AE61AD6924F0030605F001050095334DBF
:100FE00006EB050CDCF80850A607360F07FA06F8E2
:100FF00025EA0805DFF8B880404503D14FF0000826
:1010000017E044E0DFF8AC80404502D14FF0010822
:101010000FE0DFF8A480404502D14FF0020808E05D
:10102000DFF89880404502D14FF0030801E04FF00F
:10103000040808FA06F848EA0508CCF808804D6864
:10104000D9F80060ED024D4601D5164300E0964305
:101050002E604D68DAF80060AD02554601D51643A2
:1010600000E096432E604D68DBF80060AD035D46FE
:1010700001D5164300E096432E604D68DEF800600F
:10108000ED03754601D5164300E096432E60641CBF
:101090000D682A46E5407FF431AFBDE8F88F0000C7
:1010A000080401400000111000100240000001403F
:1010B00000080140000C01400010014000140140F4
:1010C0008068084000D001207047C26821EA02030E
:1010D0000A4043EA0241016170470AB10161704769
:1010E0000904FBE701488068704700003C000020CD
:1010F0000248816802781144816070473C000020FA
:10110000074810B5016841F010010160032000F0AC
:1011100075F80F2000F006F800F024F8002010BD4C
:101120000020024070B50D4D04464FF47A712878C6
:10113000B1FBF0F00A490968B1FBF0F000F0DCFA0D
:1011400048B9102C07D200222146501E00F036F874
:1011500000206C6070BD012070BD00003C000020CC
:10116000480000200C4808B5816941F00101816107
:10117000816901F001010091C16941F08051C161B3
:10118000C06900F0805000900448416821F0E0619F
:1011900041F00071416008BD0010024000000140B4
:1011A000002809DB00F01F02012191404009800066
:1011B00000F1E020C0F8001170470000F0B40E4BC1
:1011C0001B680C46C3F30223C3F10705042D00D9A5
:1011D0000425191D072901D2002300E0DB1E01268A
:1011E00006FA05F1491E214099409E40761E1640A0
:1011F0003143F0BC01F0B7BD0CED00E0064900F052
:10120000070208684FF6FF03184040EA0220034A2D
:1012100010430860704700000CED00E00000FA0584
:101220002DE9F0470F46050061D0434E306800F0CD
:101230000700B84209D2306820F007003843306018
:10124000306800F00700B84251D128683B4C810754
:1012500012D5400703D5606840F4E06060602878EC
:10126000000703D5606840F4605060606068A9685A
:1012700020F0F000084360602878C00728D0686834
:10128000012810D02168022810D0890700292EDA01
:10129000616821F0030101436160FFF723FF80468D
:1012A00041F288390DE021688903EFE78901EDE714
:1012B000FFF718FFA0EB0801494502D90320BDE85C
:1012C000F0876068696800F00C00B0EB810FEFD127
:1012D000306800F00700B8420BD9306820F00700F2
:1012E00038433060306800F00700B84201D0012078
:1012F000E5E72878400705D56068E96820F4E060F4
:10130000084360602878000706D56068296920F4E2
:10131000605040EAC100606000F038F86168084A37
:10132000C1F30311515CC8400649086006480068D3
:10133000FFF7F8FE0020C2E7002002400010024044
:1013400016340008480000204000002004480549E9
:1013500000684968044AC1F30221515CC8407047E3
:1013600048000020001002402634000804480549C7
:1013700000684968044AC1F3C221515CC840704703
:101380004800002000100240263400080E4A516830
:101390000E4801F00C03042B11D0082B0FD10C4880
:1013A000C1F38343C903C05C0AD55168084AC1F33D
:1013B0004041921E515C054A5043B0FBF1F070472A
:1013C00004494843704700000010024000127A00B0
:1013D0000634000800093D002DE9F84F040070D0E4
:1013E0002078C04DC00749D06868C0F3810001284B
:1013F00007D06868C0F38100022809D16868C0037B
:1014000006D52868800339D560680028E7D035E024
:101410006068B0F5803F0BD010B1B0F5A02F11D0AF
:10142000286820F480302860286820F4802002E0BA
:10143000286840F480302860606890B1FFF752FE61
:1014400006460AE0286840F480202860F0E700BFE4
:10145000FFF748FE801B642873D828688003F7D5FF
:101460000CE0FFF73FFE064605E000BFFFF73AFE3F
:10147000801B6428F0D828688003F7D420789A4E1F
:1014800080074FF001094FF0000839D5686810F067
:101490000C0F07D06868C0F38100022809D1686882
:1014A000C00306D42868800714D52069012808D114
:1014B00010E02069B0B1C6F80090FFF713FE0746B0
:1014C00005E00AE1FFF70EFEC01B0228C4D8286819
:1014D0008007F7D52868616920F0F80040EAC1006C
:1014E00028600DE0C6F80080FFF7FCFD074604E029
:1014F000FFF7F8FDC01B022823D828688007F7D41F
:10150000207800072CD57948A169D9B1C0F800909E
:10151000FFF7E8FD074604E0FFF7E4FDC01B0228E3
:101520000FD8686A8007F7D571484FF4FA51006800
:10153000B0FBF1F0009000BF0098411E0091FAD27C
:101540000EE080E0C0F80080FFF7CCFD074604E025
:10155000FFF7C8FDC01B022875D8686A8007F7D45A
:101560002078400760D5E8690027C00008D4E86902
:1015700040F08050E861E869012700F08050009059
:101580005C480168C90513D40168834641F4807141
:101590000160FFF7A7FD824606E000BFFFF7A2FD4E
:1015A000A0EB0A0064284ED8DBF80000C005F5D592
:1015B000E06801280AD008B1052813D0286A20F075
:1015C00001002862286A20F0040002E0286A40F046
:1015D00001002862E06841F2883B98B1FFF782FD84
:1015E00082460BE0286A40F004002862EEE700BF64
:1015F000FFF778FDA0EB0A0159455AD8286A800701
:10160000F6D50CE0FFF76EFD824605E0FFF76AFDB8
:10161000A0EB0A0159454CD8286A8007F6D41FB1BF
:10162000E86920F08050E861E06988B36968C1F337
:101630008101022944D00228C6F8608004D0FFF757
:1016400051FD044638E034E0FFF74CFD074604E066
:10165000FFF748FDC01B02282BD828688001F7D46B
:10166000206AB0F5803F05D16868A16820F4003099
:1016700008436860D4E908010843696821F47411DB
:1016800008436860C6F86090FFF72CFD044606E04A
:1016900025E000BFFFF726FD001B022809D82868B7
:1016A0008001F7D51BE000BFFFF71CFD001B0228DF
:1016B00002D90320BDE8F88F28688001F4D40EE039
:1016C0000128F7D06868226A00F48031914204D181
:1016D000616A00F47010884201D00120EAE700201E
:1016E000E8E700000010024000004242800442424D
:1016F000480000200070004010B5401EB0F1807F0F
:1017000001D3012010BD4FF0E02460610F2160176C
:1017100001F029FB0020A06107202061002010BDFE
:101720007047704770B590F83C20012A26D00124FC
:1017300080F83C40022280F83D2003685A689D688A
:1017400022F070060A6832435A600D4B02689A42D2
:1017500008D0B2F1804F05D00A4B9A4202D00A4B12
:101760009A4204D1496825F080031943916080F8BA
:101770003D40002180F83C10084670BD022070BD3D
:10178000002C0140000400400008004010B5040097
:1017900003D094F83D0010B107E0012010BD0020F7
:1017A00084F83C00204600F01FF8022084F83D0039
:1017B000211D206801F0DAF8012084F8460084F841
:1017C0003E0084F83F0084F8400084F8410084F82B
:1017D000420084F8430084F8440084F8450084F80B
:1017E0003D00002010BD000008B5154A01681548ED
:1017F00091420ED1816941F40061816180690022CA
:1018000000F40060009011461920FFF7D7FC192062
:1018100010E0B1F1804F11D1C16941F00101C16106
:10182000C069002200F00100009011461C20FFF763
:10183000C5FC1C20BDE80840FFF7B2BC08BD000095
:10184000002C01400010024090F83D10012901D009
:1018500001207047022180F83D100168CA6842F0FB
:101860000102CA6000680B49884208D0B0F1804F7D
:1018700005D00949884202D00849884204D18168CC
:1018800001F00701062903D0016841F00101016060
:1018900000207047002C0140000400400008004078
:1018A00070B5044690F83C000025012817D00126A9
:1018B00084F83C60022084F83D002068826822F0B1
:1018C000770222F47F4282600868502838D00DDC0D
:1018D00020284FD005DC90B3102811D14AE0022017
:1018E00070BD302846D040280AD13BE060282FD078
:1018F00070280DD0B0F5805F03D0B0F5005F12D036
:10190000012584F83D60002084F83C00284670BD25
:10191000CB68D1E90121206801F064F82068816872
:1019200041F0770109E0CB68D1E90121206801F09D
:1019300059F82068816841F480418160E1E719E04D
:10194000CA684968206801F05FF85021206806E005
:10195000CA684968206801F068F86021206801F0D1
:101960004BF8CEE7CA684968206801F04DF840217D
:101970002068F4E7226801461046F0E770472DE939
:10198000F04104460068C66805694FF00007A907E2
:1019900013D5B10711D5F91E016101202077206808
:1019A00080698007204602D0FFF7E8FF04E000F0DE
:1019B0007EF8204600F07CF82777680716D5700778
:1019C00014D521686FF00400086102202077206898
:1019D000806910F4407F204602D0FFF7CFFF04E07B
:1019E00000F065F8204600F063F82777280715D542
:1019F000300713D521686FF00800086104202077B4
:101A00002068C0698007204602D0FFF7B7FF04E0D6
:101A100000F04DF8204600F04BF82777E80616D581
:101A2000F00614D521686FF01000086108202077B7
:101A30002068C06910F4407F204602D0FFF79EFF67
:101A400004E000F034F8204600F032F82777E80789
:101A500008D0F00706D021686FF001000861204629
:101A600000F028F8280608D5300606D521686FF062
:101A7000800008612046FFF753FE680608D570060F
:101A800006D521686FF040000861204600F038F864
:101A9000A8060AD5B00608D521686FF020000861B5
:101AA0002046BDE8F041FFF73CBEBDE8F08170473D
:101AB0007047000010490068096888421BD10F4830
:101AC000018A491C0182818A491C8182418A491C00
:101AD0004182C18A4EF66022914207D241780229A2
:101AE00004D0EE2902D0C18A491CC1820121817033
:101AF000C170FEF79DBF70478001002008000020E4
:101B00007047704770470000F8B5016804460868E0
:101B1000CA684B6910F00F0F4FF0000559D003F061
:101B2000010602F49077374365D0C10705D0D1058F
:101B300003D5616C41F001016164410705D5D90706
:101B400003D0616C41F002016164810705D5D907BA
:101B500003D0616C41F004016164010707D502F014
:101B60002001314303D0616C41F008016164616C74
:101B700000293AD0800604D5900602D5204600F010
:101B8000D1FF20684069616CC0F38010090700D460
:101B900060B3204600F063FF20684069400621D50D
:101BA0002068143050E8001F21F0400140E8001286
:101BB000002AF5D1E06BA8B16D494163E06BFFF7F6
:101BC0007FF8002811D0E06B416B01B0BDE8F04018
:101BD000084783060FD593060DD52046BDE8F8408B
:101BE00000F0A0BF2046FFF78DFFF8BD2046FFF7AD
:101BF00089FF6564F8BD266B2023012E7CD1C606C3
:101C00007AD5D60678D508684868009048694FF0BC
:101C10000206400640D5E16B086840680004000CED
:101C2000E8D0A28D8242E5D9E085886920282DD0B0
:101C300020680C3050E8001F21F4807140E8001249
:101C4000002AF5D12068143050E8001F21F001016E
:101C500040E80012002AF5D12068143050E8001F37
:101C600021F0400140E80012002AF5D184F842300A
:101C7000256320680C3050E8001F21F0100140E877
:101C80000012002AF5D1E06BFEF7F6FF6663A08D27
:101C9000E18D401A81B22AE0A08DE18D401A81B217
:101CA000E08D0028A6D00029A4D022680C3252E88A
:101CB000000F20F4907042E80007002FF5D1206853
:101CC000143050E8002F22F0010240E80027002FD6
:101CD000F5D184F84230256320680C3050E8002F9D
:101CE00022F0100240E80023002BF5D16663204665
:101CF000FFF707FFF8BDFFE705062BD5150629D529
:101D000094F841002128F5D1A068B0F5805F01D199
:101D10002069B0B1206A411C2162216800784860C6
:101D2000E08C401E0004000CE084E3D12068C16810
:101D300021F08001C1602068C16841F04001C160AC
:101D4000D8E7206A0088C0F308004860206A801C39
:101D50002062E5E74006CDD55006CBD5CA682046BF
:101D600022F04002CA6084F8413000F023F9C1E754
:101D70004F2A000870B5040004D094F841000025F3
:101D800010B106E0012070BD84F84050204600F0FC
:101D900023F8242084F841002068C16821F4005110
:101DA000C160204600F020FF2068016921F49041C5
:101DB00001612068416921F02A0141612068C16800
:101DC00041F40051C1606564202084F8410084F82A
:101DD00042006563002070BD70B586B00024009499
:101DE00001940294039403682E482D4E022103228D
:101DF0000515B34226D1836943F480438361836927
:101E000003F480430493836943F00403836180698E
:101E1000254E00F0040004900802CDE90001039271
:101E200069463046FFF75CF8CDE900546946304614
:101E30000294FFF755F8002211462520FFF7BEF95E
:101E4000252028E0194EB34227D1C36943F48023EB
:101E5000C361C36903F480230493836943F00803D7
:101E600083618069CDE9005100F00800CDE90320CD
:101E70000F4D69462846FFF733F8E814CDE9000412
:101E8000694628460294FFF72BF8002211462720C6
:101E9000FFF794F92720FFF783F906B070BD000023
:101EA0000038014000100240000801400048004096
:101EB000000C014090F84230202B01D002207047E6
:101EC00021B11AB10023036300F0EABE012070477C
:101ED00010B5044600680B49884205D10A4800F055
:101EE00067FA094800F0ECFA08492068884207D1EF
:101EF000074800F0DBFDBDE81040054800F030BFAA
:101F000010BD0000004800404C0000200038014097
:101F1000A40000202DE9F843044690F841009846BB
:101F200016460D46202802D00220BDE8F88385B170
:101F30007EB100206064212084F84100FFF7D2F8D0
:101F4000A6848146E684A0682027B0F5805F02D091
:101F500003E00120E9E7206910B12E4600250EE0DC
:101F600000260CE08021204600F0B5FEA8B9C6B1DD
:101F700016F8010B21684860E08C401EE084E08C7C
:101F80004B464FF00002CDF800800028EAD14FF018
:101F90004001204600F09FFE40B184F841700320CC
:101FA000C3E735F8020BC0F30800E3E784F841709B
:101FB0000020BAE77047FEE7AE2100F8011B0021C0
:101FC00001604160816078210170417081707047CB
:101FD0002DE9F04186B00024374800940194029422
:101FE0000394816941F010018161816901F0100160
:101FF0000491816941F020018161816901F0200132
:102000000491816941F004018161816901F0040159
:102010000491816941F0080181618069274F00F0D6
:1020200008004FF400550490002229463846FFF777
:1020300054F8DFF88C8000224BF2F4314046FFF771
:102040004CF80095022601250396CDE90154694616
:102050003846FEF745FF41F6FF008DE83100194F85
:1020600069463846FEF73CFF44F20B008DE831002C
:1020700069464046FEF734FF0420CDE90005032001
:10208000CDE9024069464046FEF72AFF4BF2F030A8
:10209000CDE90005CDE9024669464046FEF720FF3E
:1020A0004FF40140CDE90004694638460294FEF73A
:1020B00017FF06B0BDE8F08100100240001001409B
:1020C000000C01400008014010B586B000241748FC
:1020D00000940194029403940494134905940160BC
:1020E0004721C0E901144FF6FF71C0E903144461B0
:1020F0008461FFF74BFB08B172B6FEE74FF48050E6
:10210000009069460948FFF7CBFB08B172B6FEE7BD
:10211000049404A905480594FFF704FB002801D0A6
:1021200072B6FEE706B010BD002C01403801002059
:1021300010B586B0002416480094019402940394CC
:1021400004944FF08041059401604721C0E90114D7
:1021500040F2E731C0E903148461FFF717FB08B1CF
:1021600072B6FEE74FF48050009069460848FFF7CA
:1021700097FB08B172B6FEE7049404A904480594DD
:10218000FFF7D0FA002801D072B6FEE706B010BD06
:1021900080010020FEE7FEE77047000070B5816215
:1021A000096804466FF0400008600025257584F832
:1021B0005450E5752576A575A576E5832584657566
:1021C00084F85550A58384F82250AB206076BC205B
:1021D00084F856000A212046FEF711F9C4F80A5087
:1021E000C4F80E5065820A2104F12C00FEF707F9AD
:1021F0000A2104F14000FEF702F96B4D0121284647
:10220000FEF75EFF00287CD05FF0000094F82410F9
:10221000084384F8240002212846FEF751FF0028D5
:1022200070D0002094F8241041EA400084F8240083
:1022300004212846FEF744FF002865D05FF0000027
:1022400094F8241041EA800084F8240008212846EC
:10225000FEF736FF002873D05FF0000094F82410DA
:1022600041EAC00084F8240010212846FEF728FF28
:10227000002868D05FF0000094F8241041EA0010B4
:1022800084F8240020212846FEF71AFF00287CD07D
:102290005FF0000094F8241041EA401084F8240014
:1022A00040212846FEF70CFF68B3002094F8241064
:1022B00041EA801084F8240080212846FEF700FFC0
:1022C000E8B3002094F82410384E41EAC01084F896
:1022D000240001213046FEF7F3FE90B35FF00000CA
:1022E00094F82310084384F8230002213046FEF7B7
:1022F000E7FE38B35FF0000094F8231041EA400095
:1023000003E036E039E042E039E084F823004FF49E
:1023100000612846FEF7D4FE70B3002094F8231025
:1023200041EA800084F823004FF480512846FEF7EC
:10233000C7FE70B35FF0000094F8231004E029E0BA
:102340001FE029E02AE01EE041EAC00084F82300F3
:10235000B4F82300012240BAE08404F11701A06A16
:10236000FFF7A8FD3046BDE8704000220421FEF7CB
:10237000B4BE01204AE708E012E0012052E7012044
:102380005EE701206AE7012076E7012082E701206D
:102390008CE707E0012095E70120A1E70120ABE7EA
:1023A0000120BBE70120C7E700080140000C014005
:1023B0002DE9F04104460125807D2E4628B1384F95
:1023C000012813D0022862D130E0E07D617E88428E
:1023D00002D12070A67507E094F85610884256D1B5
:1023E00084F82C000220A075267650E0217EE07D46
:1023F0006054207E092805D0401CC0B220760928F0
:1024000021D844E00A212046FEF709F9A076617838
:1024100094F82320914216D1A17894F82420914277
:1024200011D1617A81420ED1267528E0237E04F114
:102430002C02E17D9954207E132809D0401CC0B2A3
:102440002076132823D90025204600F02BF824E01D
:1024500014211046FEF7E3F8A07694F82D1094F8B6
:1024600023209142EFD194F82E1094F82420914229
:10247000E9D194F83F108142E5D184F85460E08BB3
:102480000122401CE08304213846FEF726FE01228B
:1024900004F11701A06AFFF70DFD2846BDE8F081A1
:1024A000000C014000210175C175017680F85410BF
:1024B0008175836A00F1170101221846FFF7FABC03
:1024C0002DE9F0410446007D274F284E01250128C3
:1024D00033D13D70264900200880B4F80310254A06
:1024E00049BA118032782449022A02D1627902B9AC
:1024F00008706079214A3070A0791070204AE07924
:102500001070607EA07294F82300E07294F82400AA
:1025100020731C48007860730878A073FE20E07375
:1025200020746074A0740A2104F10A00FEF777F8A1
:10253000E07465752046FFF7B5FF94F85400012854
:102540000ED13D7010490020221892F82F200A5415
:10255000401CC0B20C28F7D3CF2030700B48057058
:102560000120BDE8F08100001500002009000020D6
:102570001E0000201600002038000020120000205D
:102580001100002008000020100100203900002068
:102590002DE9F0410446407D00256F1EDFF888805C
:1025A000012815D1657504F10A013B460A220E4641
:1025B000A06AFFF7AFFC002204214046FEF78DFD24
:1025C000E0220A213046FDF712FFA08B401CA083B9
:1025D00094F85500012802D00020BDE8F08184F86D
:1025E000555004F140013B4614220D46A06AFFF706
:1025F00091FC002204214046FEF76FFDA08BE022F3
:10260000401CA08314212846FDF7F1FEBFF34F8F35
:1026100006480168064A01F4E06111430160BFF316
:102620004F8F00BFFDE70000000C01400CED00E003
:102630000400FA0570B518488078012807D00120F9
:1026400000F0D2F8BDE870400220FEF785BB002400
:1026500001E0202C05D244F0800000F0C5F8802075
:1026600007E0A4F12000C0B240F0800000F0BCF808
:10267000882000F0B9F80025002000F0D5F80020EF
:1026800000F0D2F86D1CEDB2082DF5D3641CE4B255
:10269000402CDED370BD0000000000202DE9F04189
:1026A0000646002401E0202C18D2002544F08008C2
:1026B000404600F099F845F0800000F095F8680079
:1026C00000EB0417F05D00F0AFF8B819407800F0A7
:1026D000ABF86D1CEDB2082DEAD31BE0A4F120008D
:1026E000002540F0800800BF08F0FF0000F07CF8F3
:1026F00045F0880000F078F8680000EB0417F05D02
:1027000000F092F8B819407800F08EF86D1CEDB228
:10271000082DE9D3641CE4B2402CC4D3BDE8F08199
:1027200010B50F4C012807D0002804D1302000F04C
:102730005BF80020A07010BD302000F055F801209B
:10274000FEF70AFB342000F04FF80120FEF704FBEF
:10275000362000F049F80120FEF7FEFA0120E9E7F3
:102760000000002070B51F4D4FF480440022214628
:102770002846FEF7B2FC0A20FEF7EEFA01222146B7
:102780002846FEF7AAFC3220FEF7E6FA302000F0D9
:102790002BF86E2000F0F8FA302000F025F8282001
:1027A00000F0F2FA082000F01FF86E2000F0ECFABA
:1027B000012000F019F80C20FEF7CEFA062000F0F8
:1027C00013F80120FEF7C8FA0C2000F00DF80120E4
:1027D000FEF7C2FA022000F007F8BDE870400120C1
:1027E000FEF7BABA000C014070B501220D4E044646
:1027F000150329463046FEF770FCF82000F054F827
:1028000004F0F00000F050F82007000E00F04CF843
:10281000322000F0B9FA29463046BDE87040002267
:10282000FEF75BBC000C014070B501220D4E044662
:10283000150329463046FEF750FCFA2000F034F824
:1028400004F0F00000F030F82007000E00F02CF843
:10285000322000F099FA29463046BDE87040002247
:10286000FEF73BBC000C014010B5144641F080035C
:1028700070B1012804D0022805D0032808D105E052
:1028800041F0900304E041F0880301E041F0980337
:10289000D8B2FFF7A9FF02E0641CFFF7C5FF20785C
:1028A0000028F9D110BD70472DE9F0410F4F0024E9
:1028B00005464FF400487E1405FA04F0000601D5E1
:1028C000012200E0002241463846FEF706FC0022C5
:1028D00031463846FEF701FC012231463846FEF704
:1028E000FCFB641C082CE7DBBDE8F081000C014018
:1028F000FEF7FEBB30B58FB028216846FDF77FFD9F
:1029000014210AA8FDF77BFD01210804CDE9001080
:102910000024029402250491CDE907504FF4E01001
:1029200009906846FEF758FD08B172B6FEE70F2021
:10293000CDE90A054FF48060CDE90C4002210AA8D8
:102940000E94FEF76DFC002801D072B6FEE70FB0C2
:1029500030BD70470148FFF712B800003801002071
:102960000148FFF70CB8000080010020F0B50268B4
:10297000194B1A4C1A4D4FF08047984205D0B84277
:1029800003D0A04201D0A84203D122F070064A68C9
:102990003243984205D0B84203D0A04201D0A842A9
:1029A00003D122F44074CA6822434C6922F08002A9
:1029B000224302608A68C2620A688262984201D138
:1029C00009690163012141610169C90703D00169F6
:1029D00021F001010161F0BD002C01400004004024
:1029E0000008004010B5846842EA032224F47F44C2
:1029F0000A432243826010BD826822F070020A43BB
:102A000042F007018160704710B5036A046A24F040
:102A100001040462846924F0F00444EA021423F0FF
:102A20000A020A438461026210BD10B5036A046A97
:102A300024F010040462846923F0A00324F4704499
:102A400044EA023243EA01118261016210BD10B50D
:102A5000406A0021C185C184FFF754F810BD0168A8
:102A60000C3151E8002F22F4907241E80023002B32
:102A7000F5D10168143151E8002F22F0010241E83C
:102A80000023002BF5D1016B012909D101680C311C
:102A900051E8002F22F0100241E80023002BF5D16D
:102AA000202180F8421000210163704730B4417E3C
:102AB0000122A9B1012911D1C37E817EC154C37EF7
:102AC00000210B2B14D05B1CDAB2C2760B2A05D97D
:102AD000C1760176016041608160417630BC70470B
:102AE000817E037F9942F9D101704276C276F5E783
:102AF000C37A447FA34209D10276418C0122491C4A
:102B0000418430BC04210648FEF7E7BAC17601765D
:102B1000016041608160828C521C8284DDE700008C
:102B2000000C014008B590F84210222901D0022083
:102B300008BD82684FF480539A4201D1016921B1E6
:102B4000816A9A421BD04AB10AE00268816A5268DF
:102B5000C2F308020A80816A891C08E0026972B126
:102B60000268526802F07F020A70816A491C816221
:102B7000C18D491E0904090CC18503D01BE0026800
:102B80005268F1E70168CA6822F02002CA60016851
:102B9000CA6822F48072CA6001684A6922F00102A0
:102BA0004A61202180F8421000214163026B012A12
:102BB00003D0FFF78DF9002008BD016301680C31D7
:102BC00051E8002F22F0100241E80023002BF5D13C
:102BD00001680A68D20602D50A6849680091818DA9
:102BE000FEF78FFFE7E7000070B504460068016953
:102BF000E26821F44051114301612169A068084352
:102C0000616908432168CA6841F20C639A43024330
:102C1000CA6020684169A26921F440711143416191
:102C20001E492068884202D1FEF7A0FB01E0FEF7B2
:102C30008DFB00EBC00101EB001260686421800095
:102C4000B2FBF0F3B3FBF1F36FF018067343B2FB82
:102C5000F0F5B2FBF0F605EB8305322303EB051527
:102C6000B5FBF1F5B6FBF1F605F0F00505EB061541
:102C7000B2FBF0F6B2FBF0F0B0FBF1F06FF018022F
:102C8000504306EB800003EB0010B0FBF1F021682D
:102C900000F00F002844886070BD0000003801403B
:102CA00081628285C28500214164222180F8421020
:102CB000016921B10168CA6842F48072CA60016882
:102CC0004A6942F001024A610068C16841F020018E
:102CD000C160002070472DE9F843984617460D461D
:102CE0000446089E24E0701C22D0FEF7FBF9A0EBFE
:102CF0000800B0421AD8CEB12068C168490717D57C
:102D0000802D15D0402D13D00168C94309070FD479
:102D100001680025406800902046FFF7A0FE0820CB
:102D2000606484F840500120BDE8F8830320FBE78D
:102D30002068006835EA000004D00020B842D2D0F4
:102D40000020F1E70120F9E70148FEF7DDBE0000B1
:102D5000C80100200148FEF7D7BE00001002002085
:102D600001207047FEE70907090E002804DB00F187
:102D7000E02080F80014704700F00F0000F1E02020
:102D800080F8141D70470000044900220B685A6245
:102D900009684A6A8242FCD370470000380100206B
:102DA000FEF7AEF9FFF7A6FDFFF712F9FFF78CF972
:102DB00059485849002401604FF4E131C0E9011439
:102DC0000C25C460C0E904458461C461FEF7D2FFEC
:102DD00008B172B6FEE7FFF7ABF94F484F494830EC
:102DE00001604FF46141C0E90114C460C0E90445C9
:102DF0008461C461FEF7BEFF08B172B6FEE7484DBC
:102E000000224FF400712846FEF767F900221021D6
:102E10002846FEF762F9012220212846FEF75DF9D7
:102E2000AE15002231462846FEF757F90022402110
:102E30002846FEF752F9002280212846FEF74DF978
:102E400035493848FFF7AAF933489038FEF7FCFCBB
:102E5000FFF788FC0120FFF763FC3348FFF71EFCF7
:102E60004FF47A742046FDF777FF0020FFF758FCF7
:102E7000FFF7E0FB2DA13148FDF7BEF930A1334843
:102E8000FDF7BAF9274832A1C28C3348FDF7B4F9EF
:102E9000324A00210320FFF7E7FC2F4A00210220DD
:102EA000FFF7E2FC294A00210120FFF7DDFC0021A9
:102EB000224A0846FFF7D8FCFDF710FE16484838AE
:102EC000FEF7C2FC002269142548FEF706F900222D
:102ED00031462846FEF701F9002280212846FEF7F8
:102EE000FCF8002240212846FEF7F7F800222021B6
:102EF0002846FEF7F2F800BFFDF77AFEFDF734FE34
:102F00000848FFF745FB2046FDF798FBFDF774FBEB
:102F1000F2E7000000380140C801002000480040EE
:102F2000000C01404C000020642F0008594F445908
:102F30002058494E204348414F000000D000002057
:102F40004D414348204D414E47000000E000002025
:102F500049443A2025640000F000002000010020D0
:102F60000010014000000000000000000000000010
:102F70000000000000000000000000000000000051
:102F80000000000000000000000000000000000041
:102F90000000000000000000000000000000000031
:102FA0000000000000000000000000000000000021
:102FB0000000000000000000000000000000000011
:102FC0000000000000000000000000000000000001
:102FD00000000000000000000000000000000000F1
:102FE00000000000000000000000000000000FE0F2
:102FF00000000000000000000000000000000FE0E2
:1030000000000000000000000000000000000FE0D1
:1030100000000000000000000000000000000FE0C1
:1030200000000000000000000000000000000FE0B1
:1030300000000000000000000000000000000FE0A1
:1030400000000000000000000000000000000FE091
:1030500000000000000000000000000000000FE081
:1030600000000000000000000000000000000FE071
:1030700000000000000000000000000000000FE061
:1030800000000000000000000000000000000FE051
:1030900000000000000000000000000000000FE041
:1030A00000000000000FC001F801FF00007FCFE723
:1030B000E000F800000FE001F807FFC000FFFFE7A5
:1030C000E001FC00000FE001F81FFFE003FFFFE755
:1030D000E001FC00000FE001F83FFFF807FFFFE709
:1030E000E001FC00000FE001F87FFFF80FFFFFE7B1
:1030F000E001FC00000FE001F87FFFFC0FFFFFE79D
:10310000E001FC00000FE001F8FF83FE1FF07FE705
:10311000E001FC00000FE001F8FE01FE1FC03FE7E8
:10312000E001FC00000FE001F9FC00FE3F801FE71A
:10313000E001FC00000FE001F9FC007F3F800FE799
:10314000E001FC00000FE001F9F8007F3F000FE70D
:10315000E001FC00000FE001F9F8003F3F0007E745
:10316000E001FC00000FE001F9F80000000007E7B3
:10317000E001FC00000FE001F9F8007F3F000FE7DD
:10318000E001FC00000FE003F9FC007F3F800FE747
:10319000F001FC000007E003F9FC007F3F800FE72F
:1031A000F001FC000007F007F9FE00FE3FC01FE33E
:1031B000F803FC000007F80FF8FF01FE1FE03FE3F3
:1031C000FC07FC000003FFFFF8FFFFFC1FFFFFE10F
:1031D000FFFFFC000003FFFFF87FFFFC0FFFFFE194
:1031E000FFFFFC000001FFFFF83FFFF807FFFFE0D3
:1031F000FFFFFC000000FFFFF81FFFF003FFFFE0F0
:103200007FFFFC0000007FFFF80FFFE001FFFFE001
:103210003FFFFC0000001FFDF807FF8000FFE7E014
:103220001FFDFC00000007F1F800FE00001F83C036
:1032300003F9FC00000FC001F800000000000007C7
:10324000E001FC00000FE003F800000000000007B0
:10325000E001FC000007E003F800000000000007A8
:10326000F001F8000007F007F00000000000000384
:10327000F003F8000007F80FF00000000000000362
:10328000F807F8000003FE1FF00000000000000334
:10329000FE1FF0000003FFFFE0000000000000013F
:1032A000FFFFF0000001FFFFC00000000000000071
:1032B000FFFFE0000000FFFFC00000000000000072
:1032C000FFFFC00000007FFF0000000000000000C2
:1032D0007FFF800000003FFE0000000000000000B3
:1032E0001FFF000000000FF80000000000000000B9
:1032F00007FC0000000000000000000000000000CB
:1033000000000000000000000000000000000000BD
:1033100000000000000000000000000000000000AD
:10332000000000000000000000000000000000009D
:10333000000000000000000000000000000000008D
:10334000000000000000000000000000000000007D
:10335000000000000000000000000000000000006D
:10336000000000000000000000000000000000005D
:10337000000000000000000000000000000000004D
:10338000000000000000000000000000000000003D
:10339000000000000000000000000000000000002D
:1033A000000000000000000000000000000000001D
:1033B000000000000000000000000000000000000D
:1033C00000000000000000000000000000000000FD
:1033D00000000000000000000000000000000000ED
:1033E00000000000000000000000000000000000DD
:1033F00000000000000000000000000000000000CD
:1034000000000000010202030405060708090A0B78
:103410000C0D0E0F10100000000000000000010253
:10342000030406070809000000000102030400006D
:1034300050340008000000204C0000002801000863
:103440009C3400084C0000208C0800004401000857
:1034500040800000000000000000000000000000AC
:10346000000000000000000000000000000061EA11
:10347000000000000000000044433A20000000006B
:10348000000000000000000000000000010000003B
:0C349000100000000000000000127A0094
:04000005080000ED02
:00000001FF
