:020000040800F2
:10000000380A0020910100080B220008292000086E
:100010000922000851060008852D00080000000094
:10002000000000000000000000000000532800084D
:10003000F1060008000000000D2200089D280008BD
:10004000AB010008AB010008AB010008AB010008E0
:10005000AB010008AB010008AB010008AB010008D0
:10006000AB010008AB010008AB010008AB010008C0
:10007000AB010008AB010008AB010008AB010008B0
:10008000AB010008AB010008AB010008AB010008A0
:10009000AB010008AB010008AB010008AB01000890
:1000A000AB01000801290008AB010008AB01000802
:1000B0000D290008AB010008AB010008AB010008E6
:1000C000AB010008AB010008AB010008AB01000860
:1000D000AB010008F52C0008AB010008012D000859
:1000E000AB010008AB010008AB01000800F002F80A
:1000F00000F03FF80AA090E8000C82448344AAF183
:100100000107DA4501D100F034F8AFF2090EBAE880
:100110000F0013F0010F18BFFB1A43F0010318473B
:100120001C3400003C340000103A24BF78C878C169
:10013000FAD8520724BF30C830C144BF04680C60ED
:10014000704700000023002400250026103A28BF35
:1001500078C1FBD8520728BF30C148BF0B60704739
:10016000642900F09180002070471FB51FBD10B5B5
:1001700010BD00F032FA1146FFF7F7FF02F020FE43
:1001800000F050FA03B4FFF7F2FF03BC00F058FA96
:100190000948804709480047FEE7FEE7FEE7FEE71B
:1001A000FEE7FEE7FEE7FEE7FEE7FEE70448054957
:1001B000054A064B70470000FF280008ED000008C4
:1001C00038040020380A00203806002038060020B5
:1001D000B2F120030AD5C2F1200320FA02F001FA9D
:1001E00003F321FA02F140EA0300704721FA03F019
:1001F0004FF00001704700000FB41CB5074B06AA72
:100200007B4469460090059800F0ADF900206946EE
:1002100000F0BCF91CBC5DF814FB00008903000071
:100220002DE9F0410E460446002020622046E16898
:10023000884730B3252805D0D4E901219047206AAA
:10024000401CF2E7E168204600278847050018D0E7
:10025000A5F14100192802D820354FF40067324635
:10026000294620462760FFF77BFF40B1012804D0D4
:10027000F61D26F007060836D8E7361DD6E72846CD
:10028000DAE7206ABDE8F0812DE9F0410646002456
:1002900010687529314616A510D0AFF300800028EC
:1002A00002DA404213A507E031688A0701D512A59A
:1002B00002E0490704D511A5012401E0AFF3008055
:1002C00000210A2206F1240709E0B0FBF2FCB0FB92
:1002D000F2F302FB1C00303078541846491C002809
:1002E000F3D123462A463046BDE8F04100F0DDB8A0
:1002F000000000002D0000002B0000002000000086
:1003000040EA010310B59B070FD1042A0DD310C892
:1003100008C9121F9C42F8D020BA19BA884201D9E4
:10032000012010BD4FF0FF3010BD1AB1D30703D02C
:10033000521C07E0002010BD10F8013B11F8014BE2
:100340001B1B07D110F8013B11F8014B1B1B01D1FE
:10035000921EF1D1184610BD032A40F2308010F0F1
:10036000030C00F0158011F8013BBCF1020F624450
:1003700098BF11F801CB00F8013B38BF11F8013BE1
:10038000A2F1040298BF00F801CB38BF00F8013B8E
:1003900011F0030300F02580083AC0F0088051F8FE
:1003A000043B083A51F804CBA0E80810F5E7121D09
:1003B0005CBF51F8043B40F8043BAFF30080D20728
:1003C00024BF11F8013B11F801CB48BF11F8012BF4
:1003D00024BF00F8013B00F801CB48BF00F8012B17
:1003E000704710B5203AC0F00B80B1E81850203AA1
:1003F000A0E81850B1E81850A0E81850BFF4F5AFC5
:100400005FEA027C24BFB1E81850A0E8185044BF4E
:1004100018C918C0BDE810405FEA827C24BF51F8BB
:10042000043B40F8043B08BF7047D20728BF31F8AF
:10043000023B48BF11F8012B28BF20F8023B48BF00
:1004400000F8012B704702F0FF0343EA032242EA5F
:10045000024200F0A2B84FF0000200B513469446E5
:100460009646203922BFA0E80C50A0E80C50B1F10C
:100470002001BFF4F7AF090728BFA0E80C5048BF20
:100480000CC05DF804EB890028BF40F8042B08BFBE
:10049000704748BF20F8022B11F0804F18BF00F8BA
:1004A000012B70477047704770472DE9F0470D46A4
:1004B00099469246044600F124080168880604D54E
:1004C000E06921F01001216000E00120A84201DD77
:1004D000471B00E00027A1697A1902EB0900081AFE
:1004E000A0612078C00602D42046AFF30080002629
:1004F00008E0D4E901211AF806009047206A401C60
:10050000761C20624E45F4DB2078C0060AD52046D2
:10051000AFF3008006E0D4E9012130209047206A43
:10052000401C2062381EA7F10107F4DC07E0D4E983
:10053000012118F805009047206A401C2062281EFF
:10054000A5F10105F3DC2046AFF30080207800061A
:1005500002D50220BDE8F0870120FBE701694A1CB3
:1005600002610878704700B58FB0CDE901310021F4
:10057000059105497944CDE9031011466846FFF716
:100580004FFE0FB000BD0000E5FFFFFF0A6802F854
:10059000010B0A6070474FF000020429C0F012807E
:1005A00010F0030C3FF459AFCCF1040CBCF1020F76
:1005B00018BF00F8012BA8BF20F8022BA1EB0C01FB
:1005C000FFF74BBF5FEAC17C24BF00F8012B00F8A6
:1005D000012B48BF00F8012B7047754600F02CF83E
:1005E000AE4605006946534620F00700854618B020
:1005F00020B5FFF7DBFDBDE820404FF000064FF0CF
:1006000000074FF000084FF0000B21F00701AC4647
:10061000ACE8C009ACE8C009ACE8C009ACE8C00966
:100620008D46704710B50446AFF300802046BDE804
:100630001040FFF7A7BD000000487047D803002016
:1006400001491820ABBEFEE7260002007047704744
:10065000FEE70346002010B50246491E04E09C5CFC
:10066000521C2044C0B2D2B28A42F8DB10BD000056
:100670002DE9F04102F04CFB1A4C01251A4F04F110
:100680002C0104F140064E2816D014223046FFF704
:10069000A8FE0320EE212218401CC0B282F84010B0
:1006A0001328F8D314213046FFF7D3FF04F8530F73
:1006B000A5703D72BDE8F0810B4B04200B4A283336
:1006C00002EB000C1CF804CC03F800C0401CC0B2C4
:1006D0001028F5D314223046FFF783FE84F85550D6
:1006E000FD71E7E75C0000200800002020010020E9
:1006F0007047000070B57C4C0646208B0025B04248
:1007000072D3202210217948FFF79DFE77482022DE
:1007100010211030FFF797FE74482022102120305E
:10072000FFF791FE7148202210213030FFF78BFE39
:100730006E4A00213032032002F06CF86B4A00212F
:100740002032022002F066F8684A002110320120AF
:1007500002F060F80021654A084602F05BF8644840
:1007600064A1C28C6148FFF747FD607830B1012871
:100770001DD002280CD0EE2832D12CE05B48228A12
:100780005EA11030FFF738FD584860A1203025E009
:100790005648228A59A11030FFF72EFD53485DA11B
:1007A0002030FFF729FD6079D0B15DA10DE04F4801
:1007B000228A52A11030FFF71FFD4C485BA1203068
:1007C000FFF71AFD607958B15BA148483030FFF758
:1007D00013FD657104E045485BA11030FFF70CFD87
:1007E000E07910B1E57103E01BE0207A00B12572D9
:1007F0003E4A00213032032002F00CF83B4A00212F
:100800002032022002F006F8384A0021103201207E
:1008100002F000F80021354A084601F0FBFF25836D
:1008200070BDA079002848D0208B642845D3A571DD
:10083000202210212D48FFF706FE2C4820221021EF
:100840001030FFF700FE2948202210212030FFF74A
:10085000FAFD2648202210213030FFF7F4FD3EA19A
:100860002248FFF7C9FC21483BA11030FFF7C4FC28
:100870001E483EA12030FFF7BFFC1C483FA130308E
:10088000FFF7BAFC0021194A084601F0C3FF174AD6
:1008900000211032012001F0BDFF144A0021203256
:1008A000022001F0B7FF114A00213032032001F08D
:1008B000B1FFA6F5FA76268370BDE07910B1E57137
:1008C00032A104E0207A0028F6D0257233A107482F
:1008D0003030FFF791FC054ABDE87040303200210E
:1008E000032001F097BF000008000020E000002076
:1008F0005C00002049443A2025640000536F206CBE
:10090000756F6E673A202564200000004D616E67A8
:10091000204D6F004D616E6720446F6E67000000D0
:100920004E68616E206E7574204D6F004D616E676C
:1009300020646179000000004E68616E206E75745D
:1009400020446F6E670000004B686F6E67206B6518
:1009500074206E6F69000000202020202020207C61
:100960007C202020202020200000000020202020AB
:1009700020205C20202F202020202000202020204C
:100980002020205C2F20202020202000436F6E6636
:10099000696720537563636573732100436F6E66E7
:1009A0006967204572726F722100000006490020BD
:1009B000C8610648016941F004010161016941F023
:1009C0004001016170470000B80300200020024090
:1009D000064A0021D16106490A6942F002020A6111
:1009E0004861086940F0400008617047B803002082
:1009F00000200240044B0022DA61044A136943F0EC
:100A00000103136101807047B803002000200240F9
:100A100014480022C168CB06134904D5CA6942F0C4
:100A20000202CA611022C3685B0705D5CB6943F097
:100A30000103CB6142F00402C369DB0707D0CB6935
:100A400043F00403CB61C16921F00101C161A2F54A
:100A50008071013901D0C2607047C16921F0010184
:100A6000C161704700200240B803002070B5054600
:100A700000F032FB0646114C09E0681C07D025B196
:100A800000F02AFB801BA84201D9032070BDE0685A
:100A9000C007F2D1E068800601D52020E060E06860
:100AA000C00605D4E069C00702D1E068400703D55D
:100AB000FFF7AEFF012070BD002070BD0020024096
:100AC00010B586B0044600F0F1F90120CDE90240EE
:100AD00001900020009004A9684600F049F900F058
:100AE0009BF906B010BD000070B50D4CA07B00282E
:100AF00014D001220B4E55032946304600F0E7FA88
:100B0000A08B401C80B2A0830A2807D3002229466C
:100B1000304600F0DCFA0020A083A07370BD000016
:100B2000080000200010014010B50023521C05E011
:100B300030F813405B1C21F8024BDBB2B3EB520FD1
:100B4000F6D310BD0D22FFF7EFBF2DE9F041164699
:100B500007460D4600F0AAF90024761C09E02A8811
:100B600007EB44010023012000F060F9641CE4B2AB
:100B7000AD1CB4EB560FF2D3BDE8F04100F04CB918
:100B80000FB40D2210B503A9FFF7DFFF10BC5DF80D
:100B900014FB000070B586B01E4801F046FA1D49EE
:100BA0001D4E0D313046FFF7CDFF1A4C1B4D0D3455
:100BB0002078AE2824D03046FFF782FF322000F0A4
:100BC000C5F814480D221349007B8DF8000001A8D8
:100BD000FFF7C2FB0DF1040C30469CE80E00FFF756
:100BE000CFFF21463046FFF7ADFF0420211811F852
:100BF000031C2954401CC0B21028F7D306B070BDA6
:100C00000420211811F8031C2954401CC0B21028DC
:100C1000F7D3F3E72C01002000FC0008300000208F
:100C200010B54FF400410F4800F044FA0E49087126
:100C30008A782AB10022012804D0CA820A708A70F8
:100C4000087810BDC88A0123A0F59854883C06D0C6
:100C5000401C80B2C8820228F1D18B71EFE70B7083
:100C6000EDE70000000801400800002010B590F8F2
:100C700021100022022905D00421816380F8202060
:100C8000012010BD01680B6823F00E030B600168A2
:100C90000B6823F001030B6090F84030C46B012116
:100CA00001FA03F3636080F8211080F820201046D9
:100CB00010BD000010B590F821100024022903D0C7
:100CC0000421816301243DE001680A6822F00E02DC
:100CD0000A6001680A6822F001020A601A4A016883
:100CE000914201D1012121E0174A1432914201D1F0
:100CF00010211BE0144A2832914201D1891515E0D8
:100D0000114A3C32914201D189140FE00E4A50320F
:100D1000914202D14FF4803108E00B4A6432914293
:100D200002D14FF4801101E04FF08071064A083A79
:100D30005160012180F82110002180F82010416BC2
:100D400001B18847204610BD0800024070B5044636
:100D500000F0C2F90546601C02D004480078044443
:100D600000F0BAF9401BA042FAD370BD4C0000203D
:100D70002DE9F047054626480F460126017E012948
:100D80000FD00121814601762868DFF888804CF277
:100D90005034022808D0A2462046FFF767FEA8B1CB
:100DA00031E00220BDE8F0872046FFF75FFE08BB78
:100DB0000120FFF7FBFD2046FFF758FED8F8101082
:100DC000064621F00401C8F810101CE04FF0FF3077
:100DD0003860AC6811E02046FFF7FAFD5046FFF797
:100DE00045FED8F81010060021F00201C8F81010D6
:100DF00001D03C6007E004F58064D5E9020100EB16
:100E00008120A042E7D8002189F818103046C9E7B0
:100E1000B8030020002002400348016941F080012E
:100E20000161002070470000002002402DE9F05FC2
:100E300007461C4888460024017E15461E460129A7
:100E400009D00121814601764CF2503A5046FFF715
:100E50000DFE18B122E00220BDE8F09F012F02D064
:100E6000022F00D00427D346DFF83CA022012846F9
:100E70003146FFF7ADF981B208EB4400FFF7BAFD48
:100E80005846FFF7F3FDDAF8102022F00102CAF805
:100E9000102018B9641CE4B2BC42E7D3002289F8E0
:100EA0001820D9E7B803002000200240064900209E
:100EB0000A69120607D5054A4A60054A4A60096967
:100EC000090600D501207047002002402301674534
:100ED000AB89EFCD2DE9F84FDFF8B8910024A9F1E7
:100EE000040B23460F2709F1040AABF1040EC9E0F5
:100EF0000125A5402A40AA427DD1674ED1F804C001
:100F0000ACEB0608B44532D014DCBCF1030F3AD088
:100F100009DCBCF1000F2AD0BCF1010F1CD0BCF1E0
:100F2000020F31D11DE0BCF1110F17D0BCF1120F2F
:100F30002AD119E0B8F5881F19D006DCB8F5803F32
:100F400015D0B8F5801F1FD111E0B8F5001F0ED0E5
:100F5000B8F5041F18D10AE0CB6815E0CB681B1D5B
:100F600012E0CB6808330FE0CB680C330CE08B68E1
:100F70002BB1012B4FF0080303D0456104E004239B
:100F800002E0056100E00023FF2A01D8064601E0E7
:100F900000F104064FEA840501D9A5F12005D6F831
:100FA000008007FA05FC28EA0C0803FA05F548EA70
:100FB0000508C6F800804D68ED0062D5374DAE6972
:100FC00046F00106AE61AD6924F0030605F00105A7
:100FD0000095334D06EB050CDCF80850A607360FDC
:100FE00007FA06F825EA0805DFF8B880404503D17E
:100FF0004FF0000817E044E0DFF8AC80404502D134
:101000004FF001080FE0DFF8A480404502D14FF017
:10101000020808E0DFF89880404502D14FF003084D
:1010200001E04FF0040808FA06F848EA0508CCF891
:1010300008804D68D9F80060ED024D4601D5164391
:1010400000E096432E604D68DAF80060AD02554628
:1010500001D5164300E096432E604D68DBF8006032
:10106000AD035D4601D5164300E096432E604D6802
:10107000DEF80060ED03754601D5164300E09643A7
:101080002E60641C0D682A46E5407FF431AFBDE850
:10109000F88F000008040140000011100010024009
:1010A0000000014000080140000C01400010014018
:1010B000001401408068084000D001207047C268D9
:1010C00021EA02030A4043EA0241016170470AB182
:1010D000016170470904FBE7014880687047000020
:1010E0004C000020024881680278114481607047FA
:1010F0004C000020074810B5016841F01001016064
:10110000032000F075F80F2000F006F800F024F836
:10111000002010BD0020024070B50D4D04464FF474
:101120007A712878B1FBF0F00A490968B1FBF0F058
:1011300000F0DCFA48B9102C07D200222146501EDC
:1011400000F036F800206C6070BD012070BD00001A
:101150004C000020580000200C4808B5816941F07F
:1011600001018161816901F001010091C16941F0D2
:101170008051C161C06900F080500090044841680E
:1011800021F0E06141F00071416008BD00100240B3
:1011900000000140002809DB00F01F0201219140FE
:1011A0004009800000F1E020C0F800117047000005
:1011B000F0B40E4B1B680C46C3F30223C3F10705C2
:1011C000042D00D90425191D072901D2002300E0B0
:1011D000DB1E012606FA05F1491E214099409E407A
:1011E000761E16403143F0BC01F0CDBD0CED00E0A1
:1011F000064900F0070208684FF6FF03184040EA6E
:101200000220034A10430860704700000CED00E024
:101210000000FA052DE9F0470F46050061D0434E66
:10122000306800F00700B84209D2306820F00700AB
:1012300038433060306800F00700B84251D1286868
:101240003B4C810712D5400703D5606840F4E0604D
:1012500060602878000703D5606840F460506060E3
:101260006068A96820F0F000084360602878C00733
:1012700028D06868012810D02168022810D089077A
:1012800000292EDA616821F0030101436160FFF754
:1012900023FF804641F288390DE021688903EFE79A
:1012A0008901EDE7FFF718FFA0EB0801494502D9D6
:1012B0000320BDE8F0876068696800F00C00B0EBBF
:1012C000810FEFD1306800F00700B8420BD93068C9
:1012D00020F0070038433060306800F00700B84263
:1012E00001D00120E5E72878400705D56068E96866
:1012F00020F4E060084360602878000706D5606845
:10130000296920F4605040EAC100606000F038F8BC
:101310006168084AC1F30311515CC840064908607E
:1013200006480068FFF7F8FE0020C2E700200240F0
:101330000010024022350008580000205000002014
:101340000448054900684968044AC1F30221515C18
:10135000C840704758000020001002403235000895
:101360000448054900684968044AC1F3C221515C38
:10137000C840704758000020001002403235000875
:101380000E4A51680E4801F00C03042B11D0082BB3
:101390000FD10C48C1F38343C903C05C0AD551681F
:1013A000084AC1F34041921E515C054A5043B0FBCC
:1013B000F1F07047044948437047000000100240B4
:1013C00000127A001235000800093D002DE9F84F9F
:1013D000040070D02078C04DC00749D06868C0F3C1
:1013E0008100012807D06868C0F38100022809D174
:1013F0006868C00306D52868800339D5606800286E
:10140000E7D035E06068B0F5803F0BD010B1B0F5A3
:10141000A02F11D0286820F480302860286820F49C
:10142000802002E0286840F480302860606890B135
:10143000FFF752FE06460AE0286840F48020286044
:10144000F0E700BFFFF748FE801B642873D82868C8
:101450008003F7D50CE0FFF73FFE064605E000BF2E
:10146000FFF73AFE801B6428F0D828688003F7D481
:1014700020789A4E80074FF001094FF0000839D5C7
:10148000686810F00C0F07D06868C0F3810002286C
:1014900009D16868C00306D42868800714D520697C
:1014A000012808D110E02069B0B1C6F80090FFF71C
:1014B00013FE074605E00AE1FFF70EFEC01B0228F7
:1014C000C4D828688007F7D52868616920F0F8003B
:1014D00040EAC10028600DE0C6F80080FFF7FCFD7F
:1014E000074604E0FFF7F8FDC01B022823D8286850
:1014F0008007F7D4207800072CD57948A169D9B1A5
:10150000C0F80090FFF7E8FD074604E0FFF7E4FDB0
:10151000C01B02280FD8686A8007F7D571484FF4BE
:10152000FA510068B0FBF1F0009000BF0098411E36
:101530000091FAD20EE080E0C0F80080FFF7CCFD09
:10154000074604E0FFF7C8FDC01B022875D8686A8B
:101550008007F7D42078400760D5E8690027C000ED
:1015600008D4E86940F08050E861E869012700F09C
:10157000805000905C480168C90513D40168834617
:1015800041F480710160FFF7A7FD824606E000BFCD
:10159000FFF7A2FDA0EB0A0064284ED8DBF800009C
:1015A000C005F5D5E06801280AD008B1052813D098
:1015B000286A20F001002862286A20F0040002E076
:1015C000286A40F001002862E06841F2883B98B147
:1015D000FFF782FD82460BE0286A40F00400286293
:1015E000EEE700BFFFF778FDA0EB0A0159455AD896
:1015F000286A8007F6D50CE0FFF76EFD824605E00D
:10160000FFF76AFDA0EB0A0159454CD8286A80070C
:10161000F6D41FB1E86920F08050E861E06988B332
:101620006968C1F38101022944D00228C6F86080AC
:1016300004D0FFF751FD044638E034E0FFF74CFDDD
:10164000074604E0FFF748FDC01B02282BD8286896
:101650008001F7D4206AB0F5803F05D16868A168A1
:1016600020F4003008436860D4E908010843696841
:1016700021F4741108436860C6F86090FFF72CFDF0
:10168000044606E025E000BFFFF726FD001B022808
:1016900009D828688001F7D51BE000BFFFF71CFDC3
:1016A000001B022802D90320BDE8F88F28688001BA
:1016B000F4D40EE00128F7D06868226A00F4803183
:1016C000914204D1616A00F47010884201D0012077
:1016D000EAE70020E8E70000001002400000424274
:1016E00080044242580000200070004010B5401EA7
:1016F000B0F1807F01D3012010BD4FF0E024606184
:101700000F21601701F03FFB0020A061072020613E
:10171000002010BD7047704770B590F83C20012A3A
:1017200026D0012480F83C40022280F83D20036846
:101730005A689D6822F070060A6832435A600D4B61
:1017400002689A4208D0B2F1804F05D00A4B9A4203
:1017500002D00A4B9A4204D1496825F0800319430C
:10176000916080F83D40002180F83C10084670BD33
:10177000022070BD002C0140000400400008004021
:1017800010B5040003D094F83D0010B107E001202B
:1017900010BD002084F83C00204600F01FF8022015
:1017A00084F83D00211D206801F0B6F8012084F87E
:1017B000460084F83E0084F83F0084F8400084F836
:1017C000410084F8420084F8430084F8440084F81F
:1017D000450084F83D00002010BD000008B5154A02
:1017E0000168154891420ED1816941F4006181611F
:1017F0008069002200F40060009011461920FFF774
:10180000D7FC192010E0B1F1804F11D1C16941F02E
:101810000101C161C069002200F001000090114681
:101820001C20FFF7C5FC1C20BDE80840FFF7B2BC38
:1018300008BD0000002C01400010024090F83D104F
:10184000012901D001207047022180F83D10016874
:10185000CA6842F00102CA6000680B49884208D099
:10186000B0F1804F05D00949884202D0084988422A
:1018700004D1816801F00701062903D0016841F015
:101880000101016000207047002C0140000400406D
:101890000008004070B5044690F83C00002501287F
:1018A00017D0012684F83C60022084F83D002068AF
:1018B000826822F0770222F47F4282600868502812
:1018C00038D00DDC20284FD005DC90B3102811D182
:1018D0004AE0022070BD302846D040280AD13BE0C3
:1018E00060282FD070280DD0B0F5805F03D0B0F500
:1018F000005F12D0012584F83D60002084F83C0090
:10190000284670BDCB68D1E90121206801F040F87C
:101910002068816841F0770109E0CB68D1E90121B5
:10192000206801F035F82068816841F480418160C9
:10193000E1E719E0CA684968206801F03BF85021E6
:10194000206806E0CA684968206801F044F8602110
:10195000206801F027F8CEE7CA684968206801F0DE
:1019600029F840212068F4E7226801461046F0E794
:1019700070472DE9F04104460068C66805694FF0DC
:101980000007A90713D5B10711D5F91E0161012080
:101990002077206880698007204602D0FFF7E8FFA3
:1019A00004E000F07EF8204600F07CF82777680716
:1019B00016D5700714D521686FF004000861022065
:1019C00020772068806910F4407F204602D0FFF71E
:1019D000CFFF04E000F065F8204600F063F82777B9
:1019E000280715D5300713D521686FF00800086166
:1019F000042020772068C0698007204602D0FFF7C6
:101A0000B7FF04E000F04DF8204600F04BF82777D0
:101A1000E80616D5F00614D521686FF010000861AD
:101A2000082020772068C06910F4407F204602D04B
:101A3000FFF79EFF04E000F034F8204600F032F893
:101A40002777E80708D0F00706D021686FF001007B
:101A50000861204600F028F8280608D5300606D58B
:101A600021686FF0800008612046FFF753FE68068A
:101A700008D5700606D521686FF040000861204641
:101A800000F032F8A8060AD5B00608D521686FF034
:101A9000200008612046BDE8F041FFF73CBEBDE8EC
:101AA000F0817047704700000C490068096888425F
:101AB00012D10B48418A491C4182018B491C018388
:101AC000818A491C8182074A1188491C11800121A1
:101AD0008170C170FFF708B87047000090010020C6
:101AE0000800002048000020704770477047000041
:101AF000F8B5016804460868CA684B6910F00F0F12
:101B00004FF0000559D003F0010602F490773743F7
:101B100065D0C10705D0D10503D5616C41F0010145
:101B20006164410705D5D90703D0616C41F002011A
:101B30006164810705D5D90703D0616C41F00401C8
:101B40006164010707D502F02001314303D0616CC5
:101B500041F008016164616C00293AD0800604D527
:101B6000900602D5204600F0B3FF20684069616C02
:101B7000C0F38010090700D460B3204600F045FF91
:101B800020684069400621D52068143050E8001FC5
:101B900021F0400140E80012002AF5D1E06BA8B125
:101BA0006D494163E06BFFF785F8002811D0E06BC9
:101BB000416B01B0BDE8F040084783060FD593069E
:101BC0000DD52046BDE8F84000F082BF2046FFF763
:101BD0008DFFF8BD2046FFF789FF6564F8BD266BD1
:101BE0002023012E7CD1C6067AD5D60678D5086882
:101BF0004868009048694FF00206400640D5E16B06
:101C0000086840680004000CE8D0A28D8242E5D943
:101C1000E085886920282DD020680C3050E8001F0E
:101C200021F4807140E80012002AF5D120681430B8
:101C300050E8001F21F0010140E80012002AF5D110
:101C40002068143050E8001F21F0400140E80012E5
:101C5000002AF5D184F84230256320680C3050E822
:101C6000001F21F0100140E80012002AF5D1E06BBE
:101C7000FEF7FCFF6663A08DE18D401A81B22AE079
:101C8000A08DE18D401A81B2E08D0028A6D00029F8
:101C9000A4D022680C3252E8000F20F4907042E881
:101CA0000007002FF5D12068143050E8002F22F0F3
:101CB000010240E80027002FF5D184F84230256367
:101CC00020680C3050E8002F22F0100240E800237A
:101CD000002BF5D166632046FFF707FFF8BDFFE74D
:101CE00005062BD5150629D594F841002128F5D1F4
:101CF000A068B0F5805F01D12069B0B1206A411CB5
:101D00002162216800784860E08C401E0004000CCD
:101D1000E084E3D12068C16821F08001C1602068BF
:101D2000C16841F04001C160D8E7206A0088C0F373
:101D300008004860206A801C2062E5E74006CDD597
:101D40005006CBD5CA68204622F04002CA6084F80B
:101D5000413000F023F9C1E7FB29000870B5040009
:101D600004D094F84100002510B106E0012070BDB8
:101D700084F84050204600F023F8242084F84100E5
:101D80002068C16821F40051C160204600F002FFC4
:101D90002068016921F4904101612068416921F0C6
:101DA0002A0141612068C16841F40051C160656445
:101DB000202084F8410084F842006563002070BD53
:101DC00070B586B0002400940194029403940368D3
:101DD0002E482D4E022103220515B34226D18369D8
:101DE00043F480438361836903F4804304938369EC
:101DF00043F0040383618069254E00F004000490E1
:101E00000802CDE90001039269463046FFF762F807
:101E1000CDE90054694630460294FFF75BF8002292
:101E200011462520FFF7C4F9252028E0194EB342BA
:101E300027D1C36943F48023C361C36903F48023BA
:101E40000493836943F0080383618069CDE90051FD
:101E500000F00800CDE903200F4D69462846FFF742
:101E600039F8E814CDE90004694628460294FFF7E2
:101E700031F8002211462720FFF79AF92720FFF7B3
:101E800089F906B070BD0000003801400010024022
:101E90000008014000480040000C014090F842302A
:101EA000202B01D00220704721B11AB10023036317
:101EB00000F0CCBE0120704710B5044600680B4905
:101EC000884205D10A4800F021FB094800F06AFB6E
:101ED00008492068884207D1074800F0BDFDBDE8E9
:101EE0001040054800F012BF10BD0000004800403F
:101EF0005C00002000380140B40000202DE9F843C8
:101F0000044690F84100984616460D46202802D017
:101F10000220BDE8F88385B17EB1002060642120F5
:101F200084F84100FFF7D8F8A6848146E684A068CB
:101F30002027B0F5805F02D003E00120E9E72069A7
:101F400010B12E4600250EE000260CE08021204630
:101F500000F097FEA8B9C6B116F8010B21684860D9
:101F6000E08C401EE084E08C4B464FF00002CDF840
:101F700000800028EAD14FF04001204600F081FEA9
:101F800040B184F841700320C3E735F8020BC0F379
:101F90000800E3E784F841700020BAE770470000CA
:101FA0000548417A0548012903D001222021FFF785
:101FB0008EB80022FAE7000008000020000C014063
:101FC000174810B5807A174C4FF48071012813D050
:101FD00002281CD0032820D001222046FFF777F8E2
:101FE000012280212046FFF772F801222046BDE839
:101FF00010404021FFF76BB801222046FFF767F839
:10200000012280212046FFF762F80022EEE701223C
:102010002046FFF75CF80022E3E70022DDE700003E
:1020200008000020000C0140FEE7AE2100F8011B73
:1020300000210160416081607821017041708170F0
:10204000704700002DE9F04186B000243748009425
:10205000019402940394816941F0100181618169C6
:1020600001F010010491816941F0200181618169D1
:1020700001F020010491816941F0040181618169CD
:1020800001F004010491816941F0080181618069D6
:10209000274F00F008004FF4005504900022294615
:1020A0003846FFF714F8DFF88C8000224BF2F43149
:1020B0004046FFF70CF80095022601250396CDE96E
:1020C000015469463846FEF705FF41F6FF008DE8EA
:1020D0003100194F69463846FEF7FCFE44F20B000A
:1020E0008DE8310069464046FEF7F4FE0420CDE954
:1020F00000050320CDE9024069464046FEF7EAFEAE
:102100004BF2F030CDE90005CDE902466946404684
:10211000FEF7E0FE4FF40140CDE900046946384681
:102120000294FEF7D7FE06B0BDE8F0810010024031
:1021300000100140000C01400008014010B586B0BD
:1021400000241748009401940294039404941349C2
:10215000059401604721C0E901144FF6FF71C0E901
:10216000031444618461FFF70BFB08B172B6FEE70C
:102170004FF48050009069460948FFF78BFB08B187
:1021800072B6FEE7049404A905480594FFF7C4FA63
:10219000002801D072B6FEE706B010BD002C014049
:1021A0004801002010B586B0002416480094019420
:1021B0000294039404944FF08041059401604721F8
:1021C000C0E9011440F2E731C0E903148461FFF76C
:1021D000D7FA08B172B6FEE74FF480500090694616
:1021E0000848FFF757FB08B172B6FEE7049404A94C
:1021F00004480594FFF790FA002801D072B6FEE774
:1022000006B010BD90010020FEE7FEE77047000019
:102210002DE9F041FFF7D4FEFFF7C2FE334C002555
:10222000334E60784FF400770E2831D010DC70B355
:10223000012847D0022828D1002239463046FEF72F
:1022400046FF01223046BDE8F0411021FEF73FBFB6
:10225000CF2813D0EE2818D125834FF4807125485C
:10226000FEF728FF01283ED0012239463046FEF70E
:102270002EFF002210213046FEF729FFFEF7F8F965
:102280000E2060704EF661206083BDE8F08110E0A2
:10229000002239463046FEF71AFF2583A571608B70
:1022A0004EF660218842F0D24FF47A702083657038
:1022B000EBE7002239463046FEF709FFFEF7B0FC97
:1022C0000022BFE7002239463046FEF700FFFEF746
:1022D000A7FCA08AB0F5967FD7D310213046FEF731
:1022E000EEFEA582D1E70022BFE700000800002033
:1022F000000C01400008014070B581620968044685
:102300006FF0400008600025257584F85450E5758D
:102310002576A575A576E5832584657584F85550E1
:10232000A58384F82250AB206076BC2084F8560048
:102330000A212046FEF78FF8C4F80A50C4F80E5060
:1023400065820A2104F12C00FEF785F80A2104F1C8
:102350004000FEF780F86B4D01212846FEF7AAFEEB
:1023600000287CD05FF0000094F82410084384F823
:10237000240002212846FEF79DFE002870D0002090
:1023800094F8241041EA400084F8240004212846EF
:10239000FEF790FE002865D05FF0000094F824104E
:1023A00041EA800084F8240008212846FEF782FED6
:1023B000002873D05FF0000094F8241041EAC000B8
:1023C00084F8240010212846FEF774FE002868D007
:1023D0005FF0000094F8241041EA001084F8240013
:1023E00020212846FEF766FE00287CD05FF0000022
:1023F00094F8241041EA401084F824004021284633
:10240000FEF758FE68B3002094F8241041EA8010CB
:1024100084F8240080212846FEF74CFEE8B3002013
:1024200094F82410384E41EAC01084F824000121A9
:102430003046FEF73FFE90B35FF0000094F82310A3
:10244000084384F8230002213046FEF733FE38B3F8
:102450005FF0000094F8231041EA400003E036E00A
:1024600039E042E039E084F823004FF40061284667
:10247000FEF720FE70B3002094F8231041EA80009C
:1024800084F823004FF480512846FEF713FE70B302
:102490005FF0000094F8231004E029E01FE029E039
:1024A0002AE01EE041EAC00084F82300B4F82300CB
:1024B000012240BAE08404F11701A06AFFF7EEFCA4
:1024C0003046BDE8704000220421FEF700BE012026
:1024D0004AE708E012E0012052E701205EE7012010
:1024E0006AE7012076E7012082E701208CE707E018
:1024F000012095E70120A1E70120ABE70120BBE720
:102500000120C7E700080140000C014070B50446F7
:102510000126807D354610B101282DD110E0E07DE7
:10252000617E884202D12070A57507E094F85610AC
:10253000884221D184F82C000220A07525761BE06A
:10254000217EE07D6054207E092809D0401CC0B265
:102550002076092810D90026204600F015F811E051
:102560000A212046FEF775F8A076617A8142F2D101
:102570002575E08B401CE083012204F11701A06A5D
:10258000FFF78CFC304670BD00210175C1750176E6
:1025900080F854108175836A00F1170101221846F2
:1025A000FFF77CBC10B5017D01290FD1084A1170DD
:1025B0008378084A32F81310491C22F81310C178A6
:1025C0008078054A11540548FFF7DEFF012010BD51
:1025D00016000020A0020020800300205C000020E4
:1025E00070B518488078012807D0012000F0D2F893
:1025F000BDE870400220FEF7A9BB002401E0202CBA
:1026000005D244F0800000F0C5F8802007E0A4F176
:102610002000C0B240F0800000F0BCF8882000F03C
:10262000B9F80025002000F0D5F8002000F0D2F81D
:102630006D1CEDB2082DF5D3641CE4B2402CDED342
:1026400070BD0000000000202DE9F0410646002486
:1026500001E0202C18D2002544F08008404600F00C
:1026600099F845F0800000F095F8680000EB041739
:10267000F05D00F0AFF8B819407800F0ABF86D1CD1
:10268000EDB2082DEAD31BE0A4F12000002540F0B4
:10269000800800BF08F0FF0000F07CF845F08800DB
:1026A00000F078F8680000EB0417F05D00F092F895
:1026B000B819407800F08EF86D1CEDB2082DE9D302
:1026C000641CE4B2402CC4D3BDE8F08110B50F4CBB
:1026D000012807D0002804D1302000F05BF800204A
:1026E000A07010BD302000F055F80120FEF72EFB41
:1026F000342000F04FF80120FEF728FB362000F0D0
:1027000049F80120FEF722FB0120E9E70000002044
:1027100070B51F4D4FF48044002221462846FEF735
:10272000D6FC0A20FEF712FB012221462846FEF7BE
:10273000CEFC3220FEF70AFB302000F02BF86E2092
:1027400000F032FB302000F025F8282000F02CFBB0
:10275000082000F01FF86E2000F026FB012000F09A
:1027600019F80C20FEF7F2FA062000F013F8012009
:10277000FEF7ECFA0C2000F00DF80120FEF7E6FA67
:10278000022000F007F8BDE870400120FEF7DEBA35
:10279000000C014070B501220D4E04461503294678
:1027A0003046FEF794FCF82000F054F804F0F000F6
:1027B00000F050F82007000E00F04CF8322000F036
:1027C000F3FA29463046BDE870400022FEF77FBC90
:1027D000000C014070B501220D4E04461503294638
:1027E0003046FEF774FCFA2000F034F804F0F000F4
:1027F00000F030F82007000E00F02CF8322000F036
:10280000D3FA29463046BDE870400022FEF75FBC8F
:10281000000C014010B5144641F0800370B101284E
:1028200004D0022805D0032808D105E041F0900328
:1028300004E041F0880301E041F09803D8B2FFF7CB
:10284000A9FF02E0641CFFF7C5FF20780028F9D13A
:1028500010BD70472DE9F0410F4F002405464FF49D
:1028600000487E1405FA04F0000601D5012200E0BC
:10287000002241463846FEF72AFC002231463846FF
:10288000FEF725FC012231463846FEF720FC641C89
:10289000082CE7DBBDE8F081000C0140FEF722BC0C
:1028A00030B58FB028216846FDF7D5FD14210AA860
:1028B000FDF7D1FD01210804CDE9001000240294A8
:1028C00002250491CDE907504FF4E01009906846C5
:1028D000FEF77CFD08B172B6FEE70F20CDE90A05D0
:1028E0004FF48060CDE90C4002210AA80E94FEF757
:1028F00091FC002801D072B6FEE70FB030BD7047E2
:102900000148FFF736B80000480100200148FFF7F2
:1029100030B8000090010020F0B50268194B1A4C45
:102920001A4D4FF08047984205D0B84203D0A042DC
:1029300001D0A84203D122F070064A68324398427F
:1029400005D0B84203D0A04201D0A84203D122F45E
:102950004074CA6822434C6922F08002224302601C
:102960008A68C2620A688262984201D10969016379
:10297000012141610169C90703D0016921F0010109
:102980000161F0BD002C014000040040000800403F
:1029900010B5846842EA032224F47F440A432243A8
:1029A000826010BD826822F070020A4342F0070183
:1029B0008160704710B5036A046A24F00104046260
:1029C000846924F0F00444EA021423F00A020A4362
:1029D0008461026210BD10B5036A046A24F0100419
:1029E0000462846923F0A00324F4704444EA0232B0
:1029F00043EA01118261016210BD10B5406A0021F5
:102A0000C185C184FFF772F810BD01680C3151E82F
:102A1000002F22F4907241E80023002BF5D10168C9
:102A2000143151E8002F22F0010241E80023002B6D
:102A3000F5D1016B012909D101680C3151E8002F52
:102A400022F0100241E80023002BF5D1202180F86C
:102A5000421000210163704730B4417E0122A9B1C8
:102A6000012911D1C37E817EC154C37E00210B2B6D
:102A700014D05B1CDAB2C2760B2A05D9C176017676
:102A8000016041608160417630BC7047817E037F88
:102A90009942F9D101704276C276F5E7C37A447F54
:102AA000A34209D10276418C0122491C418430BCE9
:102AB00004210648FEF70BBBC17601760160416038
:102AC0008160828C521C8284DDE70000000C014092
:102AD00008B590F84210222901D0022008BD826872
:102AE0004FF480539A4201D1016921B1816A9A421F
:102AF0001BD04AB10AE00268816A5268C2F3080238
:102B00000A80816A891C08E0026972B10268526811
:102B100002F07F020A70816A491C8162C18D491EE0
:102B20000904090CC18503D01BE002685268F1E773
:102B30000168CA6822F02002CA600168CA6822F4EB
:102B40008072CA6001684A6922F001024A6120214C
:102B500080F8421000214163026B012A03D0FFF785
:102B6000ABF9002008BD016301680C3151E8002F6A
:102B700022F0100241E80023002BF5D101680A6819
:102B8000D20602D50A6849680091818DFEF7ADFF33
:102B9000E7E7000070B5044600680169E26821F4C7
:102BA0004051114301612169A068084361690843EC
:102BB0002168CA6841F20C639A430243CA602068E4
:102BC0004169A26921F44071114341611E492068A5
:102BD000884202D1FEF7C4FB01E0FEF7B1FB00EB37
:102BE000C00101EB0012606864218000B2FBF0F3C9
:102BF000B3FBF1F36FF018067343B2FBF0F5B2FBD1
:102C0000F0F605EB8305322303EB0515B5FBF1F573
:102C1000B6FBF1F605F0F00505EB0615B2FBF0F694
:102C2000B2FBF0F0B0FBF1F06FF01802504306EB8E
:102C3000800003EB0010B0FBF1F0216800F00F0002
:102C40002844886070BD00000038014081628285A0
:102C5000C28500214164222180F84210016921B11E
:102C60000168CA6842F48072CA6001684A6942F029
:102C700001024A610068C16841F02001C160002082
:102C800070472DE9F843984617460D460446089EBE
:102C900024E0701C22D0FEF71FFAA0EB0800B0421F
:102CA0001AD8CEB12068C168490717D5802D15D034
:102CB000402D13D00168C94309070FD401680025CE
:102CC000406800902046FFF7A0FE0820606484F86A
:102CD00040500120BDE8F8830320FBE7206800682E
:102CE00035EA000004D00020B842D2D00020F1E73D
:102CF0000120F9E70148FEF7FBBE0000D8010020E3
:102D00000148FEF7F5BE00002002002001207047B8
:102D100030B5194D85B04E242846FDF7D1FE0A2066
:102D2000FEF714F8164915480A6840F80E2F4A684D
:102D3000426089688160C07A10498DF800000D22D8
:102D40000D3101A8FDF708FB0DF1040C28469CE8A5
:102D50000E00FDF715FF0120FDF7F8FF0749284693
:102D60000D31FDF7EFFE05480C2205490E30FDF749
:102D7000C7FA05B0204630BD00FC00082C01002039
:102D800020010020FEE70907090E002804DB00F1FE
:102D9000E02080F80014704700F00F0000F1E02000
:102DA00080F8141D70470000044900220B685A6225
:102DB00009684A6A8242FCD370470000480100203B
:102DC000FEF798F9FFF76CFDFFF73CF9FFF7B6F94E
:102DD00092489149002401604FF4E131C0E90114A7
:102DE0000C25C460C0E904458461C461FEF7B6FFE8
:102DF00008B172B6FEE7FFF7D5F988488849483030
:102E000001604FF46141C0E90114C460C0E90445A8
:102E10008461C461FEF7A2FF08B172B6FEE7DFF875
:102E200004B200224FF400715D465846FEF74FF998
:102E3000002210212846FEF74AF9012220212846C7
:102E4000FEF745F900224FF480712846FEF73FF95E
:102E5000002240212846FEF73AF900228021284628
:102E6000FEF735F96D490120C831A1F1380601F1AD
:102E7000700501F1E00730543C5421F8104025F86A
:102E80001040401CC0B23828F5D3DFF89CA14FF0A9
:102E9000010910228AF8039060498AF804208AF810
:102EA000029048316148FFF727FA5C489038FEF7F6
:102EB000C5FCFFF72DFC0120FFF708FC5C48FFF77D
:102EC000C3FB40F6B830FDF741FF0020FFF7FEFBE3
:102ED000FFF786FB57A15B48FDF78EF95AA15D48C5
:102EE000FDF78AF951485CA1C28C5D48FDF784F971
:102EF0005C4A00210320FFF78DFC594A0021022083
:102F0000FFF788FC534A00210120FFF783FC0021D2
:102F10004C4A0846FFF77EFCFDF73CFE3F48483828
:102F2000FEF78CFC00224FF400514F48FEF7CFF81B
:102F3000A0465446FFF76CF94FF47A70FDF7DAFBC0
:102F4000FDF785FB2089642846D3012204215846D9
:102F5000FEF7BDF8354FAB20B87287F80B80A0782C
:102F6000305C3873E088020A7A73B87387F80F8090
:102F70002078012844D00320387487F81180FE207F
:102F8000B8742A480A210A308246FDF762FBF874B9
:102F900022484FF0FF330A2251464830FEF7AEFF79
:102FA000387B002235F81010491C25F81010042138
:102FB0005846FEF78CF8B88B401CB883A078401CAC
:102FC000C0B2A0702179884204D9E078A070E0886E
:102FD000401CE080A4F80880244A414684F801801F
:102FE00001206778135C401C3B44C0B263703828F2
:102FF000F7D313F0FF0F08D084F80090012206E009
:1030000087F8119087F81090B9E7217000221021FD
:103010005846FEF75CF88DE700380140D8010020E3
:1030200000480040000C0140400000205C000020EF
:1030300070300008594F44592058494E20434841A8
:103040004F000000E00000204D414348204D414E1C
:1030500047000000F000002049443A2025640000A9
:10306000000100201001002000100140800300201A
:103070000000000000000000000000000000000050
:103080000000000000000000000000000000000040
:103090000000000000000000000000000000000030
:1030A0000000000000000000000000000000000020
:1030B0000000000000000000000000000000000010
:1030C0000000000000000000000000000000000000
:1030D00000000000000000000000000000000000F0
:1030E00000000000000000000000000000000000E0
:1030F000000000000000000000000FE000000000E1
:10310000000000000000000000000FE000000000D0
:10311000000000000000000000000FE000000000C0
:10312000000000000000000000000FE000000000B0
:10313000000000000000000000000FE000000000A0
:10314000000000000000000000000FE00000000090
:10315000000000000000000000000FE00000000080
:10316000000000000000000000000FE00000000070
:10317000000000000000000000000FE00000000060
:10318000000000000000000000000FE00000000050
:10319000000000000000000000000FE00000000040
:1031A000000000000000000000000FE00000000030
:1031B000000FC001F801FF00007FCFE7E000F8003A
:1031C000000FE001F807FFC000FFFFE7E001FC008F
:1031D000000FE001F81FFFE003FFFFE7E001FC0044
:1031E000000FE001F83FFFF807FFFFE7E001FC00F8
:1031F000000FE001F87FFFF80FFFFFE7E001FC00A0
:10320000000FE001F87FFFFC0FFFFFE7E001FC008B
:10321000000FE001F8FF83FE1FF07FE7E001FC00F4
:10322000000FE001F8FE01FE1FC03FE7E001FC00D7
:10323000000FE001F9FC00FE3F801FE7E001FC0009
:10324000000FE001F9FC007F3F800FE7E001FC0088
:10325000000FE001F9F8007F3F000FE7E001FC00FC
:10326000000FE001F9F8003F3F0007E7E001FC0034
:10327000000FE001F9F80000000007E7E001FC00A2
:10328000000FE001F9F8007F3F000FE7E001FC00CC
:10329000000FE003F9FC007F3F800FE7F001FC0026
:1032A0000007E003F9FC007F3F800FE7F001FC001E
:1032B0000007F007F9FE00FE3FC01FE3F803FC0023
:1032C0000007F80FF8FF01FE1FE03FE3FC07FC00DA
:1032D0000003FFFFF8FFFFFC1FFFFFE1FFFFFC0003
:1032E0000003FFFFF87FFFFC0FFFFFE1FFFFFC0083
:1032F0000001FFFFF83FFFF807FFFFE0FFFFFC00C2
:103300000000FFFFF81FFFF003FFFFE07FFFFC005E
:1033100000007FFFF80FFFE001FFFFE03FFFFC0030
:1033200000001FFDF807FF8000FFE7E01FFDFC0025
:10333000000007F1F800FE00001F83C003F9FC0045
:10334000000FC001F800000000000007E001FC00D1
:10335000000FE003F800000000000007E001FC009F
:103360000007E003F800000000000007F001F8008B
:103370000007F007F000000000000003F003F80071
:103380000007F80FF000000000000003F807F80045
:103390000003FE1FF000000000000003FE1FF0000D
:1033A0000003FFFFE000000000000001FFFFF0004D
:1033B0000001FFFFC000000000000000FFFFE00070
:1033C0000000FFFFC000000000000000FFFFC00081
:1033D00000007FFF00000000000000007FFF800071
:1033E00000003FFE00000000000000001FFF000082
:1033F00000000FF8000000000000000007FC0000C3
:1034000000000000000000000000000000000000BC
:1034100000000000000000000000000000000000AC
:10342000000000000000000000000000000000009C
:10343000000000000000000000000000000000008C
:10344000000000000000000000000000000000007C
:10345000000000000000000000000000000000006C
:10346000000000000000000000000000000000005C
:10347000000000000000000000000000000000004C
:10348000000000000000000000000000000000003C
:10349000000000000000000000000000000000002C
:1034A000000000000000000000000000000000001C
:1034B000000000000000000000000000000000000C
:1034C00000000000000000000000000000000000FC
:1034D00000000000000000000000000000000000EC
:1034E00000000000000000000000000000000000DC
:1034F00000000000000000000000000000000000CC
:1035000000000000000000000000000000000000BB
:10351000010202030405060708090A0B0C0D0E0F31
:103520001010000000000000000001020304060764
:103530000809000000000102030400005C350008D7
:10354000000000205C00000028010008B8350008D9
:103550005C000020DC0900004401000840800000FD
:10356000000000000000000000000000000000005B
:10357000000000000000000000000000000061EA00
:1035800000000000000000000000000044433A205A
:10359000000000000000000000000000000000002B
:1035A000000000000000000001000000100000000A
:0835B0000000000000127A0087
:04000005080000ED02
:00000001FF
